:020000040000FA
:1000000080313428013401347E14803164000B1FA8
:1000100032282100111F13282000111F13289431AA
:100020003424803132282100911E20282000911E86
:10003000202822006B088A006A080A0080313228D2
:100040002100911C2A282000911C2A289331622328
:10005000803132282100111C32282000111C322846
:10006000943140247E1009008031362880310220EE
:100070008031DF00803103208031E00021009331A6
:100080005B238031EC0093315C238031ED009331B0
:100090005D238031EE00220093316A238031EC0031
:1000A00093316B238031ED0093316C238031EE006E
:1000B00093316D238031EF002030840000308500C3
:1000C000243093319B238031E4308400003085005C
:1000D000083093319B23803120308400013085002B
:1000E0003E3093319B238031A03084000130850065
:1000F0001D3093319B237E1020009531A92D0034B3
:100100000034013400340234003402340034033447
:100110000034043400340534003406340034073429
:1001200000340734003408340034093400340A340D
:1001300000340B3400340B3400340C3400340D34F0
:1001400000340E3400340F340034103400341034D2
:1001500000341134003412340034133400341434B5
:100160000034153400341534003416340034173498
:1001700000341834003419340034193400341A347B
:1001800000341B3400341C3400341D3400341E345D
:1001900000341E3400341F34003420340034213441
:1001A0000034223400342234003423340034243424
:1001B0000034253400342634003427340034273406
:1001C000003428340034293400342A3400342B34E9
:1001D00000342C3400342C3400342D3400342E34CC
:1001E00000342F34003430340034303400343134AF
:1001F0000034323400343334003434340034353491
:100200000034353400343634003437340034383474
:10021000003439340034393400343A3400343B3457
:1002200000343C3400343D3400343E3400343E3439
:1002300000343F340034403400344134003442341C
:1002400000344334003443340034443400344534FF
:1002500000344634003447340034473400344834E2
:100260000034493400344A3400344B3400344C34C4
:1002700000344C3400344D3400344E3400344F34A8
:10028000003450340034503400345134003452348B
:10029000003453340034543400345534003455346D
:1002A0000034563400345734003458340034593450
:1002B0000034593400345A3400345B3400345C3434
:1002C00000345D3400345E3400345E3400345F3416
:1002D00000346034003461340034623400346334F8
:1002E00000346334003464340034653400346634DC
:1002F00000346734003467340034683400346934BF
:1003000000346A3400346B3400346C3400346C34A0
:1003100000346D3400346E3400346F340034703483
:100320000034703400347134003472340034733467
:100330000034743400347534003475340034763449
:1003400000347734003478340034793400347A342B
:1003500000347A3400347B3400347C3400347D340F
:1003600000347E3400347E3400347F3400348034F2
:1003700000348134003482340034833400348334D4
:1003800000348434003485340034863400348734B7
:1003900000348734003488340034893400348A349B
:1003A00000348B3400348C3400348C3400348D347D
:1003B00000348E3400348F3400349034003491345F
:1003C0000034913400349234003493340034943443
:1003D0000034953400349534003496340034973426
:1003E000003498340034993400349A3400349A3408
:1003F00000349B3400349C3400349D3400349E34EB
:1004000000349E3400349F340034A0340034A134CE
:100410000034A2340034A3340034A3340034A434B0
:100420000034A5340034A6340034A7340034A73493
:100430000034A8340034A9340034AA340034AB3476
:100440000034AC340034AC340034AD340034AE3459
:100450000034AF340034B0340034B1340034B1343B
:100460000034B2340034B3340034B4340034B5341E
:100470000034B5340034B6340034B7340034B83402
:100480000034B9340034BA340034BA340034BB34E4
:100490000034BC340034BD340034BE340034BE34C7
:1004A0000034BF340034C0340034C1340034C234AA
:1004B0000034C3340034C3340034C4340034C5348D
:1004C0000034C6340034C7340034C8340034C8346F
:1004D0000034C9340034CA340034CB340034CC3452
:1004E0000034CC340034CD340034CE340034CF3436
:1004F0000034D0340034D1340034D1340034D23418
:100500000034D3340034D4340034D5340034D534FA
:100510000034D6340034D7340034D8340034D934DD
:100520000034DA340034DA340034DB340034DC34C0
:100530000034DD340034DE340034DF340034DF34A2
:100540000034E0340034E1340034E2340034E33485
:100550000034E3340034E4340034E5340034E63469
:100560000034E7340034E8340034E8340034E9344B
:100570000034EA340034EB340034EC340034EC342E
:100580000034ED340034EE340034EF340034F03411
:100590000034F1340034F1340034F2340034F334F4
:1005A0000034F4340034F5340034F6340034F634D6
:1005B0000034F7340034F8340034F9340034FA34B9
:1005C0000034FA340034FB340034FC340034FD349D
:1005D0000034FE340034FF340034FF34003400347F
:1005E000013401340134023401340334013403345E
:1005F0000134043401340534013406340134073441
:1006000001340834013408340134093401340A3423
:1006100001340B3401340C3401340C3401340D3406
:1006200001340E3401340F340134103401341134E8
:1006300001341134013412340134133401341434CC
:1006400001341534013416340134163401341734AE
:10065000013418340134193401341A3401341A3491
:1006600001341B3401341C3401341D3401341E3474
:1006700001341F3401341F34013420340134213457
:10068000013422340134233401342334013424343A
:10069000013425340134263401342734013428341C
:1006A000013428340134293401342A3401342B3400
:1006B00001342C3401342D3401342D3401342E34E2
:1006C00001342F34013430340134313401343134C5
:1006D00001343234013433340134343401343534A8
:1006E000013436340134363401343734013438348B
:1006F0000134393401343A3401343A3401343B346E
:1007000001343C3401343D3401343E3401343F344F
:1007100001343F3401344034013441340134423433
:100720000134433401344434013444340134453415
:1007300001344634013447340134483401344834F8
:100740000134493401344A3401344B3401344C34DB
:1007500001344D3401344D3401344E3401344F34BE
:1007600001345034013451340134513401345234A1
:100770000134533401345434013455340134563483
:100780000134563401345734013458340134593467
:1007900001345A3401345A3401345B3401345C344A
:1007A00001345D3401345E3401345F3401345F342C
:1007B000013460340134613401346234013463340F
:1007C00001346434013464340134653401346634F2
:1007D00001346734013468340134683401346934D5
:1007E00001346A3401346B3401346C3401346D34B7
:1007F00001346D3401346E3401346F34013470349B
:10080000013471340134713401347234013473347D
:10081000013474340134753401347634013476345F
:1008200001347734013478340134793401347A3442
:1008300001347B3401347B3401347C3401347D3425
:1008400001347E3401347F3401347F340134803408
:1008500001348134013482340134833401348434EA
:1008600001348434013485340134863401348734CE
:1008700001348834013488340134893401348A34B1
:1008800001348B3401348C3401348D3401348D3493
:1008900001348E3401348F34013490340134913476
:1008A0000134923401349234013493340134943459
:1008B000013495340134963401349634013497343C
:1008C000013498340134993401349A3401349B341E
:1008D00001349B3401349C3401349D3401349E3402
:1008E00001349F3401349F340134A0340134A134E5
:1008F0000134A2340134A3340134A4340134A434C7
:100900000134A5340134A6340134A7340134A834A9
:100910000134A8340134A9340134AA340134AB348D
:100920000134AC340134AD340134AD340134AE346F
:100930000134AF340134B0340134B1340134B23451
:100940000134B2340134B3340134B4340134B53435
:100950000134B6340134B6340134B7340134B83418
:100960000134B9340134BA340134BB340134BB34FA
:100970000134BC340134BD340134BE340134BF34DD
:100980000134BF340134C0340134C1340134C234C1
:100990000134C3340134C4340134C4340134C534A3
:1009A0000134C6340134C7340134C8340134C93485
:1009B0000134C9340134CA340134CB340134CC3469
:1009C0000134CD340134CD340134CE340134CF344C
:1009D0000134D0340134D1340134D2340134D2342E
:1009E0000134D3340134D4340134D5340134D63411
:1009F0000134D6340134D7340134D8340134D934F5
:100A00000134DA340134DB340134DB340134DC34D6
:100A10000134DD340134DE340134DF340134E034B8
:100A20000134E0340134E1340134E2340134E3349C
:100A30000134E4340134E4340134E5340134E6347F
:100A40000134E7340134E8340134E9340134E93461
:100A50000134EA340134EB340134EC340134ED3444
:100A60000134ED340134EE340134EF340134F03428
:100A70000134F1340134F2340134F2340134F3340A
:100A80000134F4340134F5340134F6340134F634ED
:100A90000134F7340134F8340134F9340134FA34D0
:100AA0000134FB340134FB340134FC340134FD34B3
:100AB0000134FE340134FF34013400340234003494
:100AC0000234013402340234023403340234043474
:100AD0000234043402340534023406340234073458
:100AE00002340834023409340234093402340A343A
:100AF00002340B3402340C3402340D3402340D341D
:100B000002340E3402340F340234103402341134FF
:100B100002341234023412340234133402341434E2
:100B200002341534023416340234173402341734C4
:100B3000023418340234193402341A3402341B34A7
:100B400002341B3402341C3402341D3402341E348B
:100B500002341F340234203402342034023421346D
:100B60000234223402342334023424340234243450
:100B70000234253402342634023427340234283433
:100B8000023429340234293402342A3402342B3416
:100B900002342C3402342D3402342E3402342E34F8
:100BA00002342F34023430340234313402343234DB
:100BB00002343234023433340234343402343534BF
:100BC00002343634023437340234373402343834A1
:100BD0000234393402343A3402343B3402343B3484
:100BE00002343C3402343D3402343E3402343F3467
:100BF000023440340234403402344134023442344A
:100C0000023443340234443402344434023445342C
:100C1000023446340234473402344834023449340E
:100C20000234493402344A3402344B3402344C34F2
:100C300002344D3402344E3402344E3402344F34D4
:100C400002345034023451340234523402345234B7
:100C5000023453340234543402345534023456349A
:100C6000023457340234573402345834023459347D
:100C700002345A3402345B3402345B3402345C3460
:100C800002345D3402345E3402345F340234603442
:100C90000234603402346134023462340234633426
:100CA0000234643402346534023465340234663408
:100CB00002346734023468340234693402346934EB
:100CC00002346A3402346B3402346C3402346D34CE
:100CD00002346E3402346E3402346F3402347034B1
:100CE0000234713402347234023472340234733494
:100CF0000234743402347534023476340234773476
:100D000002347734023478340234793402347A3459
:100D100002347B3402347C3402347C3402347D343B
:100D200002347E3402347F3402348034023480341E
:100D30000234813402348234023483340234843401
:100D400002348534023485340234863402348734E4
:100D500002348834023489340234893402348A34C7
:100D600002348B3402348C3402348D3402348E34A9
:100D700002348E3402348F3402349034023491348D
:100D80000234923402349234023493340234943470
:100D90000234953402349634023497340234973452
:100DA000023498340234993402349A3402349B3435
:100DB00002349C3402349C3402349D3402349E3418
:100DC00002349F340234A0340234A0340234A134FB
:100DD0000234A2340234A3340234A4340234A534DD
:100DE0000234A5340234A6340234A7340234A834C1
:100DF0000234A9340234A9340234AA340234AB34A4
:100E00000234AC340234AD340234AE340234AE3485
:100E10000234AF340234B0340234B1340234B23468
:100E20000234B3340234B3340234B4340234B5344B
:100E30000234B6340234B7340234B7340234B8342E
:100E40000234B9340234BA340234BB340234BC3410
:100E50000234BC340234BD340234BE340234BF34F4
:100E60000234C0340234C0340234C1340234C234D7
:100E70000234C3340234C4340234C5340234C534B9
:100E80000234C6340234C7340234C8340234C9349C
:100E90000234CA340234CA340234CB340234CC347F
:100EA0000234CD340234CE340234CE340234CF3462
:100EB0000234D0340234D1340234D2340234D33444
:100EC0000234D3340234D4340234D5340234D63428
:100ED0000234D7340234D7340234D8340234D9340B
:100EE0000234DA340234DB340234DC340234DC34ED
:100EF0000234DD340234DE340234DF340234E034D0
:100F00000234E1340234E1340234E2340234E334B2
:100F10000234E4340234E5340234E5340234E63495
:100F20000234E7340234E8340234E9340234EA3477
:100F30000234EA340234EB340234EC340234ED345B
:100F40000234EE340234EE340234EF340234F0343E
:100F50000234F1340234F2340234F3340234F33420
:100F60000234F4340234F5340234F6340234F73403
:100F70000234F7340234F8340234F9340234FA34E7
:100F80000234FB340234FC340234FC340234FD34C9
:100F90000234FE340234FF340234003403340134AA
:100FA000033401340334023403340334033404348B
:100FB000033405340334053403340634033407346E
:100FC000033408340334093403340A3403340A3450
:100FD00003340B3403340C3403340D3403340E3433
:100FE00003340E3403340F34033410340334113417
:100FF00003341234033413340334133403341434F9
:1010000003341534033416340334173403341834DA
:10101000033418340334193403341A3403341B34BE
:1010200003341C3403341C3403341D3403341E34A1
:1010300003341F3403342034033421340334213483
:101040000334223403342334033424340334253466
:10105000033425340334263403342734033428344A
:101060000334293403342A3403342A3403342B342C
:1010700003342C3403342D3403342E3403342F340E
:1010800003342F34033430340334313403343234F2
:1010900003343334033433340334343403343534D5
:1010A00003343634033437340334383403343834B7
:1010B0000334393403343A3403343B3403343C349A
:1010C00003343C3403343D3403343E3403343F347E
:1010D0000334403403344134033441340334423460
:1010E0000334433403344434033445340334453443
:1010F0000334463403344734033448340334210082
:101100006C08013E2000CD00003021006D3D200024
:10111000CE006430CF000030D000953172254E08EB
:10112000D4004D08D3000800200023082502031D29
:101130009B28220824020318B32824082202F40062
:101140002508233BF50000307502093003197402AD
:10115000031CAF280830A2020030A33BB3282508A7
:10116000A3002408A20025082302031DB92824088F
:1011700022020318D12822082402F4002308253B68
:10118000F50000307502093003197402031CCD28E4
:101190000830A2070030A33DD1282508A300240869
:1011A000A2002308F1002208F0009431C9240800AD
:1011B0000030FC000030FB000030FA000030F90085
:1011C000730872047104700403192129FD01FD0ADA
:1011D000F31BF6280130F035F10DF20DF30D890BFC
:1011E000EB280130F8007808FD07E8280130F935D0
:1011F000FA0DFB0DFC0D890BF72873087702031D10
:101200000B2972087602031D0B2971087502031D54
:101210000B2970087402031C16297008F402710867
:10122000F53B7208F63B7308F73B79140130F3364F
:10123000F20CF10CF00C890B17290130FD02031D93
:10124000F6287C08F3007B08F2007A08F1007908A0
:10125000F000080020002908031908002903031DD5
:1012600039299331522302302000CF004F08A900C2
:10127000080002302906031D4D299331732389315B
:101280004E082102031D46294D08200203180800BC
:101290000330CF004F08A900080003302906031DC2
:1012A000712993317323893121084E02031D5A2974
:1012B00020084D0203180800933155230130C80758
:1012C0000030C93D0030CA3D0030CB3D2000300326
:1012D000FF3ACF004F08A8000430CF004F08A90004
:1012E000080004302906031D080028083007CF0035
:1012F00022004C0820004F02031C08003129200066
:101300003103031D8829BC302100A0000A308C293C
:10131000BA302100A0000C30A100200043082100B9
:10132000A300200042082100A20020004108210063
:10133000A500200040082100A40020003F08210053
:10134000A70020003E082100A6006D08A9006C0837
:10135000A8009331832389314E082100AB0020007F
:101360004D082100AA009331E12389314E08210064
:10137000AD0020004D082100AC0094319524893146
:1013800050082100E30020004F082100E200200067
:101390004E082100E10020004D082100E000630814
:1013A000AF006208AE006108B1006008B000003014
:1013B0002000D0001F30D100A030DA005A08D2003F
:1013C0008931E3210800E0305005D6001F30510577
:1013D000D70000308B1B0130D80057085106031D81
:1013E000F32956085006031D08008B135108CE0040
:1013F0005008CD009531E4258931230015131515CA
:1014000095162000D90150082300910020005108B2
:1014100023009200200059355207D300530886005C
:101420008701010823009300200059355207D3009B
:10143000530886008701403FD400413FD50055083E
:10144000230094001F3020005906031D292A230081
:101450009512553023009600AA309600951400008E
:10146000000001302000D0070030D13D6400013081
:101470002000D3005308D90720305902031C032A47
:10148000230015112000580C031C8B1303188B1715
:10149000080020003D082200D90020003C0822005E
:1014A000D80093317D238A31FF3070052000C400BD
:1014B00003307105C500C435C50D7F304407840075
:1014C0008030453D8500003FBC00013FBD00310834
:1014D000031908002200580820003C022200DA000C
:1014E000590820003D3B2200DB0020003D0822007F
:1014F0005902031D7F2A20003C08220058020318CD
:10150000852A2000B201B20A872A2000B2013D08D4
:101510003F02031D8D2A3C083E020318A82A220020
:101520000C168C12F730F0000230F1009431C9240F
:101530008A31F7302000A2000230A300F730A40067
:101540000230A500F7302000A6000230A7007A2B59
:1015500041083D02031DAE2A40083C02031CB42A88
:1015600022000C168C12A22A43083D02031DBA2A3F
:1015700042083C02031C512B22000C168C16200042
:10158000C801C80A3203031D272B42083C02F000A1
:1015900043083D3BF100F201F3010030F700003059
:1015A000F6000230F500F730F4009631BF268A319C
:1015B0007308CC007208CB007108CA007008C9001B
:1015C00042084002F0004308413BF100F201F30100
:1015D0004C08F7004B08F6004A08F5004908F400EB
:1015E0008831D8208A317308CC007208CB0071088A
:1015F000CA007008C9004C08031D072B4B08031DC7
:10160000072BF830490202304A3B031C0C2BF73001
:10161000A6000230A700262B2608C4002708C50014
:10162000C601C7014C084702031D202B4B08460288
:10163000031D202B4A084502031D202B49084402A4
:101640000318272B4A08A7004908A600C801480329
:10165000031D4D2B21006D0822005502031D342B64
:1016600021006C0822005402031C492BD401D5012F
:1016700008302000A6070030A73D02302702F830CE
:1016800003192602031C4D2BF730A6000230A700D9
:101690004D2B0130D4070030D53D2200D201D301BB
:1016A0007A2B22000C128C166D085302031D5A2B44
:1016B0006C085202031C762BD201D30120002708AC
:1016C00022006F02031D682B2000260822006E02F4
:1016D0000318722B6E082000A60222006F0820005B
:1016E000A73B7A2B2000A601A7017A2B0130D20755
:1016F0000030D33D20002708F1002608F000933188
:101700006E2308002300BF0100302000CD001F30F1
:10171000CE009531C5258B314E082300BE00200038
:101720004D082300BD0001302000CD001F30CE0049
:101730009531C5258B314E082300C50020004D088A
:101740002300C4000330450221300319440203186A
:10175000B42B45082000D100230044082000D0000D
:10176000943129248B31B62BBF01BF0A02302000EF
:10177000CD001F30CE009531C5258B314E0823009A
:10178000C50020004D082300C4000330450221306D
:10179000031944020318D72B45082000D100230069
:1017A00044082000D00094311E248B31D92BBF0176
:1017B000BF0A03302000CD001F30CE009531C52573
:1017C0008B314E082300C50020004D082300C400C3
:1017D000033045022130031944020318FA2B45084F
:1017E0002000D100230044082000D00094311324AD
:1017F0008B31FC2BBF01BF0A04302000CD001F300D
:10180000CE009531C5258B314E082300C500200040
:101810004D082300C400273045021130031944024B
:1018200003181D2C45082000D60023004408200082
:10183000D500963146268B311F2CBF01BF0A0530DB
:101840002000CD001F30CE009531C5258B314E08CC
:101850002300C50020004D082300C40003304502CA
:101860002130031944020318402C45082000CE0003
:10187000230044082000CD009431DF248B31422C1A
:10188000BF01BF0A06302000CD001F30CE009531C9
:10189000C5258B314E082300C50020004D082300CC
:1018A000C400633045029D30031944020318632CC1
:1018B00045082000D600230044082000D5009631BA
:1018C000EE268B31652CBF01BF0A23003F08031DA4
:1018D000822CBC303D060A3003193E060319772CD2
:1018E000BA303D060C3003193E06031DA82CBC304F
:1018F0003D060A3003193E06031DA82C9531232509
:101900008B31A82C00302000D000D1009431292444
:101910008B310030D000D10094311E248B31003047
:10192000D000D100943113248B310030D500D60083
:10193000963146268B3100302000CD00CE00943108
:10194000DF248B310030D500D6009631EE268B3166
:1019500007302000CD001F30CE009531C5258B31DA
:101960004E082300C50020004D082300C400440891
:10197000C0004508C100C201C3011030C035C10D0F
:10198000C20DC30D890BBE2C08302000CD001F30C6
:10199000CE009531C5258B314E082300C5002000AF
:1019A0004D082300C40044082000DB002300450844
:1019B0002000DC00DD01DE015B082300C004200004
:1019C0005C082300C10420005D082300C20420003D
:1019D0005E082300C304400A3F3003194106031D7B
:1019E000062D420A3F3003194306031D062D003021
:1019F0002000D0000030CF000030CE000030CD00FD
:101A0000943185248B3189317F21080043082000DF
:101A1000D000230042082000CF002300410820000E
:101A2000CE00230040082000CD009431852408001A
:101A300020002D08031908002D03031D2A2D300353
:101A4000FF3ADB005B08AE00DF010230DB005B0821
:101A5000AD00080002302D06031D3B2D2E08300777
:101A6000DB0003305B02031C0800AF010330DB0026
:101A70005B08AD00080003302D06031D8E2D2F08D6
:101A8000031908002E083007DB0003305B02031C3B
:101A90000800DF01DF0A220020082000DB005B08CD
:101AA0002300BD00C101C10A20002F08230041020C
:101AB00003186C2D4108203E860001308700010884
:101AC0002000DB005B082300BD0601302000DB00A6
:101AD0005B082300C107542D3D08031D852DAA3046
:101AE0002200200603197C2D5530200603197C2D79
:101AF000A5302006031D852D0F3020002F06031969
:101B0000892D02302F060319892D2000AF01DF0136
:101B100008000430DB005B08AD00080004302D062F
:101B2000031DE62FAA3022002006031D9D2D013043
:101B30002000DB005B082100EE07AA30220020060F
:101B4000031DAE2E0F3020002F06031DAE2E2200E7
:101B500021082000DB00DC015B082300C800200016
:101B60005C082300C900220022082000DB00DC0101
:101B7000230048082000DE00DD015B085D0423002F
:101B8000C80020005C085E042300C900490820004A
:101B9000D100230048082000D000943129248D3141
:101BA000220023082000DB00DC015B082300C800C2
:101BB00020005C082300C900220024082000DB006C
:101BC000DC01230048082000DE00DD015B085D0425
:101BD0002300C80020005C085E042300C9004908F7
:101BE0002000D100230048082000D00094311E249A
:101BF0008D31220025082000DB00DC015B0823007A
:101C0000C80020005C082300C9002200260820002C
:101C1000DB00DC01230048082000DE00DD015B085A
:101C20005D042300C80020005C085E042300C90096
:101C300049082000D100230048082000D00094313A
:101C400013248D31220027082000DB00DC015B0813
:101C50002300C80020005C082300C90022002808D7
:101C60002000DB00DC01230048082000DE00DD014D
:101C70005B085D042300C80020005C085E042300AC
:101C8000C90049082000D600230048082000D500DC
:101C9000963146268D31220029082000DB00DC0128
:101CA0005B082300C80020005C082300C900220054
:101CB0002A082000DB00DC01230048082000DE00A9
:101CC000DD015B085D042300C80020005C085E04A1
:101CD0002300C90049082000CE0023004808200046
:101CE000CD009431DF248D3122002B082000DB0051
:101CF000DC015B082300C80020005C082300C90049
:101D000022002C082000DB00DC0123004808200012
:101D1000DE00DD015B085D042300C80020005C08D4
:101D20005E042300C90049082000D60023004808AB
:101D30002000D5009631EE268D3122002D08031D9E
:101D4000A52E943159248D31A82E953123258D311E
:101D500089317F212000AD01AD0A080055302200F5
:101D60002006031D772F023020002F06031D772F3A
:101D7000933178238D314E082300CB0020004D088D
:101D80002300CA004B082000DB005B082200A100F2
:101D900023004A082000DB005B082200A2009331E8
:101DA0008F238D314E082300CB0020004D082300E7
:101DB000CA004B082000DB005B082200A3002300C0
:101DC0004A082000DB005B082200A400933189232D
:101DD0008D314E082300CB0020004D082300CA009F
:101DE0004B082000DB005B082200A50023004A0806
:101DF0002000DB005B082200A60088317F208D31A7
:101E000054082300CB00200053082300CA004B08CD
:101E10002000DB005B082200A70023004A08200006
:101E2000DB005B082200A800933183238D314E082C
:101E30002300CB0020004D082300CA004B082000DF
:101E4000DB005B082200A90023004A082000DB0019
:101E50005B082200AA009331E1238D314E08230054
:101E6000CB0020004D082300CA004B082000DB00F7
:101E70005B082200AB0023004A082000DB005B085F
:101E80002200AC00933158238D31DB005B08220027
:101E9000AD0020082000DB005B082300BE00C2016B
:101EA000C20A4208203E8600013087000108200057
:101EB000DB005B082300BE0601302000DB005B086E
:101EC0002300C2070E304202031C512F3E0820009F
:101ED000DB005B082200AE000F302000DB005B0857
:101EE000AF00AC010530DB005B08AD000800A53099
:101EF00022002006031DAA2E023020002F06031DFB
:101F0000AA2E933173238D314E082300C000200088
:101F10004D082300BF0040082000DB005B082200C2
:101F2000A10023003F082000DB005B082200A20084
:101F3000943195248D3150082300C70020004F08AC
:101F40002300C60020004E082300C50020004D08D5
:101F50002300C40047082000DB005B082200A30028
:101F6000230046082000DB005B082200A4002300B9
:101F700045082000DB005B082200A5002300440880
:101F80002000DB005B082200A60020082000DB0008
:101F90005B082200A7002300C301C30A07304302E5
:101FA0000318E42F4308203E860001308700010813
:101FB0002000DB005B082200A70601302000DB00C8
:101FC0005B082300C307CE2F08306D2F05302D0688
:101FD000031D080023009E1C080020002F082C026F
:101FE0000318AA2E2C08203E860001308700010825
:101FF00023009A0001302000DB005B08AC070800DA
:102688000800080008000800080095310B2508001C
:1026980021009D14080020001C15080022008E123D
:1026A800080022008E1608002000310808000534B2
:1026B8000034023423001D121D16080091109431B5
:1026C8000824080016302100970008000A34003456
:1026D800043400347108A5007008A40008003D08FF
:1026E800CE003C08CD0008004308CE004208CD00CB
:1026F800080021001C08F1001B08F0000800200059
:102708002108CE002008CD00080020003F08CE0098
:102718003E08CD00080020004108CE004008CD004A
:102728000800A9012100E501933152230800640043
:1027380080010131890B9C2B00344E082200E300F4
:1027480020004D082200E20008004E082200E500A3
:1027580020004D082200E40008004E082300CD00A8
:1027680020004D082300CC0008004E082200E90094
:1027780020004D082200E80008004E082200E7006B
:1027880020004D082200E60008004E082200EB0059
:1027980020004D082200EA0008007A302100990044
:1027A8009A0198012200960108004E082200DF00D5
:1027B80020004D082200DE000800220051082000F9
:1027C800CE00220050082000CD0008002908031D73
:1027D8000800A901A90A2100E501E50A0800C73097
:1027E80028009600950120009210053028009700D7
:1027F800080022005E085F04031908005F088A00C9
:102808005E080A0094310800220064086504031970
:10281800080065088A0064080A0094310800510815
:10282800CE005008CD003E30D2005208CF0095317E
:102838008D2508005108CE005008CD004030D20048
:102848005208CF0095318D2508005108CE00500858
:10285800CD004230D2005208CF0095318D250800B6
:1028680011132200620863040319080063088A0030
:1028780062080A0094310800111022006108F10072
:102888006008F0009431672494319331FD230800E7
:1028980080302C009900BD309800C030970025008A
:1028A8001E08CF3910389E0008002000310803198F
:1028B80008009331952321008C160C162000A401E2
:1028C800A501B10108002000181D712C181071080D
:1028D800970070089600181408007108970070088F
:1028E80096000800CE004E08CD00CD0DCD0D21007C
:1028F8001D0820004D0683394D0621009D001D143A
:10290800080050082200CB0020004F082200CA000F
:1029180020004E082200C90020004D082200C800EF
:10292800080022004B082000D00022004A0820009E
:10293800CF00220049082000CE00220048082000CD
:10294800CD00080001309D00E0309E0050309F000F
:102958009B019C01111744302000CD001330CE009C
:102968009331A12308003E3020009B009A0191106A
:102978002100911447302000CD001330CE00933150
:10298800A923073020009C0008007108F300700894
:10299800F200F336F20CF336F20C72082C009800B1
:1029A80070080339F2000530F235FF3E031DD82CBC
:1029B8007235970008004D0A03194E0A03190800DA
:1029C80003304E02213003194D02031CF02C203035
:1029D800A0000330A10008004E08A1004D08A00087
:1029E800080020002D08031D08002330CD001630F4
:1029F800CE009331D923943103302000CD00163016
:102A0800CE009331C9232000AD01AD0A0800230090
:102A18001908F00020003B08B03E8600013087000E
:102A2800700881000130F0007008BB0708303B02D5
:102A38000318BB010130F0007008B9070800200036
:102A48003103031908009331EA23953121008C12D0
:102A58000C122000A601A701A201A301A401A5014F
:102A68006003031D392D96316C262000B101B10A8F
:102A7800080099013C309700B030960011101708F3
:102A88002200E100200016082200E00021001114B5
:102A980046302000CD001330CE009331D923313099
:102AA8002000980008009631932695319331D12360
:102AB80095319331662395319431A624953193311C
:102AC800F323953194314C2495319431B7249531C1
:102AD80095313D25953197311E270800D101D20146
:102AE8004D1C7A2D4F08D1075008D23D0130CF3503
:102AF800D00D890B7B2D0130CE36CD0C890B802D66
:102B08004D084E04031D742D5208CE005108CD0007
:102B180008004D0A03194E0A0319080003304E0233
:102B2800203003194D02031CA12D4F088600870190
:102B38002030C03F0330C13F08004F08860087019E
:102B48004D08C03F4E08C13F0800953157259531C3
:102B58008B31822395318B170B1796316C26953163
:102B68009331482395319431F52495318D311825C9
:102B7800953189312A2195319731BF2795316400E4
:102B8800BA2D00308B1B0130CF008B134D0823006A
:102B9800910020004E082300920015131514000020
:102BA800000020004F0C031C8B1303188B17230005
:102BB80014082000CE00230013082000CD000800D0
:102BC80000308B1B0130CF008B134D082300910080
:102BD80020004E08230092001513151615155530C0
:102BE8009600AA30960095140000000023001511E5
:102BF80020004F0C031C8B1303188B1708002300AD
:102C08001908F0007008F10020005F08031D080093
:102C18003003FF3AF0007008AE0020302F0203188E
:102C280008007108F0002F08203E86000130870058
:102C3800700881000130F0007008AF07080001300B
:102C4800F00070082000B0070130F0007008AB07F2
:102C58000A302B06031D0800AB010130F000700894
:102C68002100E7070130F00070082000AA073C3077
:102C78002A06031D0800AA010130F000700821008F
:102C8800E6070800550A0319560A031908006330B5
:102C980056029D3003195502031C572EFF302100A0
:102CA800EC000030ED0064302000CD000030CE0094
:102CB8005608D0005508CF00973151274D08FF3EE0
:102CC8002100EC00FF3020004E3D2100ED000800FF
:102CD8002000600803190800E001073094317624C9
:102CE800963106302000CF003030890B792ECF0B7B
:102CF800792E000093314C23963193314F2396312E
:102D08009430CD000830CE009331A9239631493054
:102D18002000CD000A30CE009331A1230800220004
:102D28008C0101308E00073021008C0018308E0095
:102D3800183023008E0003308C0024008C018E0193
:102D48002100951725008C018E01373026008C0054
:102D58003F308E003F3027008C003F308E0014300B
:102D68003D00A00002303C00A4000E303D00A10050
:102D78000E30A20008000030FB000030FA000030DE
:102D8800F9000030F800701CD12E7408F807750897
:102D9800F93D7608FA3D7708FB3D0130F435F50D2D
:102DA800F60DF70D890BD22E0130F336F20CF10C2B
:102DB800F00C890BD92E7308720471047004031D7A
:102DC800C72E7B08F3007A08F2007908F10078082A
:102DD800F0000800550A0319560A03190800633061
:102DE80056029D3003195502031C002F9C30220007
:102DF800D0006330D100072F56082200D1002000F0
:102E080055082200D00064302000CD000030CE00EC
:102E1800220051082000D000220050082000CF00D6
:102E2800973151274E082200CD0020004D0822007E
:102E3800CC0008002100911285302000CD00173009
:102E4800CE009331C9239731083023009F0090307A
:102E58009D0024309E0022309B009C0145302000BC
:102E6800CD001330CE009331B92397315E30200066
:102E7800CD001330CE009331C12397314930200063
:102E8800CD001330CE009331B1232000B801BB012F
:102E9800BA01B901210091160800D301D4014D08E7
:102EA8004E040319802FD201D20ACE1B652F0130A0
:102EB800CD35CE0D890B5C2F0130D1005108D207DA
:102EC800592F0130D335D40D890B662F4E08500287
:102ED800031D702F4D084F02031C772F4D08CF029A
:102EE8004E08D03B53140130CE36CD0C890B782FC9
:102EF8000130D202031D652F5408CE005308CD00BF
:102F0800080020003B08403E860001308700810110
:102F180023001D1D9C2F20003B08403E86000130E9
:102F280087008114220069088A0068080A0097311E
:102F380023009D1CAC2F20003B08403E860001303A
:102F480087000115220067088A0066080A00973181
:102F580020003B08403E8600013087000108031925
:102F6800BC2F23004D088A004C080A00973108003E
:102F780095310B2508002100650803190800650331
:102F8800031DD42F6603FF3A2000DB005B082100F5
:102F9800E40002302000DB005B082100E5000800A7
:102FA80002306506031D0800640866072000DB0080
:102FB8003C305B02031C080021006603FF3A200036
:102FC800DB005B082100E4002200480A3F300319B7
:102FD8004906031DFD2F4A0A3F3003194B06031DFE
:102FE800FD2F0130C8070030C93D0030CA3D003010
:102FF800CB3D89317F210800203420344E344E34B3
:103008004E344E343A3420346E3475346D34623470
:10301800653472342034663472346F346D3420343D
:103028003034203474346F342034393439343934FA
:1030380039340D340A340D340A34003445345234EA
:1030480052344F3452343A34203469346E3476343E
:1030580061346C34693464342034733479346E34B4
:103068007434613478342E340D340A340034203406
:10307800203449343A3420347034723469346E342C
:1030880074342034733479347334743465346D345F
:10309800203449344E3446344F340D340A34003425
:1030A800203420343F343A34203470347234693454
:1030B8006E3474342034743468346934733420348E
:1030C800733463347234653465346E340D340A34C1
:1030D80000342034203448343A342034733465348E
:1030E80074342034483449344734483420347634EE
:1030F8006F346C3474346134673465340D340A3495
:1031080000340D340A340D340A342D342D342D3462
:103118002D342D342D342D342D342D342D342D349F
:103128002D342D342D342D342D340D340A340034FF
:10313800203420344C343A342034733465347434B5
:1031480020344C344F345734203476346F346C3454
:1031580074346134673465340D340A3400344534CA
:10316800723472346F3472343A34203469346E34C1
:10317800763461346C3469346434203461347234A4
:1031880067342E340D340A340034453472347234C2
:103198006F3472343A34203469346E34763461349E
:1031A8006C3469346434203463346F346D342E34B1
:1031B8000D340A34003441347634613469346C3463
:1031C800613462346C346534203443346F346D3484
:1031D8006D3461346E34643473343A340D340A34E3
:1031E80000342034203454343A3420347334653471
:1031F80074342034643465346C3461347934203464
:10320800543449344D3445340D340A3400342034B0
:103218002034483465346C34703420345334633487
:103228007234653465346E340D340A340D340A341E
:103238000034533479346E347434613478343A3425
:10324800203443344E344E344E344E340D340A3424
:1032580000342034203443343A34203463346F3417
:103268006D346D3461346E3464340D340A34003492
:103278002034203448343A34203400342034203484
:103288004C343A34203400342034203454343A3422
:10329800203400344F344B340D340A3400343E3477
:1032A8003E342034203400340834003408340034E8
:020000040001F9
:04000E00FCFFFFFEF6
:00000001FF
