:020000040000FA
:1000000080313428080008007E14803164000B1F02
:1000100032282100111F13282000111F13289531A9
:10002000D525803132282100911E20282000911EE4
:10003000202822006E088A006D080A0080313228CC
:100040002100911C2A282000911C2A289431FE248A
:10005000803132282100111C32282000111C322846
:100060009531E1257E10090080313628F730840073
:10007000943085006330860000308700033095316E
:100080003F2580314530840095308500EA30860078
:1000900000308700063095313F25803120308400C4
:1000A000003085002830953139258031E0308400DA
:1000B000003085000A3095313925803120308400A8
:1000C000013085003F30953139258031A0308400E2
:1000D000013085001030953139257E102000973190
:1000E000392F003400340134003402340034023437
:1000F000003403340034043400340534003406344E
:100100000034073400340734003408340034093430
:1001100000340A3400340B3400340B3400340C3413
:1001200000340D3400340E3400340F3400341034F5
:1001300000341034003411340034123400341334D9
:1001400000341434003415340034153400341634BB
:10015000003417340034183400341934003419349E
:1001600000341A3400341B3400341C3400341D3481
:1001700000341E3400341E3400341F340034203464
:100180000034213400342234003422340034233447
:100190000034243400342534003426340034273429
:1001A00000342734003428340034293400342A340D
:1001B00000342B3400342C3400342C3400342D34EF
:1001C00000342E3400342F340034303400343034D2
:1001D00000343134003432340034333400343434B5
:1001E0000034353400343534003436340034373498
:1001F00000343834003439340034393400343A347B
:1002000000343B3400343C3400343D3400343E345C
:1002100000343E3400343F34003440340034413440
:100220000034423400344334003443340034443422
:100230000034453400344634003447340034473405
:10024000003448340034493400344A3400344B34E8
:1002500000344C3400344C3400344D3400344E34CB
:1002600000344F34003450340034503400345134AE
:100270000034523400345334003454340034553490
:100280000034553400345634003457340034583474
:10029000003459340034593400345A3400345B3457
:1002A00000345C3400345D3400345E3400345E3439
:1002B00000345F340034603400346134003462341C
:1002C00000346334003463340034643400346534FF
:1002D00000346634003467340034673400346834E2
:1002E0000034693400346A3400346B3400346C34C4
:1002F00000346C3400346D3400346E3400346F34A8
:10030000003470340034703400347134003472348A
:10031000003473340034743400347534003475346C
:10032000003476340034773400347834003479344F
:1003300000347A3400347A3400347B3400347C3432
:1003400000347D3400347E3400347E3400347F3415
:1003500000348034003481340034823400348334F7
:1003600000348334003484340034853400348634DB
:1003700000348734003487340034883400348934BE
:1003800000348A3400348B3400348C3400348C34A0
:1003900000348D3400348E3400348F340034903483
:1003A0000034913400349134003492340034933466
:1003B0000034943400349534003495340034963449
:1003C00000349734003498340034993400349A342B
:1003D00000349A3400349B3400349C3400349D340F
:1003E00000349E3400349E3400349F340034A034F2
:1003F0000034A1340034A2340034A3340034A334D4
:100400000034A4340034A5340034A6340034A734B6
:100410000034A7340034A8340034A9340034AA349A
:100420000034AB340034AC340034AC340034AD347C
:100430000034AE340034AF340034B0340034B1345E
:100440000034B1340034B2340034B3340034B43442
:100450000034B5340034B5340034B6340034B73425
:100460000034B8340034B9340034BA340034BA3407
:100470000034BB340034BC340034BD340034BE34EA
:100480000034BE340034BF340034C0340034C134CE
:100490000034C2340034C3340034C3340034C434B0
:1004A0000034C5340034C6340034C7340034C83492
:1004B0000034C8340034C9340034CA340034CB3476
:1004C0000034CC340034CC340034CD340034CE3459
:1004D0000034CF340034D0340034D1340034D1343B
:1004E0000034D2340034D3340034D4340034D5341E
:1004F0000034D5340034D6340034D7340034D83402
:100500000034D9340034DA340034DA340034DB34E3
:100510000034DC340034DD340034DE340034DF34C5
:100520000034DF340034E0340034E1340034E234A9
:100530000034E3340034E3340034E4340034E5348C
:100540000034E6340034E7340034E8340034E8346E
:100550000034E9340034EA340034EB340034EC3451
:100560000034EC340034ED340034EE340034EF3435
:100570000034F0340034F1340034F1340034F23417
:100580000034F3340034F4340034F5340034F634F9
:100590000034F6340034F7340034F8340034F934DD
:1005A0000034FA340034FA340034FB340034FC34C0
:1005B0000034FD340034FE340034FF340034FF34A2
:1005C0000034003401340134013402340134033482
:1005D0000134033401340434013405340134063465
:1005E0000134073401340834013408340134093447
:1005F00001340A3401340B3401340C3401340C342A
:1006000001340D3401340E3401340F34013410340C
:1006100001341134013411340134123401341334EF
:1006200001341434013415340134163401341634D1
:1006300001341734013418340134193401341A34B4
:1006400001341A3401341B3401341C3401341D3498
:1006500001341E3401341F3401341F34013420347A
:10066000013421340134223401342334013423345D
:100670000134243401342534013426340134273440
:1006800001342834013428340134293401342A3423
:1006900001342B3401342C3401342D3401342D3405
:1006A00001342E3401342F340134303401343134E8
:1006B00001343134013432340134333401343434CC
:1006C00001343534013436340134363401343734AE
:1006D000013438340134393401343A3401343A3491
:1006E00001343B3401343C3401343D3401343E3474
:1006F00001343F3401343F34013440340134413457
:100700000134423401344334013444340134443438
:10071000013445340134463401344734013448341B
:10072000013448340134493401344A3401344B34FF
:1007300001344C3401344D3401344D3401344E34E1
:1007400001344F34013450340134513401345134C4
:1007500001345234013453340134543401345534A7
:10076000013456340134563401345734013458348A
:100770000134593401345A3401345A3401345B346D
:1007800001345C3401345D3401345E3401345F344F
:1007900001345F3401346034013461340134623433
:1007A0000134633401346434013464340134653415
:1007B00001346634013467340134683401346834F8
:1007C0000134693401346A3401346B3401346C34DB
:1007D00001346D3401346D3401346E3401346F34BE
:1007E00001347034013471340134713401347234A1
:1007F0000134733401347434013475340134763483
:100800000134763401347734013478340134793466
:1008100001347A3401347B3401347B3401347C3448
:1008200001347D3401347E3401347F3401347F342B
:10083000013480340134813401348234013483340E
:1008400001348434013484340134853401348634F1
:1008500001348734013488340134883401348934D4
:1008600001348A3401348B3401348C3401348D34B6
:1008700001348D3401348E3401348F34013490349A
:10088000013491340134923401349234013493347C
:10089000013494340134953401349634013496345F
:1008A00001349734013498340134993401349A3442
:1008B00001349B3401349B3401349C3401349D3425
:1008C00001349E3401349F3401349F340134A03408
:1008D0000134A1340134A2340134A3340134A434EA
:1008E0000134A4340134A5340134A6340134A734CE
:1008F0000134A8340134A8340134A9340134AA34B1
:100900000134AB340134AC340134AD340134AD3492
:100910000134AE340134AF340134B0340134B13475
:100920000134B2340134B2340134B3340134B43458
:100930000134B5340134B6340134B6340134B7343B
:100940000134B8340134B9340134BA340134BB341D
:100950000134BB340134BC340134BD340134BE3401
:100960000134BF340134BF340134C0340134C134E4
:100970000134C2340134C3340134C4340134C434C6
:100980000134C5340134C6340134C7340134C834A9
:100990000134C9340134C9340134CA340134CB348C
:1009A0000134CC340134CD340134CD340134CE346F
:1009B0000134CF340134D0340134D1340134D23451
:1009C0000134D2340134D3340134D4340134D53435
:1009D0000134D6340134D6340134D7340134D83418
:1009E0000134D9340134DA340134DB340134DB34FA
:1009F0000134DC340134DD340134DE340134DF34DD
:100A00000134E0340134E0340134E1340134E234BF
:100A10000134E3340134E4340134E4340134E534A2
:100A20000134E6340134E7340134E8340134E93484
:100A30000134E9340134EA340134EB340134EC3468
:100A40000134ED340134ED340134EE340134EF344B
:100A50000134F0340134F1340134F2340134F2342D
:100A60000134F3340134F4340134F5340134F63410
:100A70000134F6340134F7340134F8340134F934F4
:100A80000134FA340134FB340134FB340134FC34D6
:100A90000134FD340134FE340134FF3401340034B8
:100AA0000234003402340134023402340234033498
:100AB000023404340234043402340534023406347B
:100AC000023407340234083402340934023409345D
:100AD00002340A3402340B3402340C3402340D3440
:100AE00002340D3402340E3402340F340234103424
:100AF0000234113402341234023412340234133406
:100B000002341434023415340234163402341734E7
:100B100002341734023418340234193402341A34CB
:100B200002341B3402341B3402341C3402341D34AE
:100B300002341E3402341F34023420340234203490
:100B40000234213402342234023423340234243473
:100B50000234243402342534023426340234273457
:100B600002342834023429340234293402342A3439
:100B700002342B3402342C3402342D3402342E341B
:100B800002342E3402342F340234303402343134FF
:100B900002343234023432340234333402343434E2
:100BA00002343534023436340234373402343734C4
:100BB000023438340234393402343A3402343B34A7
:100BC00002343B3402343C3402343D3402343E348B
:100BD00002343F340234403402344034023441346D
:100BE0000234423402344334023444340234443450
:100BF0000234453402344634023447340234483433
:100C0000023449340234493402344A3402344B3415
:100C100002344C3402344D3402344E3402344E34F7
:100C200002344F34023450340234513402345234DA
:100C300002345234023453340234543402345534BE
:100C400002345634023457340234573402345834A0
:100C50000234593402345A3402345B3402345B3483
:100C600002345C3402345D3402345E3402345F3466
:100C70000234603402346034023461340234623449
:100C8000023463340234643402346534023465342B
:100C9000023466340234673402346834023469340E
:100CA0000234693402346A3402346B3402346C34F2
:100CB00002346D3402346E3402346E3402346F34D4
:100CC00002347034023471340234723402347234B7
:100CD000023473340234743402347534023476349A
:100CE000023477340234773402347834023479347D
:100CF00002347A3402347B3402347C3402347C345F
:100D000002347D3402347E3402347F340234803441
:100D10000234803402348134023482340234833425
:100D20000234843402348534023485340234863407
:100D300002348734023488340234893402348934EA
:100D400002348A3402348B3402348C3402348D34CD
:100D500002348E3402348E3402348F3402349034B0
:100D60000234913402349234023492340234933493
:100D70000234943402349534023496340234973475
:100D800002349734023498340234993402349A3459
:100D900002349B3402349C3402349C3402349D343B
:100DA00002349E3402349F340234A0340234A0341E
:100DB0000234A1340234A2340234A3340234A43401
:100DC0000234A5340234A5340234A6340234A734E4
:100DD0000234A8340234A9340234A9340234AA34C7
:100DE0000234AB340234AC340234AD340234AE34A9
:100DF0000234AE340234AF340234B0340234B1348D
:100E00000234B2340234B3340234B3340234B4346E
:100E10000234B5340234B6340234B7340234B73451
:100E20000234B8340234B9340234BA340234BB3434
:100E30000234BC340234BC340234BD340234BE3417
:100E40000234BF340234C0340234C0340234C134FA
:100E50000234C2340234C3340234C4340234C534DC
:100E60000234C5340234C6340234C7340234C834C0
:100E70000234C9340234CA340234CA340234CB34A2
:100E80000234CC340234CD340234CE340234CE3485
:100E90000234CF340234D0340234D1340234D23468
:100EA0000234D3340234D3340234D4340234D5344B
:100EB0000234D6340234D7340234D7340234D8342E
:100EC0000234D9340234DA340234DB340234DC3410
:100ED0000234DC340234DD340234DE340234DF34F4
:100EE0000234E0340234E1340234E1340234E234D6
:100EF0000234E3340234E4340234E5340234E534B9
:100F00000234E6340234E7340234E8340234E9349B
:100F10000234EA340234EA340234EB340234EC347E
:100F20000234ED340234EE340234EE340234EF3461
:100F30000234F0340234F1340234F2340234F33443
:100F40000234F3340234F4340234F5340234F63427
:100F50000234F7340234F7340234F8340234F9340A
:100F60000234FA340234FB340234FC340234FC34EC
:100F70000234FD340234FE340234FF3402340034CF
:100F800003340134033401340334023403340334AE
:100F90000334043403340534033405340334063491
:100FA00003340734033408340334093403340A3473
:100FB00003340A3403340B3403340C3403340D3457
:100FC00003340E3403340E3403340F34033410343A
:100FD000033411340334123403341334033413341C
:100FE00003341434033415340334163403341734FF
:100FF00003341834033418340334193403341A34E2
:1010000003341B3403341C3403341C3403341D34C4
:1010100003341E3403341F340334203403342134A6
:10102000033421340334223403342334033424348A
:10103000033425340334253403342634033427346D
:10104000033428340334293403342A3403342A344F
:1010500003342B3403342C3403342D3403342E3432
:1010600003342F3403342F34033430340334313415
:1010700003343234033433340334333403343434F8
:1010800003343534033436340334373403343834DA
:10109000033438340334393403343A3403343B34BE
:1010A00003343C3403343C3403343D3403343E34A1
:1010B00003343F3403344034033441340334413483
:1010C0000334423403344334033444340334453466
:1010D000033445340334463403344734033448344A
:1010E00003340800080022008C0101308E00073014
:1010F00021008C0018308E00183023008E00033041
:101100008C0024008C018E012100951725008C0194
:101110008E01373026008C003F308E003F30270094
:101120008C003F308E0014303D00A00002303C00A7
:10113000A4000E303D00A1000E30A20008000030D7
:10114000FB000030FA000030F9000030F800701C9D
:10115000B1287408F8077508F93D7608FA3D770854
:10116000FB3D0130F435F50DF60DF70D890BB22876
:101170000130F336F20CF10CF00C890BB92873082E
:10118000720471047004031DA7287B08F3007A0819
:10119000F2007908F1007808F0000800590A0319F4
:1011A0005A0A0319080063305A029D300319590284
:1011B000031CE0289C302100E2006330E300E728B4
:1011C0005A082100E300200059082100E2006430A1
:1011D0002000D1000030D200210063082000D4009C
:1011E000210062082000D3008931312152082100FA
:1011F000E100200051082100E000080021009112C8
:1012000065302000D1000930D20095317325883136
:10121000083023009F0090309D0024309E00223033
:101220009B009C0171302000D1000830D200953124
:1012300063258831FA302000D1001430D200953176
:101240006B258831E5302000D1001430D200953173
:101250005B252000BC01BF01BE01BD01210091162C
:101260000800D701D8015108520403196029D6019A
:10127000D60AD21B45290130D135D20D890B3C2924
:101280000130D5005508D60739290130D735D80D9A
:10129000890B462952085402031D50295108530254
:1012A000031C57295108D3025208D43B571401306C
:1012B000D236D10C890B58290130D602031D45299D
:1012C0005808D2005708D100080020003F08403ECF
:1012D000860001308700810123001D1D7C2920002C
:1012E0003F08403E860001308700811422006C08D0
:1012F0008A006B080A00893123009D1C8C2920007C
:101300003F08403E860001308700011522006A0830
:101310008A0069080A00893120003F08403E8600A3
:1013200001308700010803199C29220068088A00FF
:1013300067080A00893108009631B52608002000A8
:1013400023082502031DA629220824020318BE290A
:1013500024082202F4002508233BF5000030750222
:10136000093003197402031CBA290830A2020030A4
:10137000A33BBE292508A3002408A20025082302B8
:10138000031DC429240822020318DC292208240290
:10139000F4002308253BF5000030750209300319DD
:1013A0007402031CD8290830A2070030A33DDC29B1
:1013B0002508A3002408A2002308F1002208F00059
:1013C00096315C2608003203031DEB29BC30210056
:1013D000A0000A30EF29BA302100A0000C30A10093
:1013E000200047082100A300200046082100A20099
:1013F000200045082100A500200044082100A40089
:10140000200043082100A700200042082100A60078
:101410006F08A9006E08A80095313325893152085C
:101420002100AB00200051082100AA0095318B2536
:10143000893152082100AD00200051082100AC0084
:1014400000302000D4001F30D500A030DE005E0840
:10145000D6008A31D32208000030FC000030FB00A7
:101460000030FA000030F90073087204710470044F
:101470000319752AFD01FD0AF31B4A2A0130F035D4
:10148000F10DF20DF30D890B3F2A0130F8007808B9
:10149000FD073C2A0130F935FA0DFB0DFC0D890BD7
:1014A0004B2A73087702031D5F2A72087602031D18
:1014B0005F2A71087502031D5F2A70087402031CFD
:1014C0006A2A7008F4027108F53B7208F63B73084B
:1014D000F73B79140130F336F20CF10CF00C890B68
:1014E0006B2A0130FD02031D4A2A7C08F3007B08A9
:1014F000F2007A08F1007908F000080020002B08BB
:10150000031908002B03031D8D2A9431EE240230A9
:101510002000D3005308AB00080002302B06031D47
:10152000A12A95310B258A3152082102031D9A2ADE
:1015300051082002031808000330D3005308AB0001
:10154000080003302B06031DC52A95310B258A316F
:1015500021085202031DAE2A200851020318080078
:101560009431F1240130D0070030D13D0030D23D1C
:101570000030D33D20003003FF3AD3005308AA00C7
:101580000430D3005308AB00080004302B06031DC1
:1015900008002A083007D300210060082000530209
:1015A000031C0800852AE0305405DA001F30550579
:1015B000DB0000308B1B0130DC005B085506031D8F
:1015C000E32A5A085406031D08008B135508D2005D
:1015D0005408D100973174278A312300151315154B
:1015E00095162000DD0154082300910020005508C5
:1015F0002300920020005D355607D700570886006B
:10160000870101082300930020005D355607D700AD
:10161000570886008701403FD800413FD90059084C
:10162000230094001F3020005D06031D192B2300AA
:101630009512553023009600AA30960095140000AC
:10164000000001302000D4070030D53D6400013097
:101650002000D7005708DD0720305D02031CF32A65
:101660002300151120005C0C031C8B1303188B172F
:1016700008002000DD010030D1001F30D20097317A
:1016800055278B315208DC005108DB000130D100B6
:101690001F30D200973155278B315208DF00510897
:1016A000DE0003305F02213003195E020318602B55
:1016B0005F08D5005E08D4009531CA258B31622BB6
:1016C000DD01DD0A0230D1001F30D20097315527ED
:1016D0008B315208DF005108DE0003305F022130F9
:1016E00003195E0203187C2B5F08D5005E08D40046
:1016F0009531BF258B317E2BDD01DD0A0330D10012
:101700001F30D200973155278B315208DF00510826
:10171000DE0003305F02213003195E020318982BAC
:101720005F08D5005E08D4009531B4258B319A2B23
:10173000DD01DD0A0430D1001F30D200973155277A
:101740008B315208DF005108DE0063305F029D30AC
:1017500003195E020318B42B5F08DA005E08D90093
:101760009731B3278B31B62BDD01DD0A0530200020
:10177000D1001F30D200973155278B315208DF003E
:101780005108DE0003305F02213003195E020318A6
:10179000D12B5F08D2005E08D100963172268B31C2
:1017A000D32BDD01DD0A0630D1001F30D200973186
:1017B00055278B315208DF005108DE0063305F028D
:1017C0009D3003195E020318ED2B5F08DA005E08F6
:1017D000D9008831CE208B31EF2BDD01DD0A2000CE
:1017E0005D08031D0B2CBC305B060A3003195C0638
:1017F0000319012CBA305B060C3003195C06031D7B
:101800000800BC305B060A3003195C06031D0800A3
:1018100096319E2608000030D400D5009531CA25A7
:101820008B310030D400D5009531BF258B3100308D
:10183000D400D5009531B4258B310030D900DA00C1
:101840009731B3278B3100302000D100D200963180
:1018500072268B310030D900DA008831CE200800A2
:1018600020004108A9004008A800953115258C31B9
:10187000FF3070052000C80003307105C900C8356D
:10188000C90D7130480784008030493D8500003F14
:10189000C000013FC10032080319080028084002B7
:1018A0002200D80020002908413B2200D900200056
:1018B00041082902031D5E2C400828020318632CEE
:1018C000B301B30A642CB30141084302031D6A2C1F
:1018D000400842020318852C22000C168C12F730A7
:1018E000F0000230F10096315C268C31F730200098
:1018F000A2000230A300F730A4000230A500F730A8
:101900002000A6000230A700552D45084102031D06
:101910008B2C44084002031C912C22000C168C12C4
:101920007F2C47084102031D972C46084002031CE8
:101930002B2D22000C168C162000CC01CC0A330370
:10194000031D042D46084002F0004708413BF1000A
:10195000F201F3010030F7000030F6000230F5002C
:10196000F730F40088319F208C317308D000720862
:10197000CF007108CE007008CD0046084402F00088
:101980004708453BF100F201F3015008F7004F080A
:10199000F6004E08F5004D08F4008A312C228C31F7
:1019A0007308D0007208CF007108CE007008CD0017
:1019B0005008031DE42C4F08031DE42CF8304D02A1
:1019C00002304E3B031CE92CF730A6000230A70082
:1019D000032D2608C8002708C900CA01CB015008FA
:1019E0004B02031DFD2C4F084A02031DFD2C4E081F
:1019F0004902031DFD2C4D0848020318042D4E0812
:101A0000A7004D08A600CC014C03031D272D210083
:101A10006F086702031D0E2D6E086602031C232D3E
:101A2000E601E70108302000A6070030A73D02309C
:101A30002702F83003192602031C272DF730A600D1
:101A40000230A700272D0130E6070030E73D2100D6
:101A5000E401E501552D22000C128C1621006B08C3
:101A60006502031D352D6A086402031C512DE40133
:101A7000E5012000270821006D02031D432D2000F1
:101A8000260821006C0203184D2D6C082000A602C8
:101A900021006D082000A73B552D2000A601A701BD
:101AA000552D0130E4070030E53D20002708F10006
:101AB0002608F00095310625080020002D0803199E
:101AC00008002D03031D6F2D3003FF3ADF005F0870
:101AD000AE00E4010230DF005F08AD000800023014
:101AE0002D06031D802D2E083007DF0003305F0216
:101AF000031C0800AF010330DF005F08AD000800E1
:101B000003302D06031DD32D2F08031908002E08BE
:101B10003007DF0003305F02031C0800E401E40A21
:101B2000220020082000DF005F082300B000B4017D
:101B3000B40A20002F08230034020318B12D340802
:101B4000203E86000130870001082000DF005F088A
:101B50002300B00601302000DF005F082300B40737
:101B6000992D3008031DCA2DAA3022002006031922
:101B7000C12D553020060319C12DA5302006031DA7
:101B8000CA2D0F3020002F060319CE2D02302F064C
:101B90000319CE2D2000AF01E40108000430DF005E
:101BA0005F08AD00080004302D06031DE62FAA30A3
:101BB00022002006031DE12D01302000DF005F0818
:101BC000E307AA3022002006031DF22E0F3020006A
:101BD0002F06031DF22E220021082000DF00E00165
:101BE0005F082300B600200060082300B700220031
:101BF00022082000DF00E001230036082000E20078
:101C0000E1015F0861042300B6002000600862045F
:101C10002300B70037082000D50023003608200035
:101C2000D4009531CA258D31220023082000DF0021
:101C3000E0015F082300B600200060082300B70021
:101C4000220024082000DF00E001230036082000E5
:101C5000E200E1015F0861042300B6002000600893
:101C600062042300B70037082000D500230036089F
:101C70002000D4009531BF258D3122002508200099
:101C8000DF00E0015F082300B600200060082300A9
:101C9000B700220026082000DF00E00123003608FC
:101CA0002000E200E1015F0861042300B60020008B
:101CB000600862042300B70037082000D500230025
:101CC00036082000D4009531B4258D312200270834
:101CD0002000DF00E0015F082300B600200060085C
:101CE0002300B700220028082000DF00E0012300C5
:101CF00036082000E200E1015F0861042300B6001D
:101D00002000600862042300B70037082000DA00D2
:101D1000230036082000D9009731B3278D312200E7
:101D200029082000DF00E0015F082300B600200042
:101D300060082300B70022002A082000DF00E0012D
:101D4000230036082000E200E1015F08610423005F
:101D5000B6002000600862042300B70037082000A6
:101D6000D200230036082000D100963172268D3132
:101D700022002B082000DF00E0015F082300B600EE
:101D8000200060082300B70022002C082000DF009C
:101D9000E001230036082000E200E1015F08610451
:101DA0002300B6002000600862042300B700370853
:101DB0002000DA00230036082000D9008831CE2028
:101DC0008D3122002D08031DE92E9531ED258D3131
:101DD000EC2E96319E268D318931E3212000AD0114
:101DE000AD0A0800553022002006031DBB2F02302B
:101DF00020002F06031DBB2F953110258D31520871
:101E00002300B900200051082300B8003908200041
:101E1000DF005F082200A100230038082000DF0057
:101E20005F082200A20095312D258D315208230034
:101E3000B900200051082300B80039082000DF0055
:101E40005F082200A300230038082000DF005F089D
:101E50002200A400953127258D3152082300B900B6
:101E6000200051082300B80039082000DF005F0877
:101E70002200A500230038082000DF005F082200B0
:101E8000A600963147268D3158082300B90020005E
:101E900057082300B80039082000DF005F0822003F
:101EA000A700230038082000DF005F082200A800F8
:101EB000953133258D3152082300B9002000510897
:101EC0002300B80039082000DF005F082200A900C5
:101ED000230038082000DF005F082200AA009531A7
:101EE0008B258D3152082300B900200051082300B2
:101EF000B80039082000DF005F082200AB00230093
:101F000038082000DF005F082200AC009431F42480
:101F10008D31DF005F082200AD0020082000DF00C7
:101F20005F082300B100B501B50A3508203E8600E0
:101F30000130870001082000DF005F082300B106A0
:101F400001302000DF005F082300B5070E303502A6
:101F5000031C952F31082000DF005F082200AE002F
:101F60000F302000DF005F08AF00AC010530DF005C
:101F70005F08AD000800A53022002006031DEE2EEC
:101F8000023020002F06031DEE2E95310B258D31DA
:101F900052082300B300200051082300B200330888
:101FA0002000DF005F082200A1002300320820008B
:101FB000DF005F082200A200210822062006200080
:101FC000DF005F082200A3000430B12F05302D068A
:101FD000031D080023009E1C080020002F082C026F
:101FE0000318EE2E2C08203E8600013087000108E1
:101FF00023009A0001302000DF005F08AC070800D2
:1029C80008009631B526080021009D140800200053
:1029D8001C15080022008E12080022008E1608001E
:1029E80020003208080002340134013423001D128B
:1029F8001D16080091109531A925080016302100F0
:102A0800970008007108A5007008A4000800410894
:102A1800D2004008D10008004708D2004608D1007B
:102A2800080021001C08F1001B08F0000800013014
:102A3800F00070082000B00708002B08031D0800EC
:102A4800AB01AB0A080020004308D2004208D100BD
:102A5800080020004508D2004408D10008002000E2
:102A68002108D2002008D10008006400800101314B
:102A7800890B3A2D0034FE0012001E00FE0B402D7B
:102A880000340A3400340434003405340034520865
:102A98002200E400200051082200E3000800520848
:102AA8002200E600200051082200E5000800520834
:102AB8002200E800200051082200E7000800520820
:102AC8002200EC00200051082200EB000800520808
:102AD8002200EA00200051082200E90008005208FC
:102AE8002200EE00200051082200ED0008007A3094
:102AF800210099009A0198012200960108005208C5
:102B08002200E000200051082200DF000800210018
:102B180063082000D200210062082000D1000800CC
:102B2800C730280096009501200092100530280033
:102B38009700080022005F08600403190800600875
:102B48008A005F080A0095310800220065086604BB
:102B58000319080066088A0065080A00953108000C
:102B68005508D2005408D1004230D6005608D30088
:102B780097311D2708005508D2005408D100443069
:102B8800D6005608D30097311D2708005508D200F3
:102B98005408D1004630D6005608D30097311D2777
:102BA800080011132200630864040319080064086C
:102BB8008A0063080A009531080011102200620893
:102BC800F1006108F00096310626953195319E2571
:102BD8000800200032080319080021008C160C1682
:102BE8002000A401A501B201080080302C00990042
:102BF800BD309800C030970025001E08CF39103826
:102C08009E0008002000181D102E1810710897004B
:102C1800700896001814080071089700700896004C
:102C28000800D2005208D100D10DD10D21001D0895
:102C3800200051068339510621009D001D1408000B
:102C480001309D00E0309E0050309F009B019C01A8
:102C58001117E4302000D1001430D20095314B25F3
:102C680008003E3020009B009A0191102100911429
:102C780002302000D1000030D200953153250730B2
:102C880020009C00080021006E08013E2000D100B1
:102C9800003021006F3D2000D2006430D3000030A6
:102CA800D400973102275208D8005108D7000800ED
:102CB8007108F3007008F200F336F20CF336F20CE8
:102CC80072082C00980070080339F2000530F235BC
:102CD800FF3E031D6B2E723597000800510A031939
:102CE800520A031908000330520221300319510215
:102CF800031C832E2030A0000330A10008005208D6
:102D0800A1005108A000080020002D08031D08009C
:102D18001B30D1001530D200953183259631933080
:102D28002000D1001730D200953173252000AD0165
:102D3800AD0A0800200032030319080021008C1294
:102D48000C122000A601A701A201A301A401A5015C
:102D58006503031DB12E9731D9272000B201B20AAD
:102D6800080023001908F00020003F08483E8600AC
:102D780001308700700881000130F0007008BF073B
:102D880008303F020318BF010130F0007008BD078A
:102D9800080099013C309700B030960011101708D0
:102DA8002200E200200016082200E1002100111490
:102DB80072302000D1000830D2009531832531309F
:102DC80020009800080088317320963195317B25C2
:102DD80096319531022596319631242696319531D2
:102DE800942596319531F9259631963135269631C7
:102DF8009631CD2696318831FE200800D501D601BE
:102E0800511C0A2F5308D5075408D63D0130D33535
:102E1800D40D890B0B2F0130D236D10C890B102F12
:102E280051085204031D042F5608D2005508D1003A
:102E38000800510A0319520A031908000330520204
:102E4800203003195102031C312F530886008701D3
:102E58002030C03F0330C13F080053088600870177
:102E68005108C03F5208C13F08009631E726973104
:102E78008B31392397318B170B179731D927973116
:102E88008031032097319631882697319531212555
:102E980097318D315D2597318A317E2297316400D3
:102EA8004D2F00308B1B0130D3008B1351082300AA
:102EB80091002000520823009200151315140000F9
:102EC80000002000530C031C8B1303188B172300DE
:102ED80014082000D200230013082000D1000800A5
:102EE80000308B1B0130D3008B1351082300910055
:102EF8002000520823009200151315161515553099
:102F08009600AA30960095140000000023001511C1
:102F18002000530C031C8B1303188B170800230085
:102F28001908F0007008F10020006408031D08006B
:102F38003003FF3AF0007008AE0020302F0203186B
:102F480008007108F0002F08203E86000130870035
:102F5800700881000130F0007008AF070800590AB6
:102F680003195A0A0319080063305A029D300319DD
:102F78005902031CC42FFF302100EE000030EF007F
:102F880064302000D1000030D2005A08D40059081B
:102F9800D300893131215108FF3E2100EE00FF3076
:102FA8002000523D2100EF000800200065080319A9
:102FB8000800E501073096311526973106302000C4
:102FC800D3003030890BE62FD30BE62F0000943165
:102FD800E82497319431EB2497319F30D1000930A0
:102FE800D20095315325973130302000D1000C3074
:102FF800D20095314B250800203420344E344E340D
:103008004E344E343A3420346E3475346D34623470
:10301800653472342034663472346F346D3420343D
:103028003034203474346F342034393439343934FA
:1030380039340D340A340D340A34003445345234EA
:1030480052344F3452343A34203469346E3476343E
:1030580061346C34693464342034733479346E34B4
:103068007434613478342E340D340A340034203406
:10307800203449343A3420347034723469346E342C
:1030880074342034733479347334743465346D345F
:10309800203449344E3446344F340D340A34003425
:1030A800203420343F343A34203470347234693454
:1030B8006E3474342034743468346934733420348E
:1030C800733463347234653465346E340D340A34C1
:1030D80000342034203448343A342034733465348E
:1030E80074342034483449344734483420347634EE
:1030F8006F346C3474346134673465340D340A3495
:1031080000340D340A340D340A342D342D342D3462
:103118002D342D342D342D342D342D342D342D349F
:103128002D342D342D342D342D340D340A340034FF
:10313800203420344C343A342034733465347434B5
:1031480020344C344F345734203476346F346C3454
:1031580074346134673465340D340A3400344534CA
:10316800723472346F3472343A34203469346E34C1
:10317800763461346C3469346434203461347234A4
:1031880067342E340D340A340034453472347234C2
:103198006F3472343A34203469346E34763461349E
:1031A8006C3469346434203463346F346D342E34B1
:1031B8000D340A34003441347634613469346C3463
:1031C800613462346C346534203443346F346D3484
:1031D8006D3461346E34643473343A340D340A34E3
:1031E80000342034203454343A3420347334653471
:1031F80074342034643465346C3461347934203464
:10320800543449344D3445340D340A3400342034B0
:103218002034483465346C34703420345334633487
:103228007234653465346E340D340A340D340A341E
:103238000034533479346E347434613478343A3425
:10324800203443344E344E344E344E340D340A3424
:1032580000342034203443343A34203463346F3417
:103268006D346D3461346E3464340D340A34003492
:103278002034203448343A34203400342034203484
:103288004C343A34203400342034203454343A3422
:10329800203400344F344B340D340A3400343E3477
:1032A8003E342034203400340834003408340034E8
:020000040001F9
:04000E00FCFFFFFEF6
:00000001FF
