:020000040000FA
:1000000080313428080008007E14803164000B1F02
:1000100032282100111F13282000111F13289731A7
:10002000B927803132282100911E20282000911EFE
:10003000202822006E088A006D080A0080313228CC
:100040002100911C2A282000911C2A289631E7269D
:10005000803132282100111C32282000111C322846
:100060009731C5277E10090080313628EF30840093
:10007000963085006130860000308700043097316B
:100080001F2780316530840097308500E830860076
:1000900000308700083097311F27803120308400DE
:1000A000003085002230973119278031E0308400FC
:1000B00000308500083097311927803120308400C6
:1000C000013085003F30973119278031A0308400FE
:1000D000013085001030973119277E1020008C31B7
:1000E000172C00340034013400340234003402345C
:1000F000003403340034043400340534003406344E
:100100000034073400340734003408340034093430
:1001100000340A3400340B3400340B3400340C3413
:1001200000340D3400340E3400340F3400341034F5
:1001300000341034003411340034123400341334D9
:1001400000341434003415340034153400341634BB
:10015000003417340034183400341934003419349E
:1001600000341A3400341B3400341C3400341D3481
:1001700000341E3400341E3400341F340034203464
:100180000034213400342234003422340034233447
:100190000034243400342534003426340034273429
:1001A00000342734003428340034293400342A340D
:1001B00000342B3400342C3400342C3400342D34EF
:1001C00000342E3400342F340034303400343034D2
:1001D00000343134003432340034333400343434B5
:1001E0000034353400343534003436340034373498
:1001F00000343834003439340034393400343A347B
:1002000000343B3400343C3400343D3400343E345C
:1002100000343E3400343F34003440340034413440
:100220000034423400344334003443340034443422
:100230000034453400344634003447340034473405
:10024000003448340034493400344A3400344B34E8
:1002500000344C3400344C3400344D3400344E34CB
:1002600000344F34003450340034503400345134AE
:100270000034523400345334003454340034553490
:100280000034553400345634003457340034583474
:10029000003459340034593400345A3400345B3457
:1002A00000345C3400345D3400345E3400345E3439
:1002B00000345F340034603400346134003462341C
:1002C00000346334003463340034643400346534FF
:1002D00000346634003467340034673400346834E2
:1002E0000034693400346A3400346B3400346C34C4
:1002F00000346C3400346D3400346E3400346F34A8
:10030000003470340034703400347134003472348A
:10031000003473340034743400347534003475346C
:10032000003476340034773400347834003479344F
:1003300000347A3400347A3400347B3400347C3432
:1003400000347D3400347E3400347E3400347F3415
:1003500000348034003481340034823400348334F7
:1003600000348334003484340034853400348634DB
:1003700000348734003487340034883400348934BE
:1003800000348A3400348B3400348C3400348C34A0
:1003900000348D3400348E3400348F340034903483
:1003A0000034913400349134003492340034933466
:1003B0000034943400349534003495340034963449
:1003C00000349734003498340034993400349A342B
:1003D00000349A3400349B3400349C3400349D340F
:1003E00000349E3400349E3400349F340034A034F2
:1003F0000034A1340034A2340034A3340034A334D4
:100400000034A4340034A5340034A6340034A734B6
:100410000034A7340034A8340034A9340034AA349A
:100420000034AB340034AC340034AC340034AD347C
:100430000034AE340034AF340034B0340034B1345E
:100440000034B1340034B2340034B3340034B43442
:100450000034B5340034B5340034B6340034B73425
:100460000034B8340034B9340034BA340034BA3407
:100470000034BB340034BC340034BD340034BE34EA
:100480000034BE340034BF340034C0340034C134CE
:100490000034C2340034C3340034C3340034C434B0
:1004A0000034C5340034C6340034C7340034C83492
:1004B0000034C8340034C9340034CA340034CB3476
:1004C0000034CC340034CC340034CD340034CE3459
:1004D0000034CF340034D0340034D1340034D1343B
:1004E0000034D2340034D3340034D4340034D5341E
:1004F0000034D5340034D6340034D7340034D83402
:100500000034D9340034DA340034DA340034DB34E3
:100510000034DC340034DD340034DE340034DF34C5
:100520000034DF340034E0340034E1340034E234A9
:100530000034E3340034E3340034E4340034E5348C
:100540000034E6340034E7340034E8340034E8346E
:100550000034E9340034EA340034EB340034EC3451
:100560000034EC340034ED340034EE340034EF3435
:100570000034F0340034F1340034F1340034F23417
:100580000034F3340034F4340034F5340034F634F9
:100590000034F6340034F7340034F8340034F934DD
:1005A0000034FA340034FA340034FB340034FC34C0
:1005B0000034FD340034FE340034FF340034FF34A2
:1005C0000034003401340134013402340134033482
:1005D0000134033401340434013405340134063465
:1005E0000134073401340834013408340134093447
:1005F00001340A3401340B3401340C3401340C342A
:1006000001340D3401340E3401340F34013410340C
:1006100001341134013411340134123401341334EF
:1006200001341434013415340134163401341634D1
:1006300001341734013418340134193401341A34B4
:1006400001341A3401341B3401341C3401341D3498
:1006500001341E3401341F3401341F34013420347A
:10066000013421340134223401342334013423345D
:100670000134243401342534013426340134273440
:1006800001342834013428340134293401342A3423
:1006900001342B3401342C3401342D3401342D3405
:1006A00001342E3401342F340134303401343134E8
:1006B00001343134013432340134333401343434CC
:1006C00001343534013436340134363401343734AE
:1006D000013438340134393401343A3401343A3491
:1006E00001343B3401343C3401343D3401343E3474
:1006F00001343F3401343F34013440340134413457
:100700000134423401344334013444340134443438
:10071000013445340134463401344734013448341B
:10072000013448340134493401344A3401344B34FF
:1007300001344C3401344D3401344D3401344E34E1
:1007400001344F34013450340134513401345134C4
:1007500001345234013453340134543401345534A7
:10076000013456340134563401345734013458348A
:100770000134593401345A3401345A3401345B346D
:1007800001345C3401345D3401345E3401345F344F
:1007900001345F3401346034013461340134623433
:1007A0000134633401346434013464340134653415
:1007B00001346634013467340134683401346834F8
:1007C0000134693401346A3401346B3401346C34DB
:1007D00001346D3401346D3401346E3401346F34BE
:1007E00001347034013471340134713401347234A1
:1007F0000134733401347434013475340134763483
:100800000134763401347734013478340134793466
:1008100001347A3401347B3401347B3401347C3448
:1008200001347D3401347E3401347F3401347F342B
:10083000013480340134813401348234013483340E
:1008400001348434013484340134853401348634F1
:1008500001348734013488340134883401348934D4
:1008600001348A3401348B3401348C3401348D34B6
:1008700001348D3401348E3401348F34013490349A
:10088000013491340134923401349234013493347C
:10089000013494340134953401349634013496345F
:1008A00001349734013498340134993401349A3442
:1008B00001349B3401349B3401349C3401349D3425
:1008C00001349E3401349F3401349F340134A03408
:1008D0000134A1340134A2340134A3340134A434EA
:1008E0000134A4340134A5340134A6340134A734CE
:1008F0000134A8340134A8340134A9340134AA34B1
:100900000134AB340134AC340134AD340134AD3492
:100910000134AE340134AF340134B0340134B13475
:100920000134B2340134B2340134B3340134B43458
:100930000134B5340134B6340134B6340134B7343B
:100940000134B8340134B9340134BA340134BB341D
:100950000134BB340134BC340134BD340134BE3401
:100960000134BF340134BF340134C0340134C134E4
:100970000134C2340134C3340134C4340134C434C6
:100980000134C5340134C6340134C7340134C834A9
:100990000134C9340134C9340134CA340134CB348C
:1009A0000134CC340134CD340134CD340134CE346F
:1009B0000134CF340134D0340134D1340134D23451
:1009C0000134D2340134D3340134D4340134D53435
:1009D0000134D6340134D6340134D7340134D83418
:1009E0000134D9340134DA340134DB340134DB34FA
:1009F0000134DC340134DD340134DE340134DF34DD
:100A00000134E0340134E0340134E1340134E234BF
:100A10000134E3340134E4340134E4340134E534A2
:100A20000134E6340134E7340134E8340134E93484
:100A30000134E9340134EA340134EB340134EC3468
:100A40000134ED340134ED340134EE340134EF344B
:100A50000134F0340134F1340134F2340134F2342D
:100A60000134F3340134F4340134F5340134F63410
:100A70000134F6340134F7340134F8340134F934F4
:100A80000134FA340134FB340134FB340134FC34D6
:100A90000134FD340134FE340134FF3401340034B8
:100AA0000234003402340134023402340234033498
:100AB000023404340234043402340534023406347B
:100AC000023407340234083402340934023409345D
:100AD00002340A3402340B3402340C3402340D3440
:100AE00002340D3402340E3402340F340234103424
:100AF0000234113402341234023412340234133406
:100B000002341434023415340234163402341734E7
:100B100002341734023418340234193402341A34CB
:100B200002341B3402341B3402341C3402341D34AE
:100B300002341E3402341F34023420340234203490
:100B40000234213402342234023423340234243473
:100B50000234243402342534023426340234273457
:100B600002342834023429340234293402342A3439
:100B700002342B3402342C3402342D3402342E341B
:100B800002342E3402342F340234303402343134FF
:100B900002343234023432340234333402343434E2
:100BA00002343534023436340234373402343734C4
:100BB000023438340234393402343A3402343B34A7
:100BC00002343B3402343C3402343D3402343E348B
:100BD00002343F340234403402344034023441346D
:100BE0000234423402344334023444340234443450
:100BF0000234453402344634023447340234483433
:100C0000023449340234493402344A3402344B3415
:100C100002344C3402344D3402344E3402344E34F7
:100C200002344F34023450340234513402345234DA
:100C300002345234023453340234543402345534BE
:100C400002345634023457340234573402345834A0
:100C50000234593402345A3402345B3402345B3483
:100C600002345C3402345D3402345E3402345F3466
:100C70000234603402346034023461340234623449
:100C8000023463340234643402346534023465342B
:100C9000023466340234673402346834023469340E
:100CA0000234693402346A3402346B3402346C34F2
:100CB00002346D3402346E3402346E3402346F34D4
:100CC00002347034023471340234723402347234B7
:100CD000023473340234743402347534023476349A
:100CE000023477340234773402347834023479347D
:100CF00002347A3402347B3402347C3402347C345F
:100D000002347D3402347E3402347F340234803441
:100D10000234803402348134023482340234833425
:100D20000234843402348534023485340234863407
:100D300002348734023488340234893402348934EA
:100D400002348A3402348B3402348C3402348D34CD
:100D500002348E3402348E3402348F3402349034B0
:100D60000234913402349234023492340234933493
:100D70000234943402349534023496340234973475
:100D800002349734023498340234993402349A3459
:100D900002349B3402349C3402349C3402349D343B
:100DA00002349E3402349F340234A0340234A0341E
:100DB0000234A1340234A2340234A3340234A43401
:100DC0000234A5340234A5340234A6340234A734E4
:100DD0000234A8340234A9340234A9340234AA34C7
:100DE0000234AB340234AC340234AD340234AE34A9
:100DF0000234AE340234AF340234B0340234B1348D
:100E00000234B2340234B3340234B3340234B4346E
:100E10000234B5340234B6340234B7340234B73451
:100E20000234B8340234B9340234BA340234BB3434
:100E30000234BC340234BC340234BD340234BE3417
:100E40000234BF340234C0340234C0340234C134FA
:100E50000234C2340234C3340234C4340234C534DC
:100E60000234C5340234C6340234C7340234C834C0
:100E70000234C9340234CA340234CA340234CB34A2
:100E80000234CC340234CD340234CE340234CE3485
:100E90000234CF340234D0340234D1340234D23468
:100EA0000234D3340234D3340234D4340234D5344B
:100EB0000234D6340234D7340234D7340234D8342E
:100EC0000234D9340234DA340234DB340234DC3410
:100ED0000234DC340234DD340234DE340234DF34F4
:100EE0000234E0340234E1340234E1340234E234D6
:100EF0000234E3340234E4340234E5340234E534B9
:100F00000234E6340234E7340234E8340234E9349B
:100F10000234EA340234EA340234EB340234EC347E
:100F20000234ED340234EE340234EE340234EF3461
:100F30000234F0340234F1340234F2340234F33443
:100F40000234F3340234F4340234F5340234F63427
:100F50000234F7340234F7340234F8340234F9340A
:100F60000234FA340234FB340234FC340234FC34EC
:100F70000234FD340234FE340234FF3402340034CF
:100F800003340134033401340334023403340334AE
:100F90000334043403340534033405340334063491
:100FA00003340734033408340334093403340A3473
:100FB00003340A3403340B3403340C3403340D3457
:100FC00003340E3403340E3403340F34033410343A
:100FD000033411340334123403341334033413341C
:100FE00003341434033415340334163403341734FF
:100FF00003341834033418340334193403341A34E2
:1010000003341B3403341C3403341C3403341D34C4
:1010100003341E3403341F340334203403342134A6
:10102000033421340334223403342334033424348A
:10103000033425340334253403342634033427346D
:10104000033428340334293403342A3403342A344F
:1010500003342B3403342C3403342D3403342E3432
:1010600003342F3403342F34033430340334313415
:1010700003343234033433340334333403343434F8
:1010800003343534033436340334373403343834DA
:10109000033438340334393403343A3403343B34BE
:1010A00003343C3403343C3403343D3403343E34A1
:1010B00003343F3403344034033441340334413483
:1010C0000334423403344334033444340334453466
:1010D000033445340334463403344734033448344A
:1010E00003340800080020002C0803190800210020
:1010F0008C160C162000A201A301AC010800F930E7
:1011000020009B009A0191102100911403302000CF
:10111000CB000030CC0097315D27063020009C00CA
:10112000080021006D082000CC0021006C08200080
:10113000CB006430CD000030CE0089314E214C0808
:10114000D2004B08D10008007108F3007008F200CB
:10115000F336F20CF336F20C72082C00980070088B
:101160000339F2000530F235FF3E031DB328723516
:101170009700080020002708031D08000730CB0057
:101180001730CC00973155278831C3302000CB0071
:101190000930CC00973145272000A701A70A080095
:1011A00020002C030319080021008C120C122000CF
:1011B000A401A501A001A101A201A3016403031DD3
:1011C000E3288931E3212000AC01AC0A08002300A8
:1011D0001908F00020003908483E860001308700D9
:1011E000700881000130F0007008B907083039023A
:1011F0000318B9010130F0007008B7070800990121
:101200003C309700B0309600111017082200E20021
:10121000200016082200E1002100111402302000F5
:10122000CB000030CC00973155273130200098009A
:1012300008004B0A03194C0A0319080000304C023D
:10124000653003194B02031C2B2964302100EC008C
:101250000030ED0008004C082100ED0020004B0894
:101260002100EC0008008A310922893197314D278D
:1012700089319631EB2689319731EF2789319731C2
:101280006D27893197318D27893188317F208931C8
:101290008831FF2089318A3164220800CF01D001D2
:1012A0004B1C56294D08CF074E08D03D0130CD3597
:1012B000CE0D890B57290130CC36CB0C890B5C291C
:1012C0004B084C04031D50295008CC004F08CB009C
:1012D00008004B0A03194C0A0319080003304C029A
:1012E000203003194B02031C7D294D08860087011D
:1012F0002030C03F0330C13F08004D088600870101
:101300004B08C03F4C08C13F080000308B1B013028
:10131000CD008B134B082300910020004C082300C4
:101320009200151315140000000020004D0C031C42
:101330008B1303188B17230014082000CC00230004
:1013400013082000CB00080000308B1B0130CD00BB
:101350008B134B082300910020004C0823009200BF
:1013600015131516151555309600AA3096009514CC
:10137000000000002300151120004D0C031C8B13EE
:1013800003188B17080023001908F0007008F100FB
:1013900020006308031D08002A03FF3AF0007008CC
:1013A000A80020302902031808007108F00029085D
:1013B000203E860001308700700881000130F00077
:1013C0007008A9070800640803190800E401073041
:1013D0009731E027893106302000CD003030890B6D
:1013E000EF29CD0BEF2900009631DD2689319631AA
:1013F000E02689315830CB000B30CC0097315D2787
:101400008931B0302000CB000C30CC00973125273B
:10141000080022008C0101308E00073021008C0072
:1014200018308E00183023008E0003308C0024000A
:101430008C018E012100951725008C018E0137301B
:1014400026008C003F308E003F3027008C003F305C
:101450008E0014303D00A00002303C00A4000E308D
:101460003D00A1000E30A20008000030FB0000305B
:10147000FA000030F9000030F800701C472A7408A8
:10148000F8077508F93D7608FA3D7708FB3D01300D
:10149000F435F50DF60DF70D890B482A0130F336BA
:1014A000F20CF10CF00C890B4F2A730872047104D2
:1014B0007004031D3D2A7B08F3007A08F2007908C6
:1014C000F1007808F000080021009112CC302000D3
:1014D000CB000A30CC00973145278A3108302300F1
:1014E0009F0090309D0024309E0022309B009C0184
:1014F00072302000CB000830CC00973135278A317C
:10150000E3302000CB001630CC0097313D278A31E4
:10151000D7302000CB001630CC0097312D2720008B
:10152000B601B901B801B7012100911608002C03DA
:10153000031D9F2ABC302100A0000A30A32ABA3024
:101540002100A0000C30A100200041082100A300D0
:10155000200040082100A20020003F082100A50033
:1015600020003E082100A40020003D082100A70023
:1015700020003C082100A6006D08A9006C08A80006
:1015800000302000CE001F30CF00A030D800580817
:10159000D0008B31B123080020003908403E86007E
:1015A00001308700810123001D1DE32A2000390836
:1015B000403E860001308700811422006C088A00BA
:1015C0006B080A008A3123009D1CF32A2000390889
:1015D000403E860001308700011522006A088A001B
:1015E00069080A008A3120003908403E860001302F
:1015F000870001080319032B220068088A00670886
:101600000A008B3108008831E72008000030FC0018
:101610000030FB000030FA000030F900730872045B
:101620007104700403194F2BFD01FD0AF31B242BD9
:101630000130F035F10DF20DF30D890B192B01304E
:10164000F8007808FD07162B0130F935FA0DFB0D6F
:10165000FC0D890B252B73087702031D392B7208AB
:101660007602031D392B71087502031D392B700892
:101670007402031C442B7008F4027108F53B7208D5
:10168000F63B7308F73B79140130F336F20CF10C9A
:10169000F00C890B452B0130FD02031D242B7C0827
:1016A000F3007B08F2007A08F1007908F0000800E6
:1016B000013020002102903003192002031C6B2B03
:1016C000031022008E1E0314031C692B22008E16A9
:1016D0006B2B22008E12200021082302031D722B87
:1016E0002008220203188B2B22082002F400230872
:1016F000213BF50075086202031D802B740861020E
:101700000318872B6108A0026208A13B8B2B2308DA
:10171000A1002208A00023082102031D912B22080A
:1017200020020318AA2B20082202F4002108233BE0
:10173000F50075086202031D9F2B740861020318EF
:10174000A62B6108A0076208A13DAA2B2308A100CF
:101750002208A0002108F1002008F0008831A42010
:101760000800E0304E05D4001F304F05D500003092
:101770008B1B0130D60055084F06031DC12B5408A2
:101780004E06031D08008B134F08CC004E08CB00FB
:101790008931A4218B3123001513151595162000CE
:1017A000D7014E082300910020004F08230092002B
:1017B000200057355007D1005108860087010108E5
:1017C00023009300200057355007D10051088600B0
:1017D0008701403FD200413FD300530823009400CB
:1017E0001F3020005706031DF72B2300951255309C
:1017F00023009600AA3096009514000000000130E6
:101800002000CE070030CF3D640001302000D10021
:101810005108D70720305702031CD12B2300151184
:101820002000560C031C8B1303188B1708008931FA
:1018300033218C3100302000CB001F30CC008931A7
:1018400085218C314C08DE004B08DD00BC305D0684
:101850000A3003195E060319342CBA305D060C30C9
:1018600003195E06031DA32C0130CB001F30CC00F2
:10187000893185218C314C08E0004B08DF000330B2
:101880006002213003195F0203184D2C6008CF005D
:101890005F08CE009731AE278C310230CB001F306D
:1018A000CC00893185218C314C08E0004B08DF00E9
:1018B00003306002213003195F020318662C6008B0
:1018C000CF005F08CE009731A3278C310330CB00C7
:1018D0001F30CC00893185218C314C08E0004B0849
:1018E000DF0003306002213003195F0203187F2CF0
:1018F0006008CF005F08CE00973198278C31043004
:10190000CB001F30CC00893185218C314C08E000A0
:101910004B08DF0027306002113003195F02031803
:10192000982C6008CC005F08CB00893119218C31DC
:10193000BC3020005D060A3003195E06031DA32C8F
:101940008831D0208C318B170B178931E3218C31F2
:101950008831BA208C318D31E7258C316400AB2C75
:1019600020003B082100E50020003A082100E400A7
:101970009631F3268C31FF3070052000C200033011
:101980007105C300C235C30D713042078400803039
:10199000433D8500003FBA00013FBB002C080319FE
:1019A00008002100640820003A022200D200210031
:1019B000650820003B3B2200D30020003B082100AB
:1019C0006502031DE72C20003A0821006402031879
:1019D000ED2C2000AD01AD0AEF2C2000AD013B083D
:1019E0003D02031DF52C3A083C0203180D2D8F30E3
:1019F000F0000130F1008831A4208C318F302000BC
:101A0000A0000130A1008F30A2000130A3008F3070
:101A10002000A4000130A500DF2D3F083B02031D7C
:101A2000132D3E083A02031C192D22000C168C12AD
:101A3000072D41083B02031D1F2D40083A02031CDD
:101A4000B52D22000C168C162000C601C60A2D03E7
:101A5000031D8C2D40083A02F00041083B3BF10089
:101A6000F201F3010030F7000030F6000130F5001C
:101A70008F30F4008A3135228C317308CA00720825
:101A8000C9007108C8007008C70040083E02F00095
:101A900041083F3BF100F201F3014A08F700490811
:101AA000F6004808F5004708F4008B3106238C3116
:101AB0007308CA007208C9007108C8007008C7001E
:101AC0004A08031D6C2D4908031D6C2D90304702F8
:101AD0000130483B031C712D8F30A4000130A5005C
:101AE0008B2D2408C2002508C300C401C5014A0883
:101AF0004502031D852D49084402031D852D480814
:101B00004302031D852D4708420203188C2D480807
:101B1000A5004708A400C6014603031DB12D2100FE
:101B20006D086302031D962D6C086202031CAD2D27
:101B3000E201E3016E082000A40721006F082000E5
:101B4000A53D01302502903003192402031CB12D5C
:101B50008F30A4000130A500B12D0130E207003024
:101B6000E33D2100E001E101DF2D22000C128C1683
:101B7000210069086102031DBF2D68086002031C73
:101B8000DB2DE001E1012000250821006B02031D8F
:101B9000CD2D2000240821006A020318D72D6A08E1
:101BA0002000A40221006B082000A53BDF2D2000AF
:101BB000A401A501DF2D0130E0070030E13D200048
:101BC0002508F1002408F0009631F82608002000CE
:101BD0002708031908002703031DF92D2A03FF3ADC
:101BE000D9005908A800E3010230D9005908A7001C
:101BF000080002302706031D0A2E28082A07D900EC
:101C000003305902031C0800A9010330D900590808
:101C1000A700080003302706031D5D2E29080319BD
:101C2000080028082A07D90003305902031C0800BD
:101C3000E301E30A220020082000D900590823000C
:101C4000B000B401B40A20002908230034020318AC
:101C50003B2E3408203E860001308700010820001A
:101C6000D90059082300B00601302000D9005908D6
:101C70002300B407232E3008031D542EAA3022005F
:101C8000200603194B2E5530200603194B2EA53084
:101C90002006031D542E0B30200029060319582E50
:101CA000023029060319582E2000A901E30108007B
:101CB0000430D9005908A700080004302706031D86
:101CC000E62FAA3022002006031D202F0B30200013
:101CD0002906031D202F220021082000D900DA0147
:101CE00059082300B60020005A082300B70022003C
:101CF00022082000D900DA01230036082000DC0089
:101D0000DB0159085B042300B60020005A085C047C
:101D10002300B70037082000CF002300360820003A
:101D2000CE009731AE278D31220023082000D90044
:101D3000DA0159082300B60020005A082300B70032
:101D4000220024082000D900DA01230036082000F0
:101D5000DC00DB0159085B042300B60020005A08B0
:101D60005C042300B70037082000CF0023003608AA
:101D70002000CE009731A3278D31220025082000B6
:101D8000D900DA0159082300B60020005A082300C0
:101D9000B700220026082000D900DA012300360807
:101DA0002000DC00DB0159085B042300B6002000A2
:101DB0005A085C042300B70037082000CF00230036
:101DC00036082000CE00973198278D312200270851
:101DD0002000D900DA0159082300B60020005A0873
:101DE0002300B700220028082000D900DA012300D0
:101DF00036082000DC00DB0159085B042300B60034
:101E000020005A085C042300B70037082000CC00EB
:101E1000230036082000CB00893119218D312200A2
:101E20002908031D172F883173208D311A2F88310F
:101E3000D0208D318A3197222000A701A70A0800FF
:101E4000553022002006031DBB2F0230200029063A
:101E5000031DBB2F973102278D314C082300B90099
:101E600020004B082300B80039082000D900590889
:101E70002200A100230038082000D90059082200C0
:101E8000A200973113278D314C082300B9002000A0
:101E90004B082300B80039082000D9005908220057
:101EA000A300230038082000D90059082200A4000C
:101EB00097310D278D314C082300B90020004B08C5
:101EC0002300B80039082000D90059082200A500D5
:101ED000230038082000D90059082200A6008831C4
:101EE00091208D3152082300B900200051082300B1
:101EF000B80039082000D90059082200A7002300A3
:101F000038082000D90059082200A8009631DA26A6
:101F10008D31D90059082200A90020082000D900DD
:101F200059082300B100B501B50A3508203E8600E6
:101F30000130870001082000D90059082300B106AC
:101F400001302000D90059082300B5070A303502B6
:101F5000031C952F31082000D90059082200AA003F
:101F60000B302000D9005908A900A6010530D9007E
:101F70005908A7000800A53022002006031D1C2FC9
:101F8000023020002906031D1C2F9631FD268D31BD
:101F90004C082300B30020004B082300B200330894
:101FA0002000D90059082200A10023003208200097
:101FB000D90059082200A20021082206200620008C
:101FC000D90059082200A3000430B12F053027069C
:101FD000031D080023009E1C08002000290826027B
:101FE00003181C2F2608203E8600013087000108B8
:101FF00023009A0001302000D9005908A6070800E4
:10200000203420344E344E344E344E343A3420345E
:102010006E3475346D346234653472342034663411
:1020200072346F346D3420343034203474346F346F
:10203000203439343934393439340D340A340D34D8
:102040000A3400344534523452344F3452343A3422
:10205000203469346E34763461346C3469346434D9
:102060002034733479346E347434613478342E34DB
:102070000D340A3400342034203449343A342034C6
:102080007034723469346E34743420347334793477
:102090007334743465346D34203449344E344634EA
:1020A0004F340D340A340034203420343F343A3471
:1020B00020347034723469346E347434203474349F
:1020C000683469347334203473346334723465345F
:1020D00065346E340D340A340034203420344834EE
:1020E0003A342034733465347434203448344934F9
:1020F00047344834203476346F346C34743461346B
:10210000673465340D340A3400340D340A340D3428
:102110000A342D342D342D342D342D342D342D34DA
:102120002D342D342D342D342D342D342D342D34A7
:102130002D340D340A340034203420344C343A34F5
:10214000203473346534743420344C344F34573471
:10215000203476346F346C347434613467346534CD
:102160000D340A3400344534723472346F347234AE
:102170003A34203469346E34763461346C346934E2
:10218000643420346134723467342E340D340A34AC
:1021900000344534723472346F3472343A3420343B
:1021A00069346E34763461346C3469346434203488
:1021B00063346F346D342E340D340A3400344134BA
:1021C0007634613469346C34613462346C3465342F
:1021D000203443346F346D346D3461346E34643480
:1021E00073343A340D340A340034203420345434F7
:1021F0003A342034733465347434203464346534B0
:102200006C34613479342034543449344D34453499
:102210000D340A34003420342034483465346C34AE
:1022200070342034533463347234653465346E341E
:0A2230000D340A340D340A34003472
:102DAE008831E720080020002C08080021009D141F
:102DBE00080020001C15080023001D121D16080017
:102DCE0091109731822708001630210097000800D5
:102DDE0028340034013401341C08F1001B08F000C3
:102DEE0008007108A3007008A20008003B08CC0080
:102DFE003A08CB0008004108CC004008CB00080080
:102E0E000130F00070082000AA07080020003D08DD
:102E1E00CC003C08CB00080020003F08CC003E0848
:102E2E00CB000800640080010131890B1A2F003499
:102E3E00FE0012001E00FE0B202F00344C08220054
:102E4E00E40020004B082200E30008004C0822009A
:102E5E00E80020004B082200E70008004C08220082
:102E6E00EC0020004B082200EB0008004C0822006A
:102E7E00EA0020004B082200E90008004C0822005E
:102E8E00EE0020004B082200ED0008007A302100F1
:102E9E0099009A0198012200960108004C08220020
:102EAE00E00020004B082200DF0008004C08220042
:102EBE00E60020004B082200E500080064340034D0
:102ECE0005340034053400340434003463302800F3
:102EDE0096009501200092100530280097000800FA
:102EEE0022005F0860040319080060088A005F086A
:102EFE000A009731080022006508660403190800CD
:102F0E0066088A0065080A009731080080302C0098
:102F1E0099009801970125001E08CF3910389E00A0
:102F2E0008004F08CC004E08CB003C30D0005008B3
:102F3E00CD008931692108004F08CC004E08CB0026
:102F4E003E30D0005008CD008931692108004F086D
:102F5E00CC004E08CB004030D0005008CD00893157
:102F6E006921080011132200630864040319080084
:102F7E0064088A0063080A009731080011102200C5
:102F8E006208F1006108F0009731D127973197312F
:102F9E00772708002000181DDB2F181071089700E6
:102FAE0070089600181408007108970070089600B3
:102FBE000800CC004C08CB00CB0DCB0D21001D081A
:102FCE0020004B0683394B0621009D001D1408007E
:102FDE0001309D00E0309E0050309F009B019C010F
:102FEE00111771302000CB000830CC009731252707
:102FFE000800533479346E347434613478343A348E
:10300E00203443344E344E344E344E340D340A3460
:10301E0000342034203443343A34203463346F3453
:10302E006D346D3461346E3464340D340A340034CE
:10303E002034203448343A342034003420342034C0
:10304E004C343A34203400342034203454343A345E
:10305E00203400344F344B340D340A3400343E34B3
:08306E003E342034203400340C
:020000040001F9
:04000E00FCFFFFFEF6
:00000001FF
