:020000040000FA
:1000000080313428013401347E14803164000B1FA8
:1000100032282100111F13282000111F13289431AA
:100020000A24803132282100911E20282000911EB0
:100030002028220067088A0066080A0080313228DA
:100040002100911C2A282000911C2A289331252365
:10005000803132282100111C32282000111C322846
:10006000943116247E100900803136288031022018
:100070008031DF00803103208031E00021008831B1
:1000800073208031EE00A530840093308500683005
:10009000860001308700083093315F2380312030A3
:1000A0008400003085002430933159238031E430BE
:1000B0008400003085000A3093315923803120308C
:1000C0008400013085003A30933159238031A030CB
:1000D0008400013085001D30933159237E102000AB
:1000E0009531962D0034003401340034023400344C
:1000F0000234003403340034043400340534003452
:100100000634003407340034073400340834003433
:10011000093400340A3400340B3400340B34003416
:100120000C3400340D3400340E3400340F340034F9
:1001300010340034103400341134003412340034DC
:1001400013340034143400341534003415340034BE
:1001500016340034173400341834003419340034A1
:10016000193400341A3400341B3400341C34003485
:100170001D3400341E3400341E3400341F34003467
:10018000203400342134003422340034223400344A
:10019000233400342434003425340034263400342D
:1001A0002734003427340034283400342934003410
:1001B0002A3400342B3400342C3400342C340034F2
:1001C0002D3400342E3400342F34003430340034D5
:1001D00030340034313400343234003433340034B9
:1001E000343400343534003435340034363400349B
:1001F000373400343834003439340034393400347E
:100200003A3400343B3400343C3400343D34003460
:100210003E3400343E3400343F3400344034003443
:100220004134003442340034433400344334003425
:100230004434003445340034463400344734003408
:100240004734003448340034493400344A340034EC
:100250004B3400344C3400344C3400344D340034CE
:100260004E3400344F3400345034003450340034B1
:100270005134003452340034533400345434003494
:100280005534003455340034563400345734003477
:100290005834003459340034593400345A3400345A
:1002A0005B3400345C3400345D3400345E3400343C
:1002B0005E3400345F340034603400346134003420
:1002C0006234003463340034633400346434003402
:1002D00065340034663400346734003467340034E5
:1002E00068340034693400346A3400346B340034C8
:1002F0006C3400346C3400346D3400346E340034AB
:100300006F3400347034003470340034713400348D
:10031000723400347334003474340034753400346F
:100320007534003476340034773400347834003453
:10033000793400347A3400347A3400347B34003435
:100340007C3400347D3400347E3400347E34003418
:100350007F340034803400348134003482340034FB
:1003600083340034833400348434003485340034DE
:1003700086340034873400348734003488340034C1
:10038000893400348A3400348B3400348C340034A3
:100390008C3400348D3400348E3400348F34003487
:1003A0009034003491340034913400349234003469
:1003B000933400349434003495340034953400344C
:1003C000963400349734003498340034993400342F
:1003D0009A3400349A3400349B3400349C34003412
:1003E0009D3400349E3400349E3400349F340034F5
:1003F000A0340034A1340034A2340034A3340034D7
:10040000A3340034A4340034A5340034A6340034BA
:10041000A7340034A7340034A8340034A93400349D
:10042000AA340034AB340034AC340034AC3400347F
:10043000AD340034AE340034AF340034B034003462
:10044000B1340034B1340034B2340034B334003445
:10045000B4340034B5340034B5340034B634003428
:10046000B7340034B8340034B9340034BA3400340A
:10047000BA340034BB340034BC340034BD340034EE
:10048000BE340034BE340034BF340034C0340034D1
:10049000C1340034C2340034C3340034C3340034B3
:1004A000C4340034C5340034C6340034C734003496
:1004B000C8340034C8340034C9340034CA34003479
:1004C000CB340034CC340034CC340034CD3400345C
:1004D000CE340034CF340034D0340034D13400343E
:1004E000D1340034D2340034D3340034D434003422
:1004F000D5340034D5340034D6340034D734003405
:10050000D8340034D9340034DA340034DA340034E6
:10051000DB340034DC340034DD340034DE340034C9
:10052000DF340034DF340034E0340034E1340034AC
:10053000E2340034E3340034E3340034E43400348F
:10054000E5340034E6340034E7340034E834003471
:10055000E8340034E9340034EA340034EB34003455
:10056000EC340034EC340034ED340034EE34003438
:10057000EF340034F0340034F1340034F13400341A
:10058000F2340034F3340034F4340034F5340034FD
:10059000F6340034F6340034F7340034F8340034E0
:1005A000F9340034FA340034FA340034FB340034C3
:1005B000FC340034FD340034FE340034FF340034A5
:1005C000FF34003400340134013401340234013486
:1005D0000334013403340134043401340534013468
:1005E000063401340734013408340134083401344A
:1005F000093401340A3401340B3401340C3401342D
:100600000C3401340D3401340E3401340F34013410
:1006100010340134113401341134013412340134F2
:1006200013340134143401341534013416340134D4
:1006300016340134173401341834013419340134B8
:100640001A3401341A3401341B3401341C3401349B
:100650001D3401341E3401341F3401341F3401347D
:100660002034013421340134223401342334013460
:100670002334013424340134253401342634013444
:100680002734013428340134283401342934013426
:100690002A3401342B3401342C3401342D34013408
:1006A0002D3401342E3401342F34013430340134EC
:1006B00031340134313401343234013433340134CF
:1006C00034340134353401343634013436340134B1
:1006D0003734013438340134393401343A34013494
:1006E0003A3401343B3401343C3401343D34013478
:1006F0003E3401343F3401343F340134403401345A
:10070000413401344234013443340134443401343B
:10071000443401344534013446340134473401341F
:100720004834013448340134493401344A34013402
:100730004B3401344C3401344D3401344D340134E4
:100740004E3401344F3401345034013451340134C7
:1007500051340134523401345334013454340134AB
:10076000553401345634013456340134573401348D
:1007700058340134593401345A3401345A34013470
:100780005B3401345C3401345D3401345E34013453
:100790005F3401345F340134603401346134013436
:1007A0006234013463340134643401346434013418
:1007B00065340134663401346734013468340134FB
:1007C00068340134693401346A3401346B340134DF
:1007D0006C3401346D3401346D3401346E340134C1
:1007E0006F340134703401347134013471340134A4
:1007F0007234013473340134743401347534013487
:100800007634013476340134773401347834013469
:10081000793401347A3401347B3401347B3401344B
:100820007C3401347D3401347E3401347F3401342E
:100830007F34013480340134813401348234013412
:1008400083340134843401348434013485340134F4
:1008500086340134873401348834013488340134D7
:10086000893401348A3401348B3401348C340134BA
:100870008D3401348D3401348E3401348F3401349D
:10088000903401349134013492340134923401347F
:100890009334013494340134953401349634013462
:1008A0009634013497340134983401349934013446
:1008B0009A3401349B3401349B3401349C34013428
:1008C0009D3401349E3401349F3401349F3401340B
:1008D000A0340134A1340134A2340134A3340134EE
:1008E000A4340134A4340134A5340134A6340134D1
:1008F000A7340134A8340134A8340134A9340134B4
:10090000AA340134AB340134AC340134AD34013495
:10091000AD340134AE340134AF340134B034013479
:10092000B1340134B2340134B2340134B33401345B
:10093000B4340134B5340134B6340134B63401343E
:10094000B7340134B8340134B9340134BA34013421
:10095000BB340134BB340134BC340134BD34013404
:10096000BE340134BF340134BF340134C0340134E7
:10097000C1340134C2340134C3340134C4340134C9
:10098000C4340134C5340134C6340134C7340134AD
:10099000C8340134C9340134C9340134CA3401348F
:1009A000CB340134CC340134CD340134CD34013472
:1009B000CE340134CF340134D0340134D134013455
:1009C000D2340134D2340134D3340134D434013438
:1009D000D5340134D6340134D6340134D73401341B
:1009E000D8340134D9340134DA340134DB340134FD
:1009F000DB340134DC340134DD340134DE340134E1
:100A0000DF340134E0340134E0340134E1340134C2
:100A1000E2340134E3340134E4340134E4340134A5
:100A2000E5340134E6340134E7340134E834013488
:100A3000E9340134E9340134EA340134EB3401346B
:100A4000EC340134ED340134ED340134EE3401344E
:100A5000EF340134F0340134F1340134F234013430
:100A6000F2340134F3340134F4340134F534013414
:100A7000F6340134F6340134F7340134F8340134F7
:100A8000F9340134FA340134FB340134FB340134D9
:100A9000FC340134FD340134FE340134FF340134BC
:100AA000003402340034023401340234023402349B
:100AB000033402340434023404340234053402347E
:100AC0000634023407340234083402340934023460
:100AD000093402340A3402340B3402340C34023444
:100AE0000D3402340D3402340E3402340F34023427
:100AF0001034023411340234123402341234023409
:100B000013340234143402341534023416340234EB
:100B100017340234173402341834023419340234CE
:100B20001A3402341B3402341B3402341C340234B1
:100B30001D3402341E3402341F3402342034023493
:100B40002034023421340234223402342334023477
:100B5000243402342434023425340234263402345A
:100B6000273402342834023429340234293402343C
:100B70002A3402342B3402342C3402342D3402341F
:100B80002E3402342E3402342F3402343034023402
:100B900031340234323402343234023433340234E5
:100BA00034340234353402343634023437340234C7
:100BB0003734023438340234393402343A340234AB
:100BC0003B3402343B3402343C3402343D3402348E
:100BD0003E3402343F340234403402344034023470
:100BE0004134023442340234433402344434023453
:100BF0004434023445340234463402344734023437
:100C00004834023449340234493402344A34023418
:100C10004B3402344C3402344D3402344E340234FA
:100C20004E3402344F3402345034023451340234DE
:100C300052340234523402345334023454340234C1
:100C400055340234563402345734023457340234A3
:100C500058340234593402345A3402345B34023486
:100C60005B3402345C3402345D3402345E3402346A
:100C70005F3402346034023460340234613402344C
:100C8000623402346334023464340234653402342E
:100C90006534023466340234673402346834023412
:100CA00069340234693402346A3402346B340234F5
:100CB0006C3402346D3402346E3402346E340234D7
:100CC0006F340234703402347134023472340234BA
:100CD000723402347334023474340234753402349E
:100CE0007634023477340234773402347834023480
:100CF000793402347A3402347B3402347C34023462
:100D00007C3402347D3402347E3402347F34023445
:100D10008034023480340234813402348234023428
:100D2000833402348434023485340234853402340A
:100D300086340234873402348834023489340234ED
:100D4000893402348A3402348B3402348C340234D1
:100D50008D3402348E3402348E3402348F340234B3
:100D60009034023491340234923402349234023496
:100D70009334023494340234953402349634023479
:100D8000973402349734023498340234993402345C
:100D90009A3402349B3402349C3402349C3402343E
:100DA0009D3402349E3402349F340234A034023421
:100DB000A0340234A1340234A2340234A334023405
:100DC000A4340234A5340234A5340234A6340234E7
:100DD000A7340234A8340234A9340234A9340234CA
:100DE000AA340234AB340234AC340234AD340234AD
:100DF000AE340234AE340234AF340234B034023490
:100E0000B1340234B2340234B3340234B334023471
:100E1000B4340234B5340234B6340234B734023454
:100E2000B7340234B8340234B9340234BA34023438
:100E3000BB340234BC340234BC340234BD3402341A
:100E4000BE340234BF340234C0340234C0340234FD
:100E5000C1340234C2340234C3340234C4340234E0
:100E6000C5340234C5340234C6340234C7340234C3
:100E7000C8340234C9340234CA340234CA340234A5
:100E8000CB340234CC340234CD340234CE34023488
:100E9000CE340234CF340234D0340234D13402346C
:100EA000D2340234D3340234D3340234D43402344E
:100EB000D5340234D6340234D7340234D734023431
:100EC000D8340234D9340234DA340234DB34023414
:100ED000DC340234DC340234DD340234DE340234F7
:100EE000DF340234E0340234E1340234E1340234D9
:100EF000E2340234E3340234E4340234E5340234BC
:100F0000E5340234E6340234E7340234E83402349F
:100F1000E9340234EA340234EA340234EB34023481
:100F2000EC340234ED340234EE340234EE34023464
:100F3000EF340234F0340234F1340234F234023447
:100F4000F3340234F3340234F4340234F53402342A
:100F5000F6340234F7340234F7340234F83402340D
:100F6000F9340234FA340234FB340234FC340234EF
:100F7000FC340234FD340234FE340234FF340234D3
:100F800000340334013403340134033402340334B1
:100F90000334033404340334053403340534033494
:100FA0000634033407340334083403340934033477
:100FB0000A3403340A3403340B3403340C3403345A
:100FC0000D3403340E3403340E3403340F3403343D
:100FD000103403341134033412340334133403341F
:100FE0001334033414340334153403341634033403
:100FF00017340334183403341834033419340334E5
:101000001A3403341B3403341C3403341C340334C7
:101010001D3403341E3403341F34033420340334AA
:10102000213403342134033422340334233403348D
:101030002434033425340334253403342634033470
:101040002734033428340334293403342A34033452
:101050002A3403342B3403342C3403342D34033436
:101060002E3403342F3403342F3403343034033418
:1010700031340334323403343334033433340334FB
:1010800034340334353403343634033437340334DE
:101090003834033438340334393403343A340334C1
:1010A0003B3403343C3403343C3403343D340334A4
:1010B0003E3403343F340334403403344134033486
:1010C000413403344234033443340334443403346A
:1010D000453403344534033446340334473403344D
:1010E0004834033408000234D301D4014D084E04BF
:1010F0000319A328D201D20ACE1B88280130CD358E
:10110000CE0D890B7F280130D1005108D2077C28F1
:101110000130D335D40D890B89284E085002031DA8
:1011200093284D084F02031C9A284D08CF024E0801
:10113000D03B53140130CE36CD0C890B9B280130A7
:10114000D202031D88285408CE005308CD000800A1
:101150000030FC000030FB000030FA000030F900E5
:1011600073087204710470040319F128FD01FD0A6B
:10117000F31BC6280130F035F10DF20DF30D890B8C
:10118000BB280130F8007808FD07B8280130F93590
:10119000FA0DFB0DFC0D890BC72873087702031DA0
:1011A000DB2872087602031DDB2871087502031D17
:1011B000DB2870087402031CE6287008F40271082A
:1011C000F53B7208F63B7308F73B79140130F336B0
:1011D000F20CF10CF00C890BE7280130FD02031D25
:1011E000C6287C08F3007B08F2007A08F100790831
:1011F000F0000800E0305005D6001F305105D70040
:1012000000308B1B0130D80057085106031D0A29F6
:1012100056085006031D08008B135108CE005008D5
:10122000CD009531D125883123001513151595165C
:101230002000D9015008230091002000510823000C
:101240009200200059355207D300530886008701C9
:10125000010823009300200059355207D30053089A
:1012600086008701403FD400413FD5005508230048
:1012700094001F3020005906031D402923009512B9
:10128000553023009600AA30960095140000000007
:1012900001302000D0070030D13D64000130200033
:1012A000D3005308D90720305902031C1A29230000
:1012B00015112000580C031C8B1303188B17080002
:1012C00020003103031D6929BC302100A0000A3031
:1012D0006D29BA302100A0000C30A1002000430885
:1012E0002100A300200042082100A20020004108A4
:1012F0002100A500200040082100A40020003F0894
:101300002100A70020003E082100A60094319F2460
:10131000893154082100A900200053082100A800A9
:101320009331412389314E082100AB0020004D0844
:101330002100AA009331AD2389314E082100AD0070
:1013400020004D082100AC0094316B2489315008F5
:101350002100E30020004F082100E20020004E0899
:101360002100E10020004D082100E0006308AF00EB
:101370006208AE006108B1006008B00000302000D3
:10138000D0001F30D100A030DA005A08D2008831D6
:10139000FA20080020002908031908002903031D6A
:1013A000E8292200680A031DE029690A031DE029D3
:1013B000E8302000D5000330D6009631DB26893195
:1013C0009331182302302000D7005708A9000800E5
:1013D00002302906031DFC299331372389314E0839
:1013E0002102031DF5294D082002031808000330CF
:1013F000D7005708A900080003302906031D202A3A
:1014000093313723893121084E02031D092A200810
:101410004D020318080093311B230130C807003028
:10142000C93D0030CA3D0030CB3D20003003FF3ABB
:10143000D7005708A8000430D7005708A9000800B3
:1014400004302906031D3A2A28083007D700220055
:10145000680820005702031C08009331182320005D
:101460003003FF3AD7005708A8000530D7005708C7
:10147000A900080005302906031D080028083007C8
:10148000D70032305702031C08000230D70057083B
:10149000A900080020003D082100E50020003C08CC
:1014A0002100E40093312D238A31FF3070052000A4
:1014B000C40003307105C500C435C50D7230440742
:1014C00084008030453D8500003FBC00013FBD00E9
:1014D0003108031908002100640820003C022200A2
:1014E000D6002100650820003D3B2200D7002000E7
:1014F0003D0821006502031D812A20003C082100CF
:1015000064020318872A2000B201B20A892A200047
:10151000B2013D083F02031D8F2A3C083E0203181A
:10152000AA2A22000C168C12F730F0000230F100CB
:101530009431B4248A31F7302000A2000230A30095
:10154000F730A4000230A500F7302000A6000230DA
:10155000A700792B41083D02031DB02A40083C0238
:10156000031CB62A22000C168C12A42A43083D0242
:10157000031DBC2A42083C02031C502B22000C16FF
:101580008C162000C801C80A3203031D292B42080B
:101590003C02F00043083D3BF100F201F301003052
:1015A000F7000030F6000230F500F730F400963115
:1015B000AC268A317308CC007208CB007108CA00CF
:1015C0007008C90042084002F0004308413BF100A6
:1015D000F201F3014C08F7004B08F6004A08F50049
:1015E0004908F4008831A8208A317308CC007208B9
:1015F000CB007108CA007008C9004C08031D092BF4
:101600004B08031D092BF830490202304A3B031CEA
:101610000E2BF730A6000230A700282B2608C400A6
:101620002708C500C601C7014C084702031D222B2D
:101630004B084602031D222B4A084502031D222B9C
:10164000490844020318292B4A08A7004908A600A4
:10165000C8014803031D4C2B22006F085302031DD1
:10166000332B6E085202031C482BD201D3010830E1
:101670002000A6070030A73D02302702F8300319EA
:101680002602031C4C2BF730A6000230A7004C2B7F
:101690000130D2070030D33D2200D001D101792B97
:1016A00022000C128C166B085102031D592B6A087C
:1016B0005002031C752BD001D10120002708220005
:1016C0006D02031D672B2000260822006C02031800
:1016D000712B6C082000A60222006D082000A73B99
:1016E000792B2000A601A701792B0130D00700300B
:1016F000D13D20002708F1002608F0009331322365
:1017000008002300BF0100302000CD001F30CE00B4
:101710009531B2258B314E082300BE0020004D08C4
:101720002300BD0001302000CD001F30CE009531D8
:10173000B2258B314E082300C50020004D08230040
:10174000C400033045022130031944020318B32BAF
:1017500045082000D100230044082000D000933128
:10176000FF238B31B52BBF01BF0A02302000CD0013
:101770001F30CE009531B2258B314E082300C500B5
:1017800020004D082300C400033045022130031916
:1017900044020318D62B45082000D100230044083A
:1017A0002000D0009331F4238B31D82BBF01BF0A26
:1017B00003302000CD001F30CE009531B2258B3193
:1017C0004E082300C50020004D082300C40003304C
:1017D00045022130031944020318F92B4508200063
:1017E000D100230044082000D0009331E9238B313D
:1017F000FB2BBF01BF0A04302000CD001F30CE00FC
:101800009531B2258B314E082300C50020004D08CC
:101810002300C40027304502113003194402031885
:101820001C2C45082000D600230044082000D500C9
:10183000963133268B311E2CBF01BF0A05302000A4
:10184000CD001F30CE009531B2258B314E082300DC
:10185000C50020004D082300C4000330450221309C
:101860000319440203183F2C45082000CE00230032
:1018700044082000CD009431F8248B31412CBF0165
:10188000BF0A06302000CD001F30CE009531B225B2
:101890008B314E082300C50020004D082300C400F2
:1018A000273045021130031944020318622C450801
:1018B0002000D600230044082000D5009631DB2606
:1018C0008B31642CBF01BF0A23003F08031D812C0C
:1018D000BC303D060A3003193E060319762CBA3097
:1018E0003D060C3003193E06031DA82CBC303D06F6
:1018F0000A3003193E06031DA82C953110258B31A3
:10190000A82C00302000D000D1009331FF238B3170
:101910000030D000D1009331F4238B310030D0005F
:10192000D1009331E9238B310030D500D6009631B8
:1019300033268B3100302000CD00CE009431F824C6
:101940008B3100302000D500D6009631DB268B315C
:1019500007302000CD001F30CE009531B2258B31ED
:101960004E082300C50020004D082300C400440891
:10197000C0004508C100C201C3011030C035C10D0F
:10198000C20DC30D890BBE2C08302000CD001F30C6
:10199000CE009531B2258B314E082300C5002000C2
:1019A0004D082300C40044082000DB002300450844
:1019B0002000DC00DD01DE015B082300C004200004
:1019C0005C082300C10420005D082300C20420003D
:1019D0005E082300C304400A3F3003194106031D7B
:1019E000062D420A3F3003194306031D062D003021
:1019F0002000D0000030CF000030CE000030CD00FD
:101A000094315B248B318931602108004308200028
:101A1000D000230042082000CF002300410820000E
:101A2000CE00230040082000CD0094315B24080044
:101A300020002D08031908002D03031D2A2D300353
:101A4000FF3ADB005B08AE00DF010230DB005B0821
:101A5000AD00080002302D06031D3B2D2E08300777
:101A6000DB0003305B02031C0800AF010330DB0026
:101A70005B08AD00080003302D06031D8E2D2F08D6
:101A8000031908002E083007DB0003305B02031C3B
:101A90000800DF01DF0A220020082000DB005B08CD
:101AA0002300BD00C101C10A20002F08230041020C
:101AB00003186C2D4108203E860001308700010884
:101AC0002000DB005B082300BD0601302000DB00A6
:101AD0005B082300C107542D3D08031D852DAA3046
:101AE0002200200603197C2D5530200603197C2D79
:101AF000A5302006031D852D0F3020002F06031969
:101B0000892D02302F060319892D2000AF01DF0136
:101B100008000430DB005B08AD00080004302D062F
:101B2000031DE62FAA3022002006031D9D2D013043
:101B30002000DB005B082100EE07AA30220020060F
:101B4000031DAE2E0F3020002F06031DAE2E2200E7
:101B500021082000DB00DC015B082300C800200016
:101B60005C082300C900220022082000DB00DC0101
:101B7000230048082000DE00DD015B085D0423002F
:101B8000C80020005C085E042300C900490820004A
:101B9000D100230048082000D0009331FF238D316D
:101BA000220023082000DB00DC015B082300C800C2
:101BB00020005C082300C900220024082000DB006C
:101BC000DC01230048082000DE00DD015B085D0425
:101BD0002300C80020005C085E042300C9004908F7
:101BE0002000D100230048082000D0009331F423C6
:101BF0008D31220025082000DB00DC015B0823007A
:101C0000C80020005C082300C9002200260820002C
:101C1000DB00DC01230048082000DE00DD015B085A
:101C20005D042300C80020005C085E042300C90096
:101C300049082000D100230048082000D00093313B
:101C4000E9238D31220027082000DB00DC015B083E
:101C50002300C80020005C082300C90022002808D7
:101C60002000DB00DC01230048082000DE00DD014D
:101C70005B085D042300C80020005C085E042300AC
:101C8000C90049082000D600230048082000D500DC
:101C9000963133268D31220029082000DB00DC013B
:101CA0005B082300C80020005C082300C900220054
:101CB0002A082000DB00DC01230048082000DE00A9
:101CC000DD015B085D042300C80020005C085E04A1
:101CD0002300C90049082000CE0023004808200046
:101CE000CD009431F8248D3122002B082000DB0038
:101CF000DC015B082300C80020005C082300C90049
:101D000022002C082000DB00DC0123004808200012
:101D1000DE00DD015B085D042300C80020005C08D4
:101D20005E042300C90049082000D60023004808AB
:101D30002000D5009631DB268D3122002D08031DB1
:101D4000A52E94312F248D31A82E953110258D315B
:101D5000893160212000AD01AD0A08005530220014
:101D60002006031D772F023020002F06031D772F3A
:101D700093313C238D314E082300CB0020004D08C9
:101D80002300CA004B082000DB005B082200A100F2
:101D900023004A082000DB005B082200A2009331E8
:101DA0004D238D314E082300CB0020004D08230029
:101DB000CA004B082000DB005B082200A3002300C0
:101DC0004A082000DB005B082200A400933147236F
:101DD0008D314E082300CB0020004D082300CA009F
:101DE0004B082000DB005B082200A50023004A0806
:101DF0002000DB005B082200A60094319F248D3177
:101E000054082300CB00200053082300CA004B08CD
:101E10002000DB005B082200A70023004A08200006
:101E2000DB005B082200A800933141238D314E086E
:101E30002300CB0020004D082300CA004B082000DF
:101E4000DB005B082200A90023004A082000DB0019
:101E50005B082200AA009331AD238D314E08230088
:101E6000CB0020004D082300CA004B082000DB00F7
:101E70005B082200AB0023004A082000DB005B085F
:101E80002200AC0093311E238D31DB005B08220061
:101E9000AD0020082000DB005B082300BE00C2016B
:101EA000C20A4208203E8600013087000108200057
:101EB000DB005B082300BE0601302000DB005B086E
:101EC0002300C2070E304202031C512F3E0820009F
:101ED000DB005B082200AE000F302000DB005B0857
:101EE000AF00AC010530DB005B08AD000800A53099
:101EF00022002006031DAA2E023020002F06031DFB
:101F0000AA2E933137238D314E082300C0002000C4
:101F10004D082300BF0040082000DB005B082200C2
:101F2000A10023003F082000DB005B082200A20084
:101F300094316B248D3150082300C70020004F08D6
:101F40002300C60020004E082300C50020004D08D5
:101F50002300C40047082000DB005B082200A30028
:101F6000230046082000DB005B082200A4002300B9
:101F700045082000DB005B082200A5002300440880
:101F80002000DB005B082200A60020082000DB0008
:101F90005B082200A7002300C301C30A07304302E5
:101FA0000318E42F4308203E860001308700010813
:101FB0002000DB005B082200A70601302000DB00C8
:101FC0005B082300C307CE2F08306D2F05302D0688
:101FD000031D080023009E1C080020002F082C026F
:101FE0000318AA2E2C08203E860001308700010825
:101FF00023009A0001302000DB005B08AC070800DA
:1026160008000800080008009431E02408002100A2
:102626009D14080020001C15080022008E120800C8
:1026360022008E16080020003108080023001D1213
:102646001D16080091109331DE2308001630210074
:10265600970008001C08F1001B08F000080071082C
:10266600A5007008A40008003D08CE003C08CD0077
:1026760008004308CE004208CD00080020002108CB
:10268600CE002008CD00080020003F08CE003E08FE
:10269600CD00080020004108CE004008CD0008000B
:1026A600A9012100E7019331182308006400800185
:1026B6000131890B5A2B0034FE0012001E00FE0B5E
:1026C600602B00344E082200DF0020004D08220057
:1026D600DE0008004E082200E10020004D0822001E
:1026E600E00008004E082300CD0020004D0823001E
:1026F600CC0008004E082200E50020004D0822000C
:10270600E40008004E082200E30020004D082200E5
:10271600E20008004E082200E70020004D082200D3
:10272600E60008007A30210099009A0198012200FB
:10273600960108004E082200DB0020004D0822000A
:10274600DA000800FF34FF340A340034043400345D
:102756000534003422004F082000CE0022004E0827
:102766002000CD0008002908031D0800A901A90AB8
:102776002100E701E70A08002000290803190800DC
:10278600A901A90A2100E701E70A0800C7302800C5
:102796009600950120009210053028009700080049
:1027A60022005A085B04031908005B088A005A08CD
:1027B6000A0093310800220060086104031908002A
:1027C60061088A0060080A00933108005108CE00AB
:1027D6005008CD003E30D2005208CF0095317A2500
:1027E60008005108CE005008CD004030D2005208F3
:1027F600CF0095317A2508005108CE005008CD004B
:102806004230D2005208CF0095317A2508001113C4
:1028160022005E085F04031908005F088A005E084C
:102826000A0094310800111022005D08F1005C08CE
:10283600F00094313D2494319331D3230800803045
:102846002C009900BD309800C030970025001E0866
:10285600CF3910389E0008002000310803190800FF
:102866009331532321008C160C162000A401A501D8
:10287600B10108002000181D472C18107108970098
:1028860070089600181408007108970070089600E2
:102896000800CE004E08CD00CD0DCD0D21001D083F
:1028A60020004D0683394D0621009D001D140800A9
:1028B60050082200CB0020004F082200CA0020004A
:1028C6004E082200C90020004D082200C80008005A
:1028D60022004B082000D00022004A082000CF002A
:1028E600220049082000CE00220048082000CD0022
:1028F600080001309D00E0309E0050309F009B0193
:102906009C0111170B302000CD001330CE009331FF
:10291600652308003E3020009B009A01911021009B
:1029260091140E302000CD001330CE0093316D236C
:10293600073020009C00080022006E08013E20009F
:10294600CD00003022006F3D2000CE006430CF0065
:102956000030D000953144254E08D4004D08D300F0
:1029660008007108F3007008F200F336F20CF33633
:10297600F20C72082C00980070080339F20005303A
:10298600F235FF3E031DC32C723597000800200068
:102996002D08031D08001030CD001630CE009331EF
:1029A6009D239431F0302000CD001530CE009331B8
:1029B6008D232000AD01AD0A080023001908F000A0
:1029C60020003B08B03E8600013087007008810079
:1029D6000130F0007008BB0708303B020318BB014A
:1029E6000130F0007008B90708004D0A03194E0AB5
:1029F6000319080003304E02213003194D02031C4F
:102A0600092D2030A0000330A1000D2D4E08A10095
:102A16004D08A0009331BF2308002000310303199D
:102A260008009331B623953121008C120C12200038
:102A3600A601A701A201A301A401A5016003031D2C
:102A4600262D963159262000B101B10A08009901B8
:102A56003C309700B0309600111017082200DD00B8
:102A6600200016082200DC00210011140D30200081
:102A7600CD001330CE0093319D23313020009800D5
:102A86000800D101D2014D1C4C2D4F08D10750082A
:102A9600D23D0130CF35D00D890B4D2D0130CE36CC
:102AA600CD0C890B522D4D084E04031D462D5208A0
:102AB600CE005108CD00080096318026953193311D
:102AC6009523953193312923953194317C24953181
:102AD6009331C923953194312224953194318D2433
:102AE600953195312A25953197310E2708004D0AE3
:102AF60003194E0A0319080003304E022030031949
:102B06004D02031C8E2D4F08860087012030C03FE2
:102B16000330C13F08004F08860087014D08C03FBB
:102B26004E08C13F080095315F2595318B170B176D
:102B36008B31812395319631592695318831722012
:102B460095319431CA2495318D31182595318931C5
:102B5600CA21953197317B2795316400A72D003026
:102B66008B1B0130CF008B134D08230091002000F2
:102B76004E082300920015131514000000002000D3
:102B86004F0C031C8B1303188B172300140820000B
:102B9600CE00230013082000CD00080000308B1B58
:102BA6000130CF008B134D082300910020004E0802
:102BB6002300920015131516151555309600AA30E8
:102BC60096009514000000002300151120004F0CFC
:102BD600031C8B1303188B17080023001908F00039
:102BE6007008F10020005F08031D08003003FF3A5B
:102BF600F0007008AE0020302F020318080071089C
:102C0600F0002F08203E8600013087007008810002
:102C16000130F0007008AF0708000130F0007008BE
:102C26002000B0070130F0007008AB070A302B0611
:102C3600031D0800AB010130F00070082100E90710
:102C46000130F00070082000AA073C302A06031D58
:102C56000800AA010130F00070082100E80708000A
:102C6600550A0319560A03190800633056029D30A7
:102C760003195502031C442EFF302200EE000030DB
:102C8600EF0064302000CD000030CE005608D000A2
:102C96005508CF00883174204D08FF3E2200EE0013
:102CA600FF3020004E3D2200EF00080020006008A3
:102CB60003190800E001073094314C2496310630A0
:102CC6002000CF003030890B662ECF0B662E000019
:102CD600933112239631933115239631BC30CD00B2
:102CE6001730CE0093316D2396314A302000CD0047
:102CF6000A30CE0093316523080022008C01013092
:102D06008E00073021008C0018308E00183023000A
:102D16008E0003308C0024008C018E012100951753
:102D260025008C018E01373026008C003F308E0046
:102D36003F3027008C003F308E0014303D00A0004D
:102D460002303C00A4000E303D00A1000E30A2006F
:102D560008000030FB000030FA000030F9000030B7
:102D6600F800701CBE2E7408F8077508F93D760841
:102D7600FA3D7708FB3D0130F435F50DF60DF70DFC
:102D8600890BBF2E0130F336F20CF10CF00C890BD7
:102D9600C62E7308720471047004031DB42E7B08DA
:102DA600F3007A08F2007908F1007808F0000800CC
:102DB600550A0319560A03190800633056029D3056
:102DC60003195502031CED2E9C302200CE00633001
:102DD600CF00F42E56082200CF002000550822000E
:102DE600CE0064302000CD000030CE0022004F0817
:102DF6002000D00022004E082000CF008831742029
:102E060096314E082200E90020004D082200E80015
:102E16009331BF2308002100911241302000CD00DC
:102E26001730CE0093318D239731083023009F0051
:102E360090309D0024309E0022309B009C010C3077
:102E46002000CD001330CE0093317D239731213001
:102E56002000CD001330CE009331852397310F30FB
:102E66002000CD001330CE00933175232000B80129
:102E7600BB01BA01B90121009116080020003B08E8
:102E8600403E860001308700810123001D1D582F1A
:102E960020003B08403E8600013087008114220056
:102EA60065088A0064080A00973123009D1C682F74
:102EB60020003B08403E86000130870001152200B5
:102EC60063088A0062080A00973120003B08403EEA
:102ED60086000130870001080319782F23004D086A
:102EE6008A004C080A00973108009431E024080053
:102EF60021006708031908006703031D902F680364
:102F0600FF3A2000DB005B082100E60002302000CB
:102F1600DB005B082100E700080002306706031D9E
:102F26000800660868072000DB003C305B02031CD3
:102F3600080021006803FF3A2000DB005B0821003F
:102F4600E6002200480A3F3003194906031DB92F3F
:102F56004A0A3F3003194B06031DB92F0130C80733
:102F66000030C93D0030CA3D0030CB3D893160217B
:102F76000800200023082502031DC32F220824026F
:102F86000318DB2F24082202F4002508233BF50052
:102F960000307502093003197402031CD72F08305C
:102FA600A2020030A33BDB2F2508A3002408A200C1
:102FB60025082302031DE12F240822020318F92FF6
:102FC60022082402F4002308253BF5000030750290
:102FD600093003197402031CF52F0830A2070030CC
:102FE600A33DF92F2508A3002408A2002308F10019
:102FF6002208F0009431B4240800203420344E34E2
:103006004E344E344E343A3420346E3475346D3486
:103016006234653472342034663472346F346D34FD
:1030260020343034203474346F3420343934393415
:10303600393439340D340A340D340A340034453405
:10304600523452344F3452343A34203469346E3464
:10305600763461346C3469346434203473347934AE
:103066006E347434613478342E340D340A340034BA
:103076002034203449343A3420347034723469347C
:103086006E34743420347334793473347434653460
:103096006D34203449344E3446344F340D340A34BA
:1030A6000034203420343F343A34203470347234BF
:1030B60069346E3474342034743468346934733447
:1030C6002034733463347234653465346E340D34AD
:1030D6000A3400342034203448343A3420347334EB
:1030E6006534743420344834493447344834203401
:1030F60076346F346C3474346134673465340D342B
:103106000A3400340D340A340D340A342D342D3487
:103116002D342D342D342D342D342D342D342D34A1
:103126002D342D342D342D342D342D340D340A34D4
:103136000034203420344C343A342034733465342B
:10314600743420344C344F345734203476346F344E
:103156006C3474346134673465340D340A340034A5
:103166004534723472346F3472343A3420346934EC
:103176006E34763461346C346934643420346134AA
:10318600723467342E340D340A34003445347234C4
:1031960072346F3472343A34203469346E3476348F
:1031A60061346C3469346434203463346F346D3480
:1031B6002E340D340A3400344134763461346934A3
:1031C6006C34613462346C346534203443346F3487
:1031D6006D346D3461346E34643473343A340D3482
:1031E6000A3400342034203454343A3420347334CE
:1031F600653474342034643465346C346134793421
:103206002034543449344D3445340D340A340034B2
:1032160020342034483465346C34703420345334CC
:1032260063347234653465346E340D340A340D34C7
:103236000A340034533479346E3474346134783457
:103246003A34203443344E344E344E344E340D34F6
:103256000A3400342034203443343A34203463347E
:103266006F346D346D3461346E3464340D340A3425
:1032760000342034203448343A34203400342034A6
:1032860020344C343A34203400342034203454343E
:103296003A34203400344F344B340D340A3400347D
:1032A6003E343E34203420340034083400340834AC
:0232B6000034E2
:020000040001F9
:04000E00FCFFFFFEF6
:00000001FF
