:020000040000FA
:1000000080313428643400347E14803164000B1F46
:1000100032282100111F13282000111F13289731A7
:10002000E427803132282100911E20282000911ED3
:10003000202822006A088A0069080A0080313228D4
:100040002100911C2A282000911C2A289631F8268C
:10005000803132282100111C32282000111C322846
:1000600088317B207E10090080313628ED308400F5
:10007000963085006230860000308700033097316B
:100080002D2780313330840097308500E83086009A
:1000900000308700063097312D27803122008031D3
:1000A00002208031EB00803103208031EC002030D1
:1000B0008400003085002430973127278031E030DC
:1000C00084000030850008309731272780312030A8
:1000D0008400013085003D30973127278031A030E2
:1000E0008400013085001030973127277E102000D2
:1000F0008C31102C003400340134003402340034CC
:100100000234003403340034043400340534003441
:100110000634003407340034073400340834003423
:10012000093400340A3400340B3400340B34003406
:100130000C3400340D3400340E3400340F340034E9
:1001400010340034103400341134003412340034CC
:1001500013340034143400341534003415340034AE
:100160001634003417340034183400341934003491
:10017000193400341A3400341B3400341C34003475
:100180001D3400341E3400341E3400341F34003457
:10019000203400342134003422340034223400343A
:1001A000233400342434003425340034263400341D
:1001B0002734003427340034283400342934003400
:1001C0002A3400342B3400342C3400342C340034E2
:1001D0002D3400342E3400342F34003430340034C5
:1001E00030340034313400343234003433340034A9
:1001F000343400343534003435340034363400348B
:10020000373400343834003439340034393400346D
:100210003A3400343B3400343C3400343D34003450
:100220003E3400343E3400343F3400344034003433
:100230004134003442340034433400344334003415
:1002400044340034453400344634003447340034F8
:100250004734003448340034493400344A340034DC
:100260004B3400344C3400344C3400344D340034BE
:100270004E3400344F3400345034003450340034A1
:100280005134003452340034533400345434003484
:100290005534003455340034563400345734003467
:1002A0005834003459340034593400345A3400344A
:1002B0005B3400345C3400345D3400345E3400342C
:1002C0005E3400345F340034603400346134003410
:1002D00062340034633400346334003464340034F2
:1002E00065340034663400346734003467340034D5
:1002F00068340034693400346A3400346B340034B8
:100300006C3400346C3400346D3400346E3400349A
:100310006F3400347034003470340034713400347D
:10032000723400347334003474340034753400345F
:100330007534003476340034773400347834003443
:10034000793400347A3400347A3400347B34003425
:100350007C3400347D3400347E3400347E34003408
:100360007F340034803400348134003482340034EB
:1003700083340034833400348434003485340034CE
:1003800086340034873400348734003488340034B1
:10039000893400348A3400348B3400348C34003493
:1003A0008C3400348D3400348E3400348F34003477
:1003B0009034003491340034913400349234003459
:1003C000933400349434003495340034953400343C
:1003D000963400349734003498340034993400341F
:1003E0009A3400349A3400349B3400349C34003402
:1003F0009D3400349E3400349E3400349F340034E5
:10040000A0340034A1340034A2340034A3340034C6
:10041000A3340034A4340034A5340034A6340034AA
:10042000A7340034A7340034A8340034A93400348D
:10043000AA340034AB340034AC340034AC3400346F
:10044000AD340034AE340034AF340034B034003452
:10045000B1340034B1340034B2340034B334003435
:10046000B4340034B5340034B5340034B634003418
:10047000B7340034B8340034B9340034BA340034FA
:10048000BA340034BB340034BC340034BD340034DE
:10049000BE340034BE340034BF340034C0340034C1
:1004A000C1340034C2340034C3340034C3340034A3
:1004B000C4340034C5340034C6340034C734003486
:1004C000C8340034C8340034C9340034CA34003469
:1004D000CB340034CC340034CC340034CD3400344C
:1004E000CE340034CF340034D0340034D13400342E
:1004F000D1340034D2340034D3340034D434003412
:10050000D5340034D5340034D6340034D7340034F4
:10051000D8340034D9340034DA340034DA340034D6
:10052000DB340034DC340034DD340034DE340034B9
:10053000DF340034DF340034E0340034E13400349C
:10054000E2340034E3340034E3340034E43400347F
:10055000E5340034E6340034E7340034E834003461
:10056000E8340034E9340034EA340034EB34003445
:10057000EC340034EC340034ED340034EE34003428
:10058000EF340034F0340034F1340034F13400340A
:10059000F2340034F3340034F4340034F5340034ED
:1005A000F6340034F6340034F7340034F8340034D0
:1005B000F9340034FA340034FA340034FB340034B3
:1005C000FC340034FD340034FE340034FF34003495
:1005D000FF34003400340134013401340234013476
:1005E0000334013403340134043401340534013458
:1005F000063401340734013408340134083401343A
:10060000093401340A3401340B3401340C3401341C
:100610000C3401340D3401340E3401340F34013400
:1006200010340134113401341134013412340134E2
:1006300013340134143401341534013416340134C4
:1006400016340134173401341834013419340134A8
:100650001A3401341A3401341B3401341C3401348B
:100660001D3401341E3401341F3401341F3401346D
:100670002034013421340134223401342334013450
:100680002334013424340134253401342634013434
:100690002734013428340134283401342934013416
:1006A0002A3401342B3401342C3401342D340134F8
:1006B0002D3401342E3401342F34013430340134DC
:1006C00031340134313401343234013433340134BF
:1006D00034340134353401343634013436340134A1
:1006E0003734013438340134393401343A34013484
:1006F0003A3401343B3401343C3401343D34013468
:100700003E3401343F3401343F3401344034013449
:10071000413401344234013443340134443401342B
:10072000443401344534013446340134473401340F
:100730004834013448340134493401344A340134F2
:100740004B3401344C3401344D3401344D340134D4
:100750004E3401344F3401345034013451340134B7
:10076000513401345234013453340134543401349B
:10077000553401345634013456340134573401347D
:1007800058340134593401345A3401345A34013460
:100790005B3401345C3401345D3401345E34013443
:1007A0005F3401345F340134603401346134013426
:1007B0006234013463340134643401346434013408
:1007C00065340134663401346734013468340134EB
:1007D00068340134693401346A3401346B340134CF
:1007E0006C3401346D3401346D3401346E340134B1
:1007F0006F34013470340134713401347134013494
:100800007234013473340134743401347534013476
:100810007634013476340134773401347834013459
:10082000793401347A3401347B3401347B3401343B
:100830007C3401347D3401347E3401347F3401341E
:100840007F34013480340134813401348234013402
:1008500083340134843401348434013485340134E4
:1008600086340134873401348834013488340134C7
:10087000893401348A3401348B3401348C340134AA
:100880008D3401348D3401348E3401348F3401348D
:10089000903401349134013492340134923401346F
:1008A0009334013494340134953401349634013452
:1008B0009634013497340134983401349934013436
:1008C0009A3401349B3401349B3401349C34013418
:1008D0009D3401349E3401349F3401349F340134FB
:1008E000A0340134A1340134A2340134A3340134DE
:1008F000A4340134A4340134A5340134A6340134C1
:10090000A7340134A8340134A8340134A9340134A3
:10091000AA340134AB340134AC340134AD34013485
:10092000AD340134AE340134AF340134B034013469
:10093000B1340134B2340134B2340134B33401344B
:10094000B4340134B5340134B6340134B63401342E
:10095000B7340134B8340134B9340134BA34013411
:10096000BB340134BB340134BC340134BD340134F4
:10097000BE340134BF340134BF340134C0340134D7
:10098000C1340134C2340134C3340134C4340134B9
:10099000C4340134C5340134C6340134C73401349D
:1009A000C8340134C9340134C9340134CA3401347F
:1009B000CB340134CC340134CD340134CD34013462
:1009C000CE340134CF340134D0340134D134013445
:1009D000D2340134D2340134D3340134D434013428
:1009E000D5340134D6340134D6340134D73401340B
:1009F000D8340134D9340134DA340134DB340134ED
:100A0000DB340134DC340134DD340134DE340134D0
:100A1000DF340134E0340134E0340134E1340134B2
:100A2000E2340134E3340134E4340134E434013495
:100A3000E5340134E6340134E7340134E834013478
:100A4000E9340134E9340134EA340134EB3401345B
:100A5000EC340134ED340134ED340134EE3401343E
:100A6000EF340134F0340134F1340134F234013420
:100A7000F2340134F3340134F4340134F534013404
:100A8000F6340134F6340134F7340134F8340134E7
:100A9000F9340134FA340134FB340134FB340134C9
:100AA000FC340134FD340134FE340134FF340134AC
:100AB000003402340034023401340234023402348B
:100AC000033402340434023404340234053402346E
:100AD0000634023407340234083402340934023450
:100AE000093402340A3402340B3402340C34023434
:100AF0000D3402340D3402340E3402340F34023417
:100B000010340234113402341234023412340234F8
:100B100013340234143402341534023416340234DB
:100B200017340234173402341834023419340234BE
:100B30001A3402341B3402341B3402341C340234A1
:100B40001D3402341E3402341F3402342034023483
:100B50002034023421340234223402342334023467
:100B6000243402342434023425340234263402344A
:100B7000273402342834023429340234293402342C
:100B80002A3402342B3402342C3402342D3402340F
:100B90002E3402342E3402342F34023430340234F2
:100BA00031340234323402343234023433340234D5
:100BB00034340234353402343634023437340234B7
:100BC0003734023438340234393402343A3402349B
:100BD0003B3402343B3402343C3402343D3402347E
:100BE0003E3402343F340234403402344034023460
:100BF0004134023442340234433402344434023443
:100C00004434023445340234463402344734023426
:100C10004834023449340234493402344A34023408
:100C20004B3402344C3402344D3402344E340234EA
:100C30004E3402344F3402345034023451340234CE
:100C400052340234523402345334023454340234B1
:100C50005534023456340234573402345734023493
:100C600058340234593402345A3402345B34023476
:100C70005B3402345C3402345D3402345E3402345A
:100C80005F3402346034023460340234613402343C
:100C9000623402346334023464340234653402341E
:100CA0006534023466340234673402346834023402
:100CB00069340234693402346A3402346B340234E5
:100CC0006C3402346D3402346E3402346E340234C7
:100CD0006F340234703402347134023472340234AA
:100CE000723402347334023474340234753402348E
:100CF0007634023477340234773402347834023470
:100D0000793402347A3402347B3402347C34023451
:100D10007C3402347D3402347E3402347F34023435
:100D20008034023480340234813402348234023418
:100D300083340234843402348534023485340234FA
:100D400086340234873402348834023489340234DD
:100D5000893402348A3402348B3402348C340234C1
:100D60008D3402348E3402348E3402348F340234A3
:100D70009034023491340234923402349234023486
:100D80009334023494340234953402349634023469
:100D9000973402349734023498340234993402344C
:100DA0009A3402349B3402349C3402349C3402342E
:100DB0009D3402349E3402349F340234A034023411
:100DC000A0340234A1340234A2340234A3340234F5
:100DD000A4340234A5340234A5340234A6340234D7
:100DE000A7340234A8340234A9340234A9340234BA
:100DF000AA340234AB340234AC340234AD3402349D
:100E0000AE340234AE340234AF340234B03402347F
:100E1000B1340234B2340234B3340234B334023461
:100E2000B4340234B5340234B6340234B734023444
:100E3000B7340234B8340234B9340234BA34023428
:100E4000BB340234BC340234BC340234BD3402340A
:100E5000BE340234BF340234C0340234C0340234ED
:100E6000C1340234C2340234C3340234C4340234D0
:100E7000C5340234C5340234C6340234C7340234B3
:100E8000C8340234C9340234CA340234CA34023495
:100E9000CB340234CC340234CD340234CE34023478
:100EA000CE340234CF340234D0340234D13402345C
:100EB000D2340234D3340234D3340234D43402343E
:100EC000D5340234D6340234D7340234D734023421
:100ED000D8340234D9340234DA340234DB34023404
:100EE000DC340234DC340234DD340234DE340234E7
:100EF000DF340234E0340234E1340234E1340234C9
:100F0000E2340234E3340234E4340234E5340234AB
:100F1000E5340234E6340234E7340234E83402348F
:100F2000E9340234EA340234EA340234EB34023471
:100F3000EC340234ED340234EE340234EE34023454
:100F4000EF340234F0340234F1340234F234023437
:100F5000F3340234F3340234F4340234F53402341A
:100F6000F6340234F7340234F7340234F8340234FD
:100F7000F9340234FA340234FB340234FC340234DF
:100F8000FC340234FD340234FE340234FF340234C3
:100F900000340334013403340134033402340334A1
:100FA0000334033404340334053403340534033484
:100FB0000634033407340334083403340934033467
:100FC0000A3403340A3403340B3403340C3403344A
:100FD0000D3403340E3403340E3403340F3403342D
:100FE000103403341134033412340334133403340F
:100FF00013340334143403341534033416340334F3
:1010000017340334183403341834033419340334D4
:101010001A3403341B3403341C3403341C340334B7
:101020001D3403341E3403341F340334203403349A
:10103000213403342134033422340334233403347D
:101040002434033425340334253403342634033460
:101050002734033428340334293403342A34033442
:101060002A3403342B3403342C3403342D34033426
:101070002E3403342F3403342F3403343034033408
:1010800031340334323403343334033433340334EB
:1010900034340334353403343634033437340334CE
:1010A0003834033438340334393403343A340334B1
:1010B0003B3403343C3403343C3403343D34033494
:1010C0003E3403343F340334403403344134033476
:1010D000413403344234033443340334443403345A
:1010E000453403344534033446340334473403343D
:1010F0004834033408002000111021006F08F1006B
:101100006E08F0009731F127883197319327080056
:101110002000CD004D08CC00CC0DCC0D21001D08C9
:1011200020004C0683394C0621009D001D14080048
:10113000013021009D00E0309E0050309F009B0157
:101140009C011117DE302000CC001630CD00973105
:10115000412708007C3020009B009A01911021005B
:1011600091147A302000CC000830CD0097317727D9
:10117000063020009C0008007108F3007008F2009F
:10118000F336F20CF336F20C72082C00980070085B
:101190000339F2000530F235FF3E031DCB287235CE
:1011A0009700080020002908031D08000930CC0022
:1011B0001730CD0097316E2788316D302000CC007C
:1011C0000930CD00973165272000A901A90A080040
:1011D00023001908F00020003B08483E860001303B
:1011E0008700700881000130F0007008BB070830EC
:1011F0003B020318BB010130F0007008B90708007A
:10120000200099013C309700B0309600111017086B
:101210002100EF00200016082100EE001114E0303C
:101220002000CC001630CD0097316E2731302000E1
:10123000980008008931CD218931973139278931CA
:101240009631F42689318831982089319731892760
:1012500089319731A92789318831AA20893189318B
:10126000002189318A312822080020004C0A031904
:101270004D0A0319080027304D02113003194C02A2
:10128000031C4829FA302100EA000030EB00080076
:101290004D082100EB0020004C082100EA00080066
:1012A00020004C0A03194D0A0319080003304D02AF
:1012B000203003194C02031C65294E088600870163
:1012C0002030C03F0330C13F08004E088600870130
:1012D0004C08C03F4D08C13F080023001908F0002A
:1012E0007008F10020006408031D08002C03FF3A79
:1012F000F0007008AA0020302B02031808007108C3
:10130000F0002B08203E8600013087007008810025
:101310000130F0007008AB07080000308B1B013073
:101320002000CE008B134C082300910020004D08B4
:1013300023009200151315140000000020004E0C2D
:10134000031C8B1303188B17230014082000CD00F7
:10135000230013082000CC00080000308B1B013054
:101360002000CE008B134C082300910020004D0874
:101370002300920015131516151555309600AA3046
:1013800096009514000000002300151120004E0C5B
:10139000031C8B1303188B17080022008C010130EB
:1013A0008E00073021008C0018308E00183023008A
:1013B0008E0003308C0024008C018E0121009517D3
:1013C00025008C018E01373026008C003F308E00C6
:1013D0003F3027008C003F308E0014303D00A000CD
:1013E00002303C00A4000E303D00A1000E30A200EF
:1013F00008000030FB000030FA000030F900003037
:10140000F800701C0B2A7408F8077508F93D760877
:10141000FA3D7708FB3D0130F435F50DF60DF70D7B
:10142000890B0C2A0130F336F20CF10CF00C890B0D
:10143000132A7308720471047004031D012A7B08C7
:10144000F3007A08F2007908F1007808F00008004B
:1014500021009112C4302000CC000A30CD00973119
:1014600065278A31083023009F0090309D0024308A
:101470009E0022309B009C01DF302000CC00163003
:10148000CD00973153278A31F0302000CC00163040
:10149000CD0097315C278A31E1302000CC00163036
:1014A000CD0097314A272000B801BB01BA01B9012C
:1014B00021009116080020002E03031908002100C6
:1014C0008C120C122000A401A501A001A101A2010F
:1014D000A3010730883188208A3106302000CE00F1
:1014E0003030890B712ACE0B712A00009631E72625
:1014F0008A319631EA268A312000AE01AE0A503098
:10150000CC000B30CD00973177278A31AE302000E8
:10151000CC000C30CD0097314127080020002E036D
:10152000031D972ABC302100A0000A309B2ABA3044
:101530002100A0000C30A100200043082100A300DE
:10154000200042082100A200200041082100A5003F
:10155000200040082100A40020003F082100A7002F
:1015600020003E082100A6006B08A9006A08A80018
:1015700000302000CF001F30D000A030D900590823
:10158000D1008B31A923080020003B08403E860093
:1015900001308700810123001D1DDB2A20003B084C
:1015A000403E8600013087008114220068088A00CE
:1015B00067080A008A3123009D1CEB2A20003B08A3
:1015C000403E8600013087000115220066088A002F
:1015D00065080A008A3120003B08403E8600013041
:1015E000870001080319FB2A220064088A006308A7
:1015F0000A008A3108008831E82008000030FC0029
:101600000030FB000030FA000030F900730872046B
:10161000710470040319472BFD01FD0AF31B1C2BF9
:101620000130F035F10DF20DF30D890B112B013066
:10163000F8007808FD070E2B0130F935FA0DFB0D87
:10164000FC0D890B1D2B73087702031D312B7208CB
:101650007602031D312B71087502031D312B7008B2
:101660007402031C3C2B7008F4027108F53B7208ED
:10167000F63B7308F73B79140130F336F20CF10CAA
:10168000F00C890B3D2B0130FD02031D1C2B7C0847
:10169000F3007B08F2007A08F1007908F0000800F6
:1016A000013020002102903003192002031C632B1B
:1016B000031022008E1E0314031C612B22008E16C1
:1016C000632B22008E12200021082302031D6A2BA7
:1016D000200822020318832B22082002F40023088A
:1016E000213BF50075086302031D782B7408620224
:1016F00003187F2B6208A0026308A13B832B2308F9
:10170000A1002208A00023082102031D892B220822
:1017100020020318A22B20082202F4002108233BF8
:10172000F50075086302031D972B74086202031805
:101730009E2B6208A0076308A13DA22B2308A100ED
:101740002208A0002108F1002008F0008831BC2008
:101750000800E03020004F05D5001F305005D600AE
:1017600000308B1B0130D70056085006031DBA2BE2
:1017700055084F06031D08008B135008CD004F0875
:10178000CC008931AD218B31230015131515951629
:101790002000D8014F0823009100200050082300AA
:1017A0009200200058355107D20052088600870168
:1017B000010823009300200058355107D200520839
:1017C00086008701403FD300413FD40054082300E6
:1017D00094001F3020005806031DF02B23009512A3
:1017E000553023009600AA309600951400000000A2
:1017F00001302000CF070030D03D640001302000D0
:10180000D2005208D80720305802031CCA2B2300EC
:1018100015112000570C031C8B1303188B1708009D
:1018200089311A218C3100302000CC001F30CD00CE
:1018300089318D218C3120004D08DF004C08DE00FD
:10184000BC305E060A3003195F0603192E2CBA302D
:101850005E060C3003195F06031DA42C0130CC007A
:101860001F30CD0089318D218C3120004D08E100E1
:101870004C08E000033061022130031960020318B4
:10188000482C6108D0006008CF009731CC278C31FC
:1018900002302000CC001F30CD0089318D218C31E9
:1018A00020004D08E1004C08E000033061022130C7
:1018B000031960020318632C6108D0006008CF0090
:1018C0009731C0278C3103302000CC001F30CD0071
:1018D00089318D218C3120004D08E1004C08E00059
:1018E0000330610221300319600203187E2C610865
:1018F000D0006008CF009731B4278C31043020002D
:10190000CC001F30CD0089318D218C3120004D0855
:10191000E1004C08E0002730610211300319600239
:101920000318992C6108CD006008CC00893135215D
:101930008C31BC3020005E060A3003195F06031D9F
:10194000A42C8A315B228C318B170B178831D22063
:101950008C318D31E1258C316400A92C20003D08AB
:101960002100E10020003C082100E0009631FD2626
:101970008C31FF3070052000C40003307105C500B4
:10198000C435C50D7A30440784008030453D85005C
:10199000003FBC00013FBD002E08031908002100D4
:1019A000600820003C022200D600210061082000CF
:1019B0003D3B2200D70020003D0821006102031DAD
:1019C000E52C20003C08210060020318EB2C2000CD
:1019D000AF01AF0AED2C2000AF013D083F02031D0F
:1019E000F32C3C083E0203180B2D8F30F000013021
:1019F000F1008831BC208C318F302000A0000130F4
:101A0000A1008F30A2000130A3008F302000A4007D
:101A10000130A500D92D41083D02031D112D4008BC
:101A20003C02031C172D22000C168C12052D4308B6
:101A30003D02031D1D2D42083C02031CB02D220057
:101A40000C168C1620002F03031D8A2D42083C0221
:101A5000F00043083D3BF100F201F3010030F700D4
:101A60000030F6000130F5008F30F4008931F921A3
:101A70008C3173082000CB007208CA007108C900BD
:101A80007008C80042084002F0004308413BF100E2
:101A9000F201F3014B08F7004A08F6004908F50087
:101AA0004808F4008A31FE228C3173082000CB00F4
:101AB0007208CA007108C9007008C8004B08031DED
:101AC0006A2D4A08031D6A2D903048020130493BB7
:101AD000031C6F2D8F30A4000130A500AC2D24080D
:101AE000C4002508C500C601C7014B084702031DF5
:101AF000832D4A084602031D832D49084502031D14
:101B0000832D480844020318AC2D4908A500480855
:101B1000A400AC2D21006B0822005302031D942D5C
:101B200021006A0822005202031CA82DD201D30111
:101B300021006C082000A40721006D082000A53DAD
:101B40000130250290300319240203186A2DAC2DB0
:101B50000130D2070030D33D2200D001D101D92D70
:101B600022000C128C166C085102031DB92D6B0853
:101B70005002031CD52DD001D101200025082100E1
:101B80006902031DC72D20002408210068020318E4
:101B9000D12D68082000A402210069082000A53B7F
:101BA000D92D2000A401A501D92D0130D007003086
:101BB000D13D20002508F1002408F00097310327CB
:101BC000080020002908031908002903031DF32D2C
:101BD0002C03FF3ADA005A08AA00E4010230DA00C6
:101BE0005A08A900080002302906031D042E2A08FD
:101BF0002C07DA0003305A02031C0800AB01033043
:101C0000DA005A08A900080003302906031D572EE0
:101C10002B08031908002A082C07DA0003305A029F
:101C2000031C0800E401E40A220020082000DA0076
:101C30005A082300B000B401B40A20002B08230086
:101C400034020318352E3408203E86000130870008
:101C500001082000DA005A082300B00601302000F5
:101C6000DA005A082300B4071D2E3008031D4E2E3B
:101C7000AA30220020060319452E553020060319EC
:101C8000452EA5302006031D4E2E0B3020002B06BE
:101C90000319522E02302B060319522E2000AB01DD
:101CA000E40108000430DA005A08A90008000430F2
:101CB0002906031DE62FAA3022002006031D1A2F35
:101CC0000B3020002B06031D1A2F220021082000B4
:101CD000DA00DB015A082300B80020005B0823006B
:101CE000B900220022082000DA00DB0123003808B6
:101CF0002000DD00DC015A085C042300B80020004D
:101D00005B085D042300B90039082000D0002300DF
:101D100038082000CF009731CC278D3122002308CE
:101D20002000DA00DB015A082300B80020005B081D
:101D30002300B900220024082000DA00DB01230080
:101D400038082000DD00DC015A085C042300B800DC
:101D500020005B085D042300B90039082000D00092
:101D6000230038082000CF009731C0278D31220092
:101D700025082000DA00DB015A082300B800200003
:101D80005B082300B900220026082000DA00DB01EE
:101D9000230038082000DD00DC015A085C04230021
:101DA000B80020005B085D042300B900390820005A
:101DB000D000230038082000CF009731B4278D31A0
:101DC000220027082000DA00DB015A082300B800AF
:101DD00020005B082300B900220028082000DA0058
:101DE000DB01230038082000DD00DC015A085C0418
:101DF0002300B80020005B085D042300B900390807
:101E00002000CD00230038082000CC008931352186
:101E10008D3122002908031D112F9731D8278D31CC
:101E2000142F8A315B228D318A318E222000A90144
:101E3000A90A0800553022002006031DBA2F0230DF
:101E400020002B06031DBA2F973121278D3120004A
:101E50004D082300B70020004C082300B6003708C7
:101E60002000DA005A082200A100230036082000D2
:101E7000DA005A082200A20097311B278D3120007A
:101E80004D082300B70020004C082300B600370897
:101E90002000DA005A082200A300230036082000A0
:101EA000DA005A082200A400973115278D3120004E
:101EB0004D082300B70020004C082300B600370867
:101EC0002000DA005A082200A5002300360820006E
:101ED000DA005A082200A600973180278D312000B1
:101EE0004D082300B70020004C082300B600370837
:101EF0002000DA005A082200A7002300360820003C
:101F0000DA005A082200A8009631E4268D3120001C
:101F1000DA005A082200A90020082000DA005A0836
:101F20002300B100B501B50A3508203E8600013016
:101F3000870001082000DA005A082300B1060130AA
:101F40002000DA005A082300B5070A303502031CC6
:101F5000942F31082000DA005A082200AA000B3022
:101F60002000DA005A08AB00A8010530DA005A0850
:101F7000A9000800A53022002006031D162F0230FC
:101F800020002B06031D162F97310F278D312000BF
:101F90004D082300B30020004C082300B200330892
:101FA0002000DA005A082200A10023003208200095
:101FB000DA005A082200A20021082206200620008A
:101FC000DA005A082200A3000430B02F0530290699
:101FD000031D080023009E1C080020002B08280277
:101FE0000318162F2808203E8600013087000108BC
:101FF00023009A0001302000DA005A08A8070800E0
:10200000203420344E344E344E344E343A3420345E
:102010006E3475346D346234653472342034663411
:1020200072346F346D3420343034203474346F346F
:10203000203439343934393439340D340A340D34D8
:102040000A3400344534523452344F3452343A3422
:10205000203469346E34763461346C3469346434D9
:102060002034733479346E347434613478342E34DB
:102070000D340A3400342034203449343A342034C6
:102080007034723469346E34743420347334793477
:102090007334743465346D34203449344E344634EA
:1020A0004F340D340A340034203420343F343A3471
:1020B00020347034723469346E347434203474349F
:1020C000683469347334203473346334723465345F
:1020D00065346E340D340A340034203420344834EE
:1020E0003A342034733465347434203448344934F9
:1020F00047344834203476346F346C34743461346B
:10210000673465340D340A3400340D340A340D3428
:102110000A342D342D342D342D342D342D342D34DA
:102120002D342D342D342D342D342D342D342D34A7
:102130002D340D340A340034203420344C343A34F5
:10214000203473346534743420344C344F34573471
:10215000203476346F346C347434613467346534CD
:102160000D340A3400344534723472346F347234AE
:102170003A34203469346E34763461346C346934E2
:10218000643420346134723467342E340D340A34AC
:1021900000344534723472346F3472343A3420343B
:1021A00069346E34763461346C3469346434203488
:1021B00063346F346D342E340D340A3400344134BA
:1021C0007634613469346C34613462346C3465342F
:1021D000203443346F346D346D3461346E34643480
:1021E00073343A340D340A340034203420345434F7
:1021F0003A342034733465347434203464346534B0
:102200006C34613479342034543449344D34453499
:102210000D340A34003420342034483465346C34AE
:1022200070342034533463347234653465346E341E
:102230000D340A340D340A340034533479346E3496
:102240007434613478343A34203443344E344E3468
:102250004E344E340D340A340034203420344334A8
:102260003A34203463346F346D346D3461346E34F9
:0822700064340D340A3400341B
:102DBC000800080008008831E820080020002E08D0
:102DCC00080021009D14080020001C150800283460
:102DDC000034013423001D121D160800163021008A
:102DEC00970008002000911097319E2708002100C1
:102DFC001C08F1001B08F000080071082000A3005B
:102E0C007008A20008000130F00070082000AC0728
:102E1C00080020003D08CD003C08CC000800200034
:102E2C003F08CD003E08CC00080020004108CD0032
:102E3C004008CC00080020004308CD004208CC001C
:102E4C000800640080010131890B282F0034FE003A
:102E5C0012001E00FE0B2E2F003405340034F43407
:102E6C000134C83400347A30210099009A01980159
:102E7C0022009601080020004D082200E0002000EE
:102E8C004C082200DF00080020004D082200E4005E
:102E9C0020004C082200E300080020004D0822000E
:102EAC00E80020004C082200E700080020004D0834
:102EBC002200E60020004C082200E500080020005B
:102ECC004D082200EA0020004C082200E90008000E
:102EDC0020004D082200DE0020004C082200DD00FE
:102EEC00080020004D082200E20020004C082200BF
:102EFC00E100080021006B082000CD0021006A08C9
:102F0C002000CC00080063302800960095012000BA
:102F1C009210053028009700080022005D085E041E
:102F2C00031908005E088A005D080A009731080042
:102F3C002200610862040319080062088A00610813
:102F4C000A009731080080302C00990098019701F5
:102F5C0025001E08CF3910389E00080020005008AC
:102F6C00CD004F08CC003E30D1005108CE00893145
:102F7C005021080020005008CD004F08CC004030F4
:102F8C00D1005108CE008931502108002000500892
:102F9C00CD004F08CC004230D1005108CE00893111
:102FAC005021080020002E080319080021008C165F
:102FBC000C162000A201A301AE0108002000111381
:102FCC0022005F0860040319080060088A005F088B
:102FDC000A00973108002000181DFB2F18107108EB
:102FEC009700700896001814080071089700700874
:102FFC00960008002034203448343A34203400340D
:10300C00203420344C343A342034003420342034EE
:10301C0054343A34203400344F344B340D340A34A5
:0C302C0000343E343E34203420340034A4
:020000040001F9
:04000E00FCFFFFFEF6
:00000001FF
