:020000040000FA
:1000000080313428080002347E14803164000B1FD4
:1000100032282100111F13282000111F13289331AB
:100020009823803132282100911E20282000911E23
:100030002028230053088A0052080A008031322801
:100040002100911C2A282000911C2A289231AB22E1
:10005000803132282100111C32282000111C322846
:100060009331A4237E10090080313628A830840003
:10007000923085005E308600003087000330923178
:10008000EB2280312100803103208031EF00573096
:100090008400933085005D308600013087000A308F
:1000A0009231EB22803120308400003085002330F3
:1000B0009231E5228031E4308400003085000B303D
:1000C0009231E522803120308400013085003D30BE
:1000D0009231E5228031A0308400013085001D304E
:1000E0009231E5227E1020009531122D003400342B
:1000F0000134003402340034023400340334003458
:100100000434003405340034063400340734003439
:100110000734003408340034093400340A3400341D
:100120000B3400340B3400340C3400340D34003400
:100130000E3400340F3400341034003410340034E2
:1001400011340034123400341334003414340034C5
:1001500015340034153400341634003417340034A8
:100160001834003419340034193400341A3400348B
:100170001B3400341C3400341D3400341E3400346D
:100180001E3400341F340034203400342134003451
:100190002234003422340034233400342434003434
:1001A0002534003426340034273400342734003416
:1001B00028340034293400342A3400342B340034F9
:1001C0002C3400342C3400342D3400342E340034DC
:1001D0002F340034303400343034003431340034BF
:1001E00032340034333400343434003435340034A1
:1001F0003534003436340034373400343834003485
:1002000039340034393400343A3400343B34003467
:100210003C3400343D3400343E3400343E34003449
:100220003F3400344034003441340034423400342C
:10023000433400344334003444340034453400340F
:1002400046340034473400344734003448340034F2
:10025000493400344A3400344B3400344C340034D4
:100260004C3400344D3400344E3400344F340034B8
:10027000503400345034003451340034523400349B
:10028000533400345434003455340034553400347D
:100290005634003457340034583400345934003460
:1002A000593400345A3400345B3400345C34003444
:1002B0005D3400345E3400345E3400345F34003426
:1002C0006034003461340034623400346334003408
:1002D00063340034643400346534003466340034EC
:1002E00067340034673400346834003469340034CF
:1002F0006A3400346B3400346C3400346C340034B1
:100300006D3400346E3400346F3400347034003493
:100310007034003471340034723400347334003477
:100320007434003475340034753400347634003459
:100330007734003478340034793400347A3400343B
:100340007A3400347B3400347C3400347D3400341F
:100350007E3400347E3400347F3400348034003402
:1003600081340034823400348334003483340034E4
:1003700084340034853400348634003487340034C7
:100380008734003488340034893400348A340034AB
:100390008B3400348C3400348C3400348D3400348D
:1003A0008E3400348F34003490340034913400346F
:1003B0009134003492340034933400349434003453
:1003C0009534003495340034963400349734003436
:1003D00098340034993400349A3400349A34003418
:1003E0009B3400349C3400349D3400349E340034FB
:1003F0009E3400349F340034A0340034A1340034DF
:10040000A2340034A3340034A3340034A4340034C0
:10041000A5340034A6340034A7340034A7340034A3
:10042000A8340034A9340034AA340034AB34003486
:10043000AC340034AC340034AD340034AE34003469
:10044000AF340034B0340034B1340034B13400344B
:10045000B2340034B3340034B4340034B53400342E
:10046000B5340034B6340034B7340034B834003412
:10047000B9340034BA340034BA340034BB340034F4
:10048000BC340034BD340034BE340034BE340034D7
:10049000BF340034C0340034C1340034C2340034BA
:1004A000C3340034C3340034C4340034C53400349D
:1004B000C6340034C7340034C8340034C83400347F
:1004C000C9340034CA340034CB340034CC34003462
:1004D000CC340034CD340034CE340034CF34003446
:1004E000D0340034D1340034D1340034D234003428
:1004F000D3340034D4340034D5340034D53400340B
:10050000D6340034D7340034D8340034D9340034ED
:10051000DA340034DA340034DB340034DC340034D0
:10052000DD340034DE340034DF340034DF340034B2
:10053000E0340034E1340034E2340034E334003495
:10054000E3340034E4340034E5340034E634003479
:10055000E7340034E8340034E8340034E93400345B
:10056000EA340034EB340034EC340034EC3400343E
:10057000ED340034EE340034EF340034F034003421
:10058000F1340034F1340034F2340034F334003404
:10059000F4340034F5340034F6340034F6340034E6
:1005A000F7340034F8340034F9340034FA340034C9
:1005B000FA340034FB340034FC340034FD340034AD
:1005C000FE340034FF340034FF340034003401348E
:1005D000013401340234013403340134033401346E
:1005E0000434013405340134063401340734013451
:1005F0000834013408340134093401340A34013434
:100600000B3401340C3401340C3401340D34013416
:100610000E3401340F3401341034013411340134F8
:1006200011340134123401341334013414340134DC
:1006300015340134163401341634013417340134BE
:1006400018340134193401341A3401341A340134A1
:100650001B3401341C3401341D3401341E34013484
:100660001F3401341F340134203401342134013467
:10067000223401342334013423340134243401344A
:10068000253401342634013427340134283401342C
:1006900028340134293401342A3401342B34013410
:1006A0002C3401342D3401342D3401342E340134F2
:1006B0002F340134303401343134013431340134D5
:1006C00032340134333401343434013435340134B8
:1006D000363401343634013437340134383401349B
:1006E000393401343A3401343A3401343B3401347E
:1006F0003C3401343D3401343E3401343F34013460
:100700003F34013440340134413401344234013443
:100710004334013444340134443401344534013425
:100720004634013447340134483401344834013408
:10073000493401344A3401344B3401344C340134EB
:100740004D3401344D3401344E3401344F340134CE
:1007500050340134513401345134013452340134B1
:100760005334013454340134553401345634013493
:100770005634013457340134583401345934013477
:100780005A3401345A3401345B3401345C3401345A
:100790005D3401345E3401345F3401345F3401343C
:1007A000603401346134013462340134633401341F
:1007B0006434013464340134653401346634013402
:1007C00067340134683401346834013469340134E5
:1007D0006A3401346B3401346C3401346D340134C7
:1007E0006D3401346E3401346F34013470340134AB
:1007F000713401347134013472340134733401348E
:10080000743401347534013476340134763401346F
:100810007734013478340134793401347A34013452
:100820007B3401347B3401347C3401347D34013435
:100830007E3401347F3401347F3401348034013418
:1008400081340134823401348334013484340134FA
:1008500084340134853401348634013487340134DE
:100860008834013488340134893401348A340134C1
:100870008B3401348C3401348D3401348D340134A3
:100880008E3401348F340134903401349134013486
:100890009234013492340134933401349434013469
:1008A000953401349634013496340134973401344C
:1008B00098340134993401349A3401349B3401342E
:1008C0009B3401349C3401349D3401349E34013412
:1008D0009F3401349F340134A0340134A1340134F5
:1008E000A2340134A3340134A4340134A4340134D7
:1008F000A5340134A6340134A7340134A8340134BA
:10090000A8340134A9340134AA340134AB3401349D
:10091000AC340134AD340134AD340134AE3401347F
:10092000AF340134B0340134B1340134B234013461
:10093000B2340134B3340134B4340134B534013445
:10094000B6340134B6340134B7340134B834013428
:10095000B9340134BA340134BB340134BB3401340A
:10096000BC340134BD340134BE340134BF340134ED
:10097000BF340134C0340134C1340134C2340134D1
:10098000C3340134C4340134C4340134C5340134B3
:10099000C6340134C7340134C8340134C934013495
:1009A000C9340134CA340134CB340134CC34013479
:1009B000CD340134CD340134CE340134CF3401345C
:1009C000D0340134D1340134D2340134D23401343E
:1009D000D3340134D4340134D5340134D634013421
:1009E000D6340134D7340134D8340134D934013405
:1009F000DA340134DB340134DB340134DC340134E7
:100A0000DD340134DE340134DF340134E0340134C8
:100A1000E0340134E1340134E2340134E3340134AC
:100A2000E4340134E4340134E5340134E63401348F
:100A3000E7340134E8340134E9340134E934013471
:100A4000EA340134EB340134EC340134ED34013454
:100A5000ED340134EE340134EF340134F034013438
:100A6000F1340134F2340134F2340134F33401341A
:100A7000F4340134F5340134F6340134F6340134FD
:100A8000F7340134F8340134F9340134FA340134E0
:100A9000FB340134FB340134FC340134FD340134C3
:100AA000FE340134FF3401340034023400340234A3
:100AB0000134023402340234033402340434023484
:100AC0000434023405340234063402340734023468
:100AD0000834023409340234093402340A3402344A
:100AE0000B3402340C3402340D3402340D3402342D
:100AF0000E3402340F340234103402341134023410
:100B000012340234123402341334023414340234F2
:100B100015340234163402341734023417340234D4
:100B200018340234193402341A3402341B340234B7
:100B30001B3402341C3402341D3402341E3402349B
:100B40001F3402342034023420340234213402347D
:100B50002234023423340234243402342434023460
:100B60002534023426340234273402342834023443
:100B700029340234293402342A3402342B34023426
:100B80002C3402342D3402342E3402342E34023408
:100B90002F340234303402343134023432340234EB
:100BA00032340234333402343434023435340234CF
:100BB00036340234373402343734023438340234B1
:100BC000393402343A3402343B3402343B34023494
:100BD0003C3402343D3402343E3402343F34023477
:100BE000403402344034023441340234423402345A
:100BF000433402344434023444340234453402343D
:100C0000463402344734023448340234493402341E
:100C1000493402344A3402344B3402344C34023402
:100C20004D3402344E3402344E3402344F340234E4
:100C300050340234513402345234023452340234C7
:100C400053340234543402345534023456340234AA
:100C5000573402345734023458340234593402348D
:100C60005A3402345B3402345B3402345C34023470
:100C70005D3402345E3402345F3402346034023452
:100C80006034023461340234623402346334023436
:100C90006434023465340234653402346634023418
:100CA00067340234683402346934023469340234FB
:100CB0006A3402346B3402346C3402346D340234DE
:100CC0006E3402346E3402346F34023470340234C1
:100CD00071340234723402347234023473340234A4
:100CE0007434023475340234763402347734023486
:100CF0007734023478340234793402347A3402346A
:100D00007B3402347C3402347C3402347D3402344B
:100D10007E3402347F34023480340234803402342E
:100D20008134023482340234833402348434023411
:100D300085340234853402348634023487340234F4
:100D40008834023489340234893402348A340234D7
:100D50008B3402348C3402348D3402348E340234B9
:100D60008E3402348F34023490340234913402349D
:100D70009234023492340234933402349434023480
:100D80009534023496340234973402349734023462
:100D900098340234993402349A3402349B34023445
:100DA0009C3402349C3402349D3402349E34023428
:100DB0009F340234A0340234A0340234A13402340B
:100DC000A2340234A3340234A4340234A5340234ED
:100DD000A5340234A6340234A7340234A8340234D1
:100DE000A9340234A9340234AA340234AB340234B4
:100DF000AC340234AD340234AE340234AE34023496
:100E0000AF340234B0340234B1340234B234023478
:100E1000B3340234B3340234B4340234B53402345B
:100E2000B6340234B7340234B7340234B83402343E
:100E3000B9340234BA340234BB340234BC34023420
:100E4000BC340234BD340234BE340234BF34023404
:100E5000C0340234C0340234C1340234C2340234E7
:100E6000C3340234C4340234C5340234C5340234C9
:100E7000C6340234C7340234C8340234C9340234AC
:100E8000CA340234CA340234CB340234CC3402348F
:100E9000CD340234CE340234CE340234CF34023472
:100EA000D0340234D1340234D2340234D334023454
:100EB000D3340234D4340234D5340234D634023438
:100EC000D7340234D7340234D8340234D93402341B
:100ED000DA340234DB340234DC340234DC340234FD
:100EE000DD340234DE340234DF340234E0340234E0
:100EF000E1340234E1340234E2340234E3340234C3
:100F0000E4340234E5340234E5340234E6340234A5
:100F1000E7340234E8340234E9340234EA34023487
:100F2000EA340234EB340234EC340234ED3402346B
:100F3000EE340234EE340234EF340234F03402344E
:100F4000F1340234F2340234F3340234F334023430
:100F5000F4340234F5340234F6340234F734023413
:100F6000F7340234F8340234F9340234FA340234F7
:100F7000FB340234FC340234FC340234FD340234D9
:100F8000FE340234FF3402340034033401340334B9
:100F9000013403340234033403340334043403349B
:100FA000053403340534033406340334073403347E
:100FB00008340334093403340A3403340A34033460
:100FC0000B3403340C3403340D3403340E34033443
:100FD0000E3403340F340334103403341134033427
:100FE0001234033413340334133403341434033409
:100FF00015340334163403341734033418340334EB
:1010000018340334193403341A3403341B340334CE
:101010001C3403341C3403341D3403341E340334B1
:101020001F34033420340334213403342134033493
:101030002234033423340334243403342534033476
:10104000253403342634033427340334283403345A
:10105000293403342A3403342A3403342B3403343C
:101060002C3403342D3403342E3403342F3403341E
:101070002F34033430340334313403343234033402
:1010800033340334333403343434033435340334E5
:1010900036340334373403343834033438340334C7
:1010A000393403343A3403343B3403343C340334AA
:1010B0003C3403343D3403343E3403343F3403348E
:1010C0004034033441340334413403344234033470
:1010D0004334033444340334453403344534033453
:1010E00046340334473403344834033408000800DA
:1010F0003E3020009B009A0191102100911477301E
:101100002000CC000830CD009231F92207302000B9
:101110009C000800E0304F05D5001F305005D60078
:1011200000308B1B0130D70056085006031D9A284B
:1011300055084F06031D08008B135008CD004F08BB
:10114000CC0095316C2588312300151315159516A3
:101150002000D8014F0823009100200050082300F0
:101160009200200058355107D200520886008701AE
:10117000010823009300200058355107D20052087F
:1011800086008701403FD300413FD400540823002C
:1011900094001F3020005806031DD028230095120C
:1011A000553023009600AA309600951400000000E8
:1011B00001302000CF070030D03D64000130200016
:1011C000D2005208D80720305802031CAA28230056
:1011D00015112000570C031C8B1303188B170800E4
:1011E00020003403031DF928BC302100A0000A3080
:1011F000FD28BA302100A0000C30A10020004208D8
:101200002100A300200041082100A2002000400886
:101210002100A50020003F082100A40020003E0876
:101220002100A70020003D082100A60094311B24C6
:10123000883153082100A900200052082100A8008D
:101240009231CD2288314D082100AB0020004C089E
:101250002100AA009331312388314D082100AD00CF
:1012600020004C082100AC009331F92388314F084D
:101270002100E30020004E082100E20020004D087C
:101280002100E10020004C082100E0006308AF00CD
:101290006208AE006108B1006008B00000302000B4
:1012A000CF001F30D000A030D9005908D1008831BC
:1012B0008A20080020002B08031908002B03031DB7
:1012C0007B2922005D0A031D73295E0A031D732911
:1012D000E8302000D4000330D500963188268931CB
:1012E0008831F020893192319F2202302000DA00CB
:1012F0005A08AB00080002302B06031D8F299231DB
:10130000BD2289314D082102031D88294C08200285
:10131000031808000330DA005A08AB000800033055
:101320002B06031DB3299231BD22893121084D02BC
:10133000031D9C2920084C02031808009231A222A8
:101340000130C8070030C93D0030CA3D0030CB3DF8
:1013500020003603FF3ADA005A08AA000430DA0007
:101360005A08AB00080004302B06031DCD292A08BB
:101370003607DA0022005D0820005A02031C08002C
:1013800092319F2220003603FF3ADA005A08AA0061
:101390000530DA005A08AB00080005302B06031DA3
:1013A00008002A083607DA0032305A02031C080007
:1013B00075292300BF0100302000CC001F30CD0074
:1013C00095314D2589314D082300BE0020004C0881
:1013D0002300BD0001302000CC001F30CD0095312E
:1013E0004D2589314D082300C50020004C082300FD
:1013F000C4000330450221300319440203180B2AAC
:1014000045082000D000230044082000CF0093317D
:101410008D2389310D2ABF01BF0A02302000CC0084
:101420001F30CD0095314D2589314D082300C50071
:1014300020004C082300C40003304502213003196A
:10144000440203182E2A45082000D0002300440837
:101450002000CF00933182238931302ABF01BF0A97
:1014600003302000CC001F30CD0095314D2589314F
:101470004D082300C50020004C082300C4000330A1
:1014800045022130031944020318512A450820005F
:10149000D000230044082000CF0093317723893106
:1014A000532ABF01BF0A04302000CC001F30CD00FA
:1014B00095314D2589314D082300C50020004C0889
:1014C0002300C400273045021130031944020318D9
:1014D000742A45082000D500230044082000D400C9
:1014E0009531AE258931762ABF01BF0A053020002B
:1014F000CC001F30CD0095314D2589314D0823009A
:10150000C50020004C082300C400033045022130F0
:10151000031944020318972A45082000CD00230030
:1015200044082000CC00943174248931992ABF01E9
:10153000BF0A06302000CC001F30CD0095314D256C
:1015400089314D082300C50020004C082300C40049
:10155000273045021130031944020318BA2A4508FE
:101560002000D500230044082000D40096318826AE
:101570008931BC2ABF01BF0A23003F08031DD92AB5
:10158000BC303D060A3003193E060319CE2ABA3094
:101590003D060C3003193E06031D002BBC303D06F2
:1015A0000A3003193E06031D002B94318C24893127
:1015B000002B00302000CF00D00093318D238931E3
:1015C0000030CF00D0009331822389310030CF002A
:1015D000D0009331772389310030D400D500953184
:1015E000AE25893100302000CC00CD009431742428
:1015F000893100302000D400D50096318826893109
:1016000007302000CC001F30CD0095314D258931A9
:101610004D082300C50020004C082300C4004408E6
:10162000C0004508C100C201C3011030C035C10D62
:10163000C20DC30D890B162B08302000CC001F30C3
:10164000CD0095314D2589314D082300C50020007E
:101650004C082300C40044082000DA002300450899
:101660002000DB00DC01DD015A082300C00420005B
:101670005B082300C10420005C082300C204200092
:101680005D082300C304400A3F3003194106031DCF
:101690005E2B420A3F3003194306031D5E2B0030C8
:1016A0002000CF000030CE000030CD000030CC0054
:1016B0009331E92389318831F02008004308200064
:1016C000CF00230042082000CE0023004108200064
:1016D000CD00230040082000CC009331E92308000E
:1016E00020003C082200D70020003B082200D60042
:1016F0009231C7228B31FF3070052000C3000330C8
:101700007105C400C335C40D7630430784008030B2
:10171000443D8500003FBB00013FBC003408031975
:1017200008005F08031DA82B9231B8228B31710885
:101730003C02031D9D2B70083B020318002C290856
:10174000A3002808A200DF01DF0A22008C120C1679
:1017500020005F03031DC32B02302302F73003195F
:1017600022020318BE2B0130A2070030A33D23083C
:10177000F1002208F0009231B32208000230C300C9
:101780004308DF00080002305F06031DDC2B3C0825
:1017900022006002031DD02B20003B0822005F02C4
:1017A000031C080003302000C3004308DF002308A7
:1017B000A9002208A800002C03305F06031DF52BAA
:1017C0009231B8228B3171083C02031DE92B70085D
:1017D0003B02031C002C3603FF3AC3004308B3004E
:1017E0000430C3004308DF00002C04305F06031DF3
:1017F000002C33083607C300323043020318DF01E0
:101800003203031D08002200560820003B0222007C
:10181000D800570820003C3B2200D90020003C089B
:1018200022005702031D182C20003B0822005602FC
:1018300003181E2C2000B501B50A202C2000B5018C
:101840003C083E02031D262C3B083D020318412C98
:1018500022000C168C12F730F0000230F1009431A7
:1018600030248B31F7302000A4000230A500F7307F
:10187000A6000230A700F7302000A8000230A9001F
:10188000102D40083C02031D472C3F083B02031C5F
:101890004D2C22000C168C123B2C42083C02031DDE
:1018A000532C41083B02031CE72C22000C168C161B
:1018B0002000C701C70A3503031DC02C41083B02A5
:1018C000F00042083C3BF100F201F3010030F70068
:1018D0000030F6000230F500F730F400963127268C
:1018E0008B317308CB007208CA007108C9007008F8
:1018F000C80041083F02F0004208403BF100F201FD
:10190000F3014B08F7004A08F6004908F5004808BB
:10191000F4009731AE278B317308CB007208CA00F0
:101920007108C9007008C8004B08031DA02C4A08A4
:10193000031DA02CF83048020230493B031CA52CA3
:10194000F730A8000230A900BF2C2808C3002908DE
:10195000C400C501C6014B084602031DB92C4A0844
:101960004502031DB92C49084402031DB92C48083F
:1019700043020318C02C4908A9004808A800C70161
:101980004703031DE32C220066085302031DCA2CE3
:1019900065085202031CDF2CD201D301083020005D
:1019A000A8070030A93D02302902F83003192802A7
:1019B000031CE32CF730A8000230A900E32C01300F
:1019C000D2070030D33D2200D001D101102D2200DA
:1019D0000C128C1662085102031DF02C6108500293
:1019E000031C0C2DD001D101200029082200640223
:1019F000031DFE2C20002808220063020318082D76
:101A000063082000A802220064082000A93B102DD2
:101A10002000A801A901102D0130D0070030D13DD0
:101A200020002908F1002808F0009231B3220800B4
:101A300020002F08031908002F03031D2A2D360349
:101A4000FF3ADA005A08B000DE010230DA005A0824
:101A5000AF00080002302F06031D3B2D300836076B
:101A6000DA0003305A02031C0800B1010330DA0027
:101A70005A08AF00080003302F06031D8E2D3108D1
:101A80000319080030083607DA0003305A02031C35
:101A90000800DE01DE0A220020082000DA005A08D1
:101AA0002300BD00C101C10A20003108230041020A
:101AB00003186C2D4108203E860001308700010884
:101AC0002000DA005A082300BD0601302000DA00A9
:101AD0005A082300C107542D3D08031D852DAA3047
:101AE0002200200603197C2D5530200603197C2D79
:101AF000A5302006031D852D0F3020003106031967
:101B0000892D023031060319892D2000B101DE0133
:101B100008000430DA005A08AF00080004302F062D
:101B2000031DE62FAA3022002006031D9D2D013043
:101B30002000DA005A082100EF07AA302200200610
:101B4000031DAE2E0F3020003106031DAE2E2200E5
:101B500021082000DA00DB015A082300C800200019
:101B60005B082300C900220022082000DA00DB0104
:101B7000230048082000DD00DC015A085C04230033
:101B8000C80020005B085D042300C900490820004C
:101B9000D000230048082000CF0093318D238D31E1
:101BA000220023082000DA00DB015A082300C800C5
:101BB00020005B082300C900220024082000DA006E
:101BC000DB01230048082000DD00DC015A085C042A
:101BD0002300C80020005B085D042300C9004908F9
:101BE0002000D000230048082000CF00933182233A
:101BF0008D31220025082000DA00DB015A0823007D
:101C0000C80020005B082300C9002200260820002D
:101C1000DA00DB01230048082000DD00DC015A085F
:101C20005C042300C80020005B085D042300C90099
:101C300049082000D000230048082000CF0093313D
:101C400077238D31220027082000DA00DB015A08B3
:101C50002300C80020005B082300C90022002808D8
:101C60002000DA00DB01230048082000DD00DC0151
:101C70005A085C042300C80020005B085D042300B0
:101C8000C90049082000D500230048082000D400DE
:101C90009531AE258D31220029082000DA00DB01C4
:101CA0005A082300C80020005B082300C900220056
:101CB0002A082000DA00DB01230048082000DD00AC
:101CC000DC015A085C042300C80020005B085D04A6
:101CD0002300C90049082000CD0023004808200047
:101CE000CC00943174248D3122002B082000DA00BE
:101CF000DB015A082300C80020005B082300C9004C
:101D000022002C082000DA00DB0123004808200014
:101D1000DD00DC015A085C042300C80020005B08D9
:101D20005D042300C90049082000D50023004808AD
:101D30002000D400963188268D3122002D08031D05
:101D4000A52E9331BD238D31A82E94318C248D3155
:101D50008831F0202000AF01AF0A08005530220082
:101D60002006031D772F023020003106031D772F38
:101D70009231C2228D314D082300CB0020004C0847
:101D80002300CA004B082000DA005A082200A100F4
:101D900023004A082000DA005A082200A2009231EB
:101DA000D9228D314D082300CB0020004C082300A0
:101DB000CA004B082000DA005A082200A3002300C2
:101DC0004A082000DA005A082200A4009231D322E7
:101DD0008D314D082300CB0020004C082300CA00A1
:101DE0004B082000DA005A082200A50023004A0808
:101DF0002000DA005A082200A60094311B248D31FD
:101E000053082300CB00200052082300CA004B08CF
:101E10002000DA005A082200A70023004A08200008
:101E2000DA005A082200A8009231CD228D314D08E7
:101E30002300CB0020004C082300CA004B082000E0
:101E4000DA005A082200A90023004A082000DA001C
:101E50005A082200AA00933131238D314D08230006
:101E6000CB0020004C082300CA004B082000DA00F9
:101E70005A082200AB0023004A082000DA005A0862
:101E80002200AC009231A5228D31DA005A082200DE
:101E9000AD0020082000DA005A082300BE00C2016D
:101EA000C20A4208203E8600013087000108200057
:101EB000DA005A082300BE0601302000DA005A0872
:101EC0002300C2070E304202031C512F3E0820009F
:101ED000DA005A082200AE000F302000DA005A085B
:101EE000B100AE010530DA005A08AF000800A53095
:101EF00022002006031DAA2E023020003106031DF9
:101F0000AA2E9231BD228D314D082300C000200041
:101F10004C082300BF0040082000DA005A082200C5
:101F2000A10023003F082000DA005A082200A20086
:101F30009331F9238D314F082300C70020004E084C
:101F40002300C60020004D082300C50020004C08D7
:101F50002300C40047082000DA005A082200A3002A
:101F6000230046082000DA005A082200A4002300BB
:101F700045082000DA005A082200A5002300440882
:101F80002000DA005A082200A60020082000DA000B
:101F90005A082200A7002300C301C30A07304302E6
:101FA0000318E42F4308203E860001308700010813
:101FB0002000DA005A082200A70601302000DA00CB
:101FC0005A082300C307CE2F08306D2F05302F0687
:101FD000031D080023009E1C0800200031082E026B
:101FE0000318AA2E2E08203E860001308700010823
:101FF00023009A0001302000DA005A08AE070800DA
:102522000800080094315C2408001D121D160800E2
:1025320021009D14080020001C15080022008E12A4
:10254200080022008E16080020003408080001341A
:1025520003340134911093316C23080016302100AA
:10256200970008007108A7007008A600080021085B
:10257200F1002008F00008003C08CD003B08CC0028
:1025820008004208CD004108CC00080021001C08C8
:10259200F1001B08F000080020002108CD002008EF
:1025A200CC00080020003E08CD003D08CC00080009
:1025B20020004008CD003F08CC000800AB012100FC
:1025C200E50192319F220800640080010131890BEC
:1025D200E62A0034FE0012001E00FE0BEC2A003434
:1025E2004D082200EC0020004C082200EB000800FD
:1025F2004D082200EE0020004C082200ED000800E9
:102602004D082300CD0020004C082300CC00080018
:102612004D082300D10020004C082300D000080000
:102622004D082300CF0020004C082300CE000800F4
:102632004D082300D30020004C082300D2000800DC
:102642007A30210099009A0198012200960108002F
:102652004D082200E80020004C082200E700080094
:1026620022004F082000CD0022004E082000CC009E
:1026720008002B08031D0800AB01AB0A2100E5018D
:10268200E50A080020002B0803190800AB01AB0A79
:102692002100E501E50A0800C730280096009501EF
:1026A200200092100530280097000800FF34FF3404
:1026B200143400340A340034043400340534003451
:1026C2002200670868040319080068088A0067087E
:1026D2000A009331080022006D086E0403190800F5
:1026E2006E088A006D080A00933108005008CD0078
:1026F2004F08CC003D30D1005108CE009431F62471
:1027020008005008CD004F08CC003F30D1005108DE
:10271200CE009431F62408005008CD004F08CC00BA
:102722004130D1005108CE009431F6240800111333
:1027320022006B086C04031908006C088A006B08FD
:102742000A0093310800111022006A08F10069089A
:10275200F0009331CB239331933161230800803011
:102762002C009900BD309800C030970025001E084B
:10277200CF3910389E0008002000340803190800E1
:102782009231DF2221008C160C162000A601A7012F
:10279200B40108002000181DD52B181071089700ED
:1027A20070089600181408007108970070089600C7
:1027B2000800CD004D08CC00CC0DCC0D21001D0829
:1027C20020004C0683394C0621009D001D14080090
:1027D2004F082200CB0020004E082200CA00200031
:1027E2004D082200C90020004C082200C800080041
:1027F20022004B082000CF0022004A082000CE0011
:10280200220049082000CD00220048082000CC0008
:10281200080001309D00E0309E0050309F009B0177
:102822009C01111791302000CC001230CD00923162
:10283200F122080022006508013E2000CC00003091
:102842002200663D2000CD006430CE000030CF0073
:102852009431C0244D08D3004C08D20008007108FE
:10286200F3007008F200F336F20CF336F20C720841
:102872002C00980070080339F2000530F235FF3E53
:10288200031D3F2C72359700080020002F08031DFE
:1028920008008B30CC001530CD00933129239431C0
:1028A2002E302000CC001530CD00933119232000AA
:1028B200AF01AF0A080023001908F00020003A080F
:1028C200B03E860001308700700881000130F000C0
:1028D2007008BA0708303A020318BA010130F00052
:1028E2007008B80708004C0A03194D0A03190800BA
:1028F20003304D02213003194C02031C852C203079
:10290200A0000330A100892C4D08A1004C08A000B2
:102912009331432308002000340303190800933144
:102922003A23943121008C120C122000A801A90133
:10293200A401A501A601A7016003031DA22C9531E4
:10294200D4252000B401B40A080099013C30970054
:10295200B0309600111017082200EA002000160875
:102962002200E9002100111476302000CC0008304A
:10297200CD00933129233130200098000800D00186
:10298200D1014C1CC82C4E08D0074F08D13D013054
:10299200CE35CF0D890BC92C0130CD36CC0C890B2D
:1029A200CE2C4C084D04031DC22C5108CD005008FA
:1029B200CC0008009531FB259431933121239431C9
:1029C2009231AF22943194310A24943193314D23C0
:1029D20094319331B02394318831782094319431F9
:1029E200A62494319631562608004C0A03194D0A42
:1029F2000319080003304D02203003194C02031C56
:102A02000A2D4E08860087012030C03F0330C13FA7
:102A120008004E08860087014C08C03F4D08C13FA0
:102A220008009431DB2495318B170B178931D9219A
:102A320095319531D42595318031022095319431EB
:102A4200462495318D311825953189315A21953198
:102A52009731292795316400232D1908F000700859
:102A6200F10020005E08031D08003603FF3AF00063
:102A72007008B00020303102031808007108F0001D
:102A82003108203E86000130870070088100013045
:102A9200F0007008B107080000308B1B0130CE0037
:102AA2008B134C082300910020004D082300920054
:102AB200151315140000000020004E0C031C8B138C
:102AC20003188B17230014082000CD0023001308DD
:102AD2002000CC00080000308B1B0130CE008B138D
:102AE2004C082300910020004D082300920015138A
:102AF2001516151555309600AA309600951400004B
:102B020000002300151120004E0C031C8B13031828
:102B12008B1708000130F00070082000B607013062
:102B2200F0007008AD070A302D06031D0800AD0144
:102B32000130F00070082200DC070130F00070085C
:102B42002000AC073C302C06031D0800AC0101300C
:102B5200F00070082100E6070800540A0319550A1C
:102B620003190800633055029D3003195402031CF7
:102B7200BF2DFF302200E5000030E6006430200067
:102B8200CC000030CD005508CF005408CE0096315D
:102B9200BB264C08FF3E2200E500FF3020004D3DE1
:102BA2002200E60008002000600803190800E00186
:102BB20007309331DA23953106302000CE003030D1
:102BC200890BE12DCE0BE12D000092319922953136
:102BD20092319C2295316A30CC001730CD0092316F
:102BE200F922953170302000CC000B30CD009231AB
:102BF200F122080022008C0101308E0007302100F2
:102C02008C0018308E00183023008E0003308C00A8
:102C120024008C018E012100951725008C018E0164
:102C2200373026008C003F308E003F3027008C006A
:102C32003F308E0014303D00A00002303C00A40062
:102C42000E303D00A1000E30A20008000030FB0053
:102C52000030FA000030F9000030F800701C392E04
:102C62007408F8077508F93D7608FA3D7708FB3DC8
:102C72000130F435F50DF60DF70D890B3A2E0130C2
:102C8200F336F20CF10CF00C890B412E730872042E
:102C920071047004031D2F2E7B08F3007A08F200E2
:102CA2007908F1007808F000080021009112EF3055
:102CB2002000CC001630CD00933119239631083014
:102CC2009F0090309D0024309E0022309B009C018A
:102CD20092302000CC001230CD009331092396317E
:102CE20096302000CC001230CD0093311123963162
:102CF20093302000CC001230CD009331012320000C
:102D0200B701BA01B901B801210091160800540AAD
:102D12000319550A03190800633055029D3003193F
:102D22005402031C9A2E9C302200CE006330CF0046
:102D3200A12E55082200CF00200054082200CE0008
:102D420064302000CC000030CD0022004F0820006B
:102D5200CF0022004E082000CE009631BB269631CD
:102D62004D082200DE0020004C082200DD009331D5
:102D720043230800D201D3014C084D040319EA2E63
:102D8200D101D10ACD1BCF2E0130CC35CD0D890B0F
:102D9200C62E0130D0005008D107C32E0130D235E3
:102DA200D30D890BD02E4D084F02031DDA2E4C088D
:102DB2004E02031CE12E4C08CE024D08CF3B5214AA
:102DC2000130CD36CC0C890BE22E0130D102031D2D
:102DD200CF2E5308CD005208CC00080020003A083C
:102DE200403E860001308700810123001D1D062F11
:102DF20020003A08403E86000130870081142300FB
:102E020051088A0050080A00973123009D1C162F92
:102E120020003A08403E8600013087000115230059
:102E22004F088A004E080A00973120003A08403EB7
:102E320086000130870001080319262F23004D0860
:102E42008A004C080A009731080094315C2408007B
:102E520021006508031908006503031D3E2F660360
:102E6200FF3A2000DA005A082100E4000230200074
:102E7200DA005A082100E500080002306506031D49
:102E82000800640866072000DA003C305A02031C7E
:102E9200080021006603FF3A2000DA005A082100E8
:102EA200E4002200480A3F3003194906031D672F38
:102EB2004A0A3F3003194B06031D672F0130C8072A
:102EC2000030C93D0030CA3D0030CB3D8831F02092
:102ED2000800200025082702031D712F240826025E
:102EE2000318892F26082402F4002708253BF50041
:102EF20000307502093003197402031C852F083053
:102F0200A4020030A53B892F2708A5002608A400AB
:102F120027082502031D8F2F260824020318A72F36
:102F220024082602F4002508273BF500003075022C
:102F3200093003197402031CA32F0830A4070030C0
:102F4200A53DA72F2708A5002608A4002508F10003
:102F52002408F0009431302408000030FC000030D6
:102F6200FB000030FA000030F900730872047104AB
:102F720070040319F72FFD01FD0AF31BCC2F01305A
:102F8200F035F10DF20DF30D890BC12F0130F80070
:102F92007808FD07BE2F0130F935FA0DFB0DFC0D47
:102FA200890BCD2F73087702031DE12F7208760279
:102FB200031DE12F71087502031DE12F70087402D1
:102FC200031CEC2F7008F4027108F53B7208F63B03
:102FD2007308F73B79140130F336F20CF10CF00C64
:102FE200890BED2F0130FD02031DCC2F7C08F3006D
:102FF2007B08F2007A08F1007908F000080020341A
:1030020020344E344E344E344E343A3420346E34FE
:1030120075346D34623465347234203466347234FB
:103022006F346D3420343034203474346F342034AF
:1030320039343934393439340D340A340D340A34DC
:1030420000344534523452344F3452343A342034FA
:1030520069346E34763461346C34693464342034C7
:10306200733479346E347434613478342E340D34DC
:103072000A3400342034203449343A342034703451
:10308200723469346E347434203473347934733462
:10309200743465346D34203449344E3446344F34FC
:1030A2000D340A340034203420343F343A3420348E
:1030B2007034723469346E34743420347434683445
:1030C2006934733420347334633472346534653450
:1030D2006E340D340A3400342034203448343A3407
:1030E20020347334653474342034483449344734DA
:1030F2004834203476346F346C3474346134673439
:1031020065340D340A3400340D340A340D340A3473
:103112002D342D342D342D342D342D342D342D34A5
:103122002D342D342D342D342D342D342D342D3495
:103132000D340A340034203420344C343A342034F0
:1031420073346534743420344C344F34573420345F
:1031520076346F346C3474346134673465340D34CE
:103162000A3400344534723472346F3472343A346F
:10317200203469346E34763461346C3469346434A6
:1031820020346134723467342E340D340A340034FE
:103192004534723472346F3472343A3420346934C0
:1031A2006E34763461346C3469346434203463347C
:1031B2006F346D342E340D340A3400344134763495
:1031C200613469346C34613462346C346534203473
:1031D20043346F346D346D3461346E34643473341B
:1031E2003A340D340A3400342034203454343A341E
:1031F20020347334653474342034643465346C346C
:10320200613479342034543449344D3445340D34E6
:103212000A34003420342034483465346C34703439
:103222002034533463347234653465346E340D346F
:103232000A340D340A340034533479346E3474341D
:10324200613478343A34203443344E344E344E347C
:103252004E340D340A3400342034203443343A34AA
:10326200203463346F346D346D3461346E346434BD
:103272000D340A3400342034203448343A342034B3
:103282000034203420344C343A3420340034203496
:10329200203454343A34203400344F344B340D3417
:1032A2000A3400343E343E342034203400340834AE
:0632B20000340834003472
:020000040001F9
:04000E00FCFFFFFEF6
:00000001FF
